{
  "_format": "hh-sol-artifact-1",
  "contractName": "WarrantTokenFacet",
  "sourceName": "src/backend/contracts/WarrantTokenFacet.sol",
  "abi": [
    {
      "anonymous": false,
      "inputs": [
        {
          "indexed": true,
          "internalType": "address",
          "name": "owner",
          "type": "address"
        },
        {
          "indexed": true,
          "internalType": "address",
          "name": "spender",
          "type": "address"
        },
        {
          "indexed": false,
          "internalType": "uint256",
          "name": "value",
          "type": "uint256"
        }
      ],
      "name": "Approval",
      "type": "event"
    },
    {
      "anonymous": false,
      "inputs": [
        {
          "indexed": false,
          "internalType": "uint256",
          "name": "oldPrice",
          "type": "uint256"
        },
        {
          "indexed": false,
          "internalType": "uint256",
          "name": "newPrice",
          "type": "uint256"
        }
      ],
      "name": "StrikePriceChanged",
      "type": "event"
    },
    {
      "anonymous": false,
      "inputs": [
        {
          "indexed": true,
          "internalType": "address",
          "name": "from",
          "type": "address"
        },
        {
          "indexed": true,
          "internalType": "address",
          "name": "to",
          "type": "address"
        },
        {
          "indexed": false,
          "internalType": "uint256",
          "name": "value",
          "type": "uint256"
        }
      ],
      "name": "Transfer",
      "type": "event"
    },
    {
      "anonymous": false,
      "inputs": [
        {
          "indexed": true,
          "internalType": "address",
          "name": "holder",
          "type": "address"
        },
        {
          "indexed": false,
          "internalType": "uint256",
          "name": "amount",
          "type": "uint256"
        },
        {
          "indexed": false,
          "internalType": "uint256",
          "name": "cost",
          "type": "uint256"
        }
      ],
      "name": "WarrantExercised",
      "type": "event"
    },
    {
      "anonymous": false,
      "inputs": [
        {
          "indexed": true,
          "internalType": "address",
          "name": "holder",
          "type": "address"
        },
        {
          "indexed": false,
          "internalType": "uint256",
          "name": "amount",
          "type": "uint256"
        },
        {
          "indexed": false,
          "internalType": "uint256",
          "name": "timestamp",
          "type": "uint256"
        }
      ],
      "name": "WarrantIssued",
      "type": "event"
    },
    {
      "anonymous": false,
      "inputs": [
        {
          "indexed": true,
          "internalType": "address",
          "name": "from",
          "type": "address"
        },
        {
          "indexed": true,
          "internalType": "address",
          "name": "to",
          "type": "address"
        },
        {
          "indexed": false,
          "internalType": "uint256",
          "name": "amount",
          "type": "uint256"
        }
      ],
      "name": "WarrantTransferred",
      "type": "event"
    },
    {
      "inputs": [
        {
          "internalType": "address",
          "name": "owner",
          "type": "address"
        },
        {
          "internalType": "address",
          "name": "spender",
          "type": "address"
        }
      ],
      "name": "allowance",
      "outputs": [
        {
          "internalType": "uint256",
          "name": "",
          "type": "uint256"
        }
      ],
      "stateMutability": "view",
      "type": "function"
    },
    {
      "inputs": [
        {
          "internalType": "address",
          "name": "spender",
          "type": "address"
        },
        {
          "internalType": "uint256",
          "name": "amount",
          "type": "uint256"
        }
      ],
      "name": "approve",
      "outputs": [
        {
          "internalType": "bool",
          "name": "",
          "type": "bool"
        }
      ],
      "stateMutability": "nonpayable",
      "type": "function"
    },
    {
      "inputs": [
        {
          "internalType": "address",
          "name": "account",
          "type": "address"
        }
      ],
      "name": "balanceOf",
      "outputs": [
        {
          "internalType": "uint256",
          "name": "",
          "type": "uint256"
        }
      ],
      "stateMutability": "view",
      "type": "function"
    },
    {
      "inputs": [
        {
          "internalType": "uint256",
          "name": "amount",
          "type": "uint256"
        }
      ],
      "name": "burn",
      "outputs": [],
      "stateMutability": "nonpayable",
      "type": "function"
    },
    {
      "inputs": [
        {
          "internalType": "address",
          "name": "account",
          "type": "address"
        },
        {
          "internalType": "uint256",
          "name": "amount",
          "type": "uint256"
        }
      ],
      "name": "burnFrom",
      "outputs": [],
      "stateMutability": "nonpayable",
      "type": "function"
    },
    {
      "inputs": [
        {
          "internalType": "uint256",
          "name": "amount",
          "type": "uint256"
        }
      ],
      "name": "calculateExerciseCost",
      "outputs": [
        {
          "internalType": "uint256",
          "name": "",
          "type": "uint256"
        }
      ],
      "stateMutability": "view",
      "type": "function"
    },
    {
      "inputs": [],
      "name": "decimals",
      "outputs": [
        {
          "internalType": "uint8",
          "name": "",
          "type": "uint8"
        }
      ],
      "stateMutability": "view",
      "type": "function"
    },
    {
      "inputs": [
        {
          "internalType": "address",
          "name": "spender",
          "type": "address"
        },
        {
          "internalType": "uint256",
          "name": "subtractedValue",
          "type": "uint256"
        }
      ],
      "name": "decreaseAllowance",
      "outputs": [
        {
          "internalType": "bool",
          "name": "",
          "type": "bool"
        }
      ],
      "stateMutability": "nonpayable",
      "type": "function"
    },
    {
      "inputs": [],
      "name": "equityTokenAddress",
      "outputs": [
        {
          "internalType": "address",
          "name": "",
          "type": "address"
        }
      ],
      "stateMutability": "view",
      "type": "function"
    },
    {
      "inputs": [],
      "name": "expirationTimestamp",
      "outputs": [
        {
          "internalType": "uint256",
          "name": "",
          "type": "uint256"
        }
      ],
      "stateMutability": "view",
      "type": "function"
    },
    {
      "inputs": [
        {
          "internalType": "uint256",
          "name": "_additionalDays",
          "type": "uint256"
        }
      ],
      "name": "extendExpiration",
      "outputs": [],
      "stateMutability": "nonpayable",
      "type": "function"
    },
    {
      "inputs": [],
      "name": "getAllWarrantHolders",
      "outputs": [
        {
          "internalType": "address[]",
          "name": "",
          "type": "address[]"
        }
      ],
      "stateMutability": "view",
      "type": "function"
    },
    {
      "inputs": [],
      "name": "getWarrantHolderCount",
      "outputs": [
        {
          "internalType": "uint256",
          "name": "",
          "type": "uint256"
        }
      ],
      "stateMutability": "view",
      "type": "function"
    },
    {
      "inputs": [],
      "name": "hasExpired",
      "outputs": [
        {
          "internalType": "bool",
          "name": "",
          "type": "bool"
        }
      ],
      "stateMutability": "view",
      "type": "function"
    },
    {
      "inputs": [
        {
          "internalType": "address",
          "name": "spender",
          "type": "address"
        },
        {
          "internalType": "uint256",
          "name": "addedValue",
          "type": "uint256"
        }
      ],
      "name": "increaseAllowance",
      "outputs": [
        {
          "internalType": "bool",
          "name": "",
          "type": "bool"
        }
      ],
      "stateMutability": "nonpayable",
      "type": "function"
    },
    {
      "inputs": [
        {
          "internalType": "string",
          "name": "name",
          "type": "string"
        },
        {
          "internalType": "string",
          "name": "symbol",
          "type": "string"
        },
        {
          "internalType": "uint256",
          "name": "_strikePrice",
          "type": "uint256"
        },
        {
          "internalType": "uint256",
          "name": "_expirationDays",
          "type": "uint256"
        }
      ],
      "name": "initializeWarrantToken",
      "outputs": [],
      "stateMutability": "nonpayable",
      "type": "function"
    },
    {
      "inputs": [
        {
          "internalType": "address",
          "name": "holder",
          "type": "address"
        }
      ],
      "name": "isWarrantHolder",
      "outputs": [
        {
          "internalType": "bool",
          "name": "",
          "type": "bool"
        }
      ],
      "stateMutability": "view",
      "type": "function"
    },
    {
      "inputs": [
        {
          "internalType": "address",
          "name": "to",
          "type": "address"
        },
        {
          "internalType": "uint256",
          "name": "amount",
          "type": "uint256"
        }
      ],
      "name": "mint",
      "outputs": [],
      "stateMutability": "nonpayable",
      "type": "function"
    },
    {
      "inputs": [],
      "name": "name",
      "outputs": [
        {
          "internalType": "string",
          "name": "",
          "type": "string"
        }
      ],
      "stateMutability": "view",
      "type": "function"
    },
    {
      "inputs": [
        {
          "internalType": "address",
          "name": "_equityTokenAddress",
          "type": "address"
        }
      ],
      "name": "setEquityTokenAddress",
      "outputs": [],
      "stateMutability": "nonpayable",
      "type": "function"
    },
    {
      "inputs": [
        {
          "internalType": "uint256",
          "name": "_warrantPrice",
          "type": "uint256"
        }
      ],
      "name": "setWarrantPrice",
      "outputs": [],
      "stateMutability": "nonpayable",
      "type": "function"
    },
    {
      "inputs": [],
      "name": "strikePrice",
      "outputs": [
        {
          "internalType": "uint256",
          "name": "",
          "type": "uint256"
        }
      ],
      "stateMutability": "view",
      "type": "function"
    },
    {
      "inputs": [],
      "name": "symbol",
      "outputs": [
        {
          "internalType": "string",
          "name": "",
          "type": "string"
        }
      ],
      "stateMutability": "view",
      "type": "function"
    },
    {
      "inputs": [],
      "name": "timeToExpiration",
      "outputs": [
        {
          "internalType": "uint256",
          "name": "",
          "type": "uint256"
        }
      ],
      "stateMutability": "view",
      "type": "function"
    },
    {
      "inputs": [],
      "name": "totalSupply",
      "outputs": [
        {
          "internalType": "uint256",
          "name": "",
          "type": "uint256"
        }
      ],
      "stateMutability": "view",
      "type": "function"
    },
    {
      "inputs": [
        {
          "internalType": "address",
          "name": "to",
          "type": "address"
        },
        {
          "internalType": "uint256",
          "name": "amount",
          "type": "uint256"
        }
      ],
      "name": "transfer",
      "outputs": [
        {
          "internalType": "bool",
          "name": "",
          "type": "bool"
        }
      ],
      "stateMutability": "nonpayable",
      "type": "function"
    },
    {
      "inputs": [
        {
          "internalType": "address",
          "name": "from",
          "type": "address"
        },
        {
          "internalType": "address",
          "name": "to",
          "type": "address"
        },
        {
          "internalType": "uint256",
          "name": "amount",
          "type": "uint256"
        }
      ],
      "name": "transferFrom",
      "outputs": [
        {
          "internalType": "bool",
          "name": "",
          "type": "bool"
        }
      ],
      "stateMutability": "nonpayable",
      "type": "function"
    },
    {
      "inputs": [
        {
          "internalType": "uint256",
          "name": "_newStrikePrice",
          "type": "uint256"
        }
      ],
      "name": "updateStrikePrice",
      "outputs": [],
      "stateMutability": "nonpayable",
      "type": "function"
    },
    {
      "inputs": [
        {
          "internalType": "address",
          "name": "holder",
          "type": "address"
        }
      ],
      "name": "warrantAmounts",
      "outputs": [
        {
          "internalType": "uint256",
          "name": "",
          "type": "uint256"
        }
      ],
      "stateMutability": "view",
      "type": "function"
    },
    {
      "inputs": [],
      "name": "warrantPrice",
      "outputs": [
        {
          "internalType": "uint256",
          "name": "",
          "type": "uint256"
        }
      ],
      "stateMutability": "view",
      "type": "function"
    },
    {
      "inputs": [
        {
          "internalType": "address",
          "name": "holder",
          "type": "address"
        }
      ],
      "name": "warrantPurchaseTimestamp",
      "outputs": [
        {
          "internalType": "uint256",
          "name": "",
          "type": "uint256"
        }
      ],
      "stateMutability": "view",
      "type": "function"
    }
  ],
  "bytecode": "0x608060405234801561001057600080fd5b50612ba6806100206000396000f3fe608060405234801561001057600080fd5b50600436106101e55760003560e01c806368ebb7ac1161010f578063a457c2d7116100a2578063d527f79811610071578063d527f798146105aa578063dd62ed3e146105c6578063ec07df2e146105f6578063f10be73214610626576101e5565b8063a457c2d714610510578063a9059cbb14610540578063c52987cf14610570578063c6a068871461058e576101e5565b806384efd784116100de57806384efd7841461049857806390e64d13146104b657806395d89b41146104d45780639f43ddd2146104f2576101e5565b806368ebb7ac146103fe57806370a082311461042e57806379cc67901461045e5780637de6f5071461047a576101e5565b806323b872dd1161018757806342966c681161015657806342966c681461037857806346065ba11461039457806349e50907146103b25780635b8e8803146103e2576101e5565b806323b872dd146102de578063313ce5671461030e578063395093511461032c57806340c10f191461035c576101e5565b8063095ea7b3116101c3578063095ea7b3146102565780630a114a701461028657806318160ddd146102a257806318bedecf146102c0576101e5565b80630410582b146101ea57806306fdde031461021a57806307339dba14610238575b600080fd5b61020460048036038101906101ff9190611c76565b610642565b6040516102119190611cb2565b60405180910390f35b610222610662565b60405161022f9190611d5d565b60405180910390f35b6102406106fd565b60405161024d9190611cb2565b60405180910390f35b610270600480360381019061026b9190611ddd565b610710565b60405161027d9190611e38565b60405180910390f35b6102a0600480360381019061029b9190611c76565b610727565b005b6102aa61075a565b6040516102b79190611cb2565b60405180910390f35b6102c861076d565b6040516102d59190611cb2565b60405180910390f35b6102f860048036038101906102f39190611e53565b6107a7565b6040516103059190611e38565b60405180910390f35b6103166107cf565b6040516103239190611ec2565b60405180910390f35b61034660048036038101906103419190611ddd565b6107ef565b6040516103539190611e38565b60405180910390f35b61037660048036038101906103719190611ddd565b610896565b005b610392600480360381019061038d9190611c76565b610ab2565b005b61039c610abf565b6040516103a99190611eec565b60405180910390f35b6103cc60048036038101906103c79190611f07565b610af2565b6040516103d99190611cb2565b60405180910390f35b6103fc60048036038101906103f79190611c76565b610b44565b005b61041860048036038101906104139190611f07565b610b9a565b6040516104259190611cb2565b60405180910390f35b61044860048036038101906104439190611f07565b610bec565b6040516104559190611cb2565b60405180910390f35b61047860048036038101906104739190611ddd565b610c3e565b005b610482610c57565b60405161048f9190611ff2565b60405180910390f35b6104a0610cee565b6040516104ad9190611cb2565b60405180910390f35b6104be610d04565b6040516104cb9190611e38565b60405180910390f35b6104dc610d19565b6040516104e99190611d5d565b60405180910390f35b6104fa610db4565b6040516105079190611cb2565b60405180910390f35b61052a60048036038101906105259190611ddd565b610dc7565b6040516105379190611e38565b60405180910390f35b61055a60048036038101906105559190611ddd565b610eb6565b6040516105679190611e38565b60405180910390f35b610578610ed2565b6040516105859190611cb2565b60405180910390f35b6105a860048036038101906105a39190611f07565b610ee5565b005b6105c460048036038101906105bf9190612149565b610f32565b005b6105e060048036038101906105db91906121e8565b610fd0565b6040516105ed9190611cb2565b60405180910390f35b610610600480360381019061060b9190611f07565b611060565b60405161061d9190611e38565b60405180910390f35b610640600480360381019061063b9190611c76565b6110bf565b005b600061064c6110d2565b600001548261065b9190612257565b9050919050565b606061066c6110ff565b600301805461067a906122c8565b80601f01602080910402602001604051908101604052809291908181526020018280546106a6906122c8565b80156106f35780601f106106c8576101008083540402835291602001916106f3565b820191906000526020600020905b8154815290600101906020018083116106d657829003601f168201915b5050505050905090565b60006107076110d2565b60030154905090565b600061071d33848461112c565b6001905092915050565b62015180816107369190612257565b61073e6110d2565b600101600082825461075091906122f9565b9250508190555050565b60006107646110ff565b60020154905090565b6000806107786110d2565b905080600101544211156107905760009150506107a4565b4281600101546107a0919061232d565b9150505b90565b6000803390506107b88582856112fe565b6107c3858585611406565b60019150509392505050565b60006107d96110ff565b60050160009054906101000a900460ff16905090565b600061088c3384846107ff6110ff565b60010160003373ffffffffffffffffffffffffffffffffffffffff1673ffffffffffffffffffffffffffffffffffffffff16815260200190815260200160002060008873ffffffffffffffffffffffffffffffffffffffff1673ffffffffffffffffffffffffffffffffffffffff1681526020019081526020016000205461088791906122f9565b61112c565b6001905092915050565b6108a08282611900565b60006108aa6110d2565b90508060050160008473ffffffffffffffffffffffffffffffffffffffff1673ffffffffffffffffffffffffffffffffffffffff16815260200190815260200160002060009054906101000a900460ff166109bf5780600401839080600181540180825580915050600190039060005260206000200160009091909190916101000a81548173ffffffffffffffffffffffffffffffffffffffff021916908373ffffffffffffffffffffffffffffffffffffffff16021790555060018160050160008573ffffffffffffffffffffffffffffffffffffffff1673ffffffffffffffffffffffffffffffffffffffff16815260200190815260200160002060006101000a81548160ff0219169083151502179055505b428160060160008573ffffffffffffffffffffffffffffffffffffffff1673ffffffffffffffffffffffffffffffffffffffff16815260200190815260200160002081905550818160070160008573ffffffffffffffffffffffffffffffffffffffff1673ffffffffffffffffffffffffffffffffffffffff1681526020019081526020016000206000828254610a5691906122f9565b925050819055508273ffffffffffffffffffffffffffffffffffffffff167fea17a441b58baeb65e651f6809f4e6da0275353a1c8891688befd207070556238342604051610aa5929190612361565b60405180910390a2505050565b610abc3382611a59565b50565b6000610ac96110d2565b60020160009054906101000a900473ffffffffffffffffffffffffffffffffffffffff16905090565b6000610afc6110d2565b60060160008373ffffffffffffffffffffffffffffffffffffffff1673ffffffffffffffffffffffffffffffffffffffff168152602001908152602001600020549050919050565b6000610b4e6110d2565b90507fdcde745aa7a20bf543edf85e32d49f0c69f82498e4ae5592b6276919d7e8a893816000015483604051610b85929190612361565b60405180910390a18181600001819055505050565b6000610ba46110d2565b60070160008373ffffffffffffffffffffffffffffffffffffffff1673ffffffffffffffffffffffffffffffffffffffff168152602001908152602001600020549050919050565b6000610bf66110ff565b60000160008373ffffffffffffffffffffffffffffffffffffffff1673ffffffffffffffffffffffffffffffffffffffff168152602001908152602001600020549050919050565b610c498233836112fe565b610c538282611a59565b5050565b6060610c616110d2565b600401805480602002602001604051908101604052809291908181526020018280548015610ce457602002820191906000526020600020905b8160009054906101000a900473ffffffffffffffffffffffffffffffffffffffff1673ffffffffffffffffffffffffffffffffffffffff1681526020019060010190808311610c9a575b5050505050905090565b6000610cf86110d2565b60040180549050905090565b6000610d0e6110d2565b600101544211905090565b6060610d236110ff565b6004018054610d31906122c8565b80601f0160208091040260200160405190810160405280929190818152602001828054610d5d906122c8565b8015610daa5780601f10610d7f57610100808354040283529160200191610daa565b820191906000526020600020905b815481529060010190602001808311610d8d57829003601f168201915b5050505050905090565b6000610dbe6110d2565b60010154905090565b600080610dd26110ff565b60010160003373ffffffffffffffffffffffffffffffffffffffff1673ffffffffffffffffffffffffffffffffffffffff16815260200190815260200160002060008573ffffffffffffffffffffffffffffffffffffffff1673ffffffffffffffffffffffffffffffffffffffff16815260200190815260200160002054905082811015610e95576040517f08c379a0000000000000000000000000000000000000000000000000000000008152600401610e8c906123fc565b60405180910390fd5b610eab33858584610ea6919061232d565b61112c565b600191505092915050565b600080339050610ec7818585611406565b600191505092915050565b6000610edc6110d2565b60000154905090565b80610eee6110d2565b60020160006101000a81548173ffffffffffffffffffffffffffffffffffffffff021916908373ffffffffffffffffffffffffffffffffffffffff16021790555050565b6000610f3c6110ff565b90506000610f486110d2565b905085826003019081610f5b91906125c8565b5084826004019081610f6d91906125c8565b5060128260050160006101000a81548160ff021916908360ff1602179055508381600001819055506201518083610fa49190612257565b42610faf91906122f9565b816001018190555067016345785d8a00008160030181905550505050505050565b6000610fda6110ff565b60010160008473ffffffffffffffffffffffffffffffffffffffff1673ffffffffffffffffffffffffffffffffffffffff16815260200190815260200160002060008373ffffffffffffffffffffffffffffffffffffffff1673ffffffffffffffffffffffffffffffffffffffff16815260200190815260200160002054905092915050565b600061106a6110d2565b60050160008373ffffffffffffffffffffffffffffffffffffffff1673ffffffffffffffffffffffffffffffffffffffff16815260200190815260200160002060009054906101000a900460ff169050919050565b806110c86110d2565b6003018190555050565b6000807f09778ed5746acd062fb1b29585795c658e3fee3a925f2fb445d0fbeda279957290508091505090565b6000807f8aede67149b7f265c2d70e22603b3eb0764a59cfdde87c8617e255e2049fe20790508091505090565b600073ffffffffffffffffffffffffffffffffffffffff168373ffffffffffffffffffffffffffffffffffffffff160361119b576040517f08c379a00000000000000000000000000000000000000000000000000000000081526004016111929061270c565b60405180910390fd5b600073ffffffffffffffffffffffffffffffffffffffff168273ffffffffffffffffffffffffffffffffffffffff160361120a576040517f08c379a00000000000000000000000000000000000000000000000000000000081526004016112019061279e565b60405180910390fd5b806112136110ff565b60010160008573ffffffffffffffffffffffffffffffffffffffff1673ffffffffffffffffffffffffffffffffffffffff16815260200190815260200160002060008473ffffffffffffffffffffffffffffffffffffffff1673ffffffffffffffffffffffffffffffffffffffff168152602001908152602001600020819055508173ffffffffffffffffffffffffffffffffffffffff168373ffffffffffffffffffffffffffffffffffffffff167f8c5be1e5ebec7d5bd14f71427d1e84f3dd0314c0f7b2291e5b200ac8c7c3b925836040516112f19190611cb2565b60405180910390a3505050565b60006113086110ff565b60010160008573ffffffffffffffffffffffffffffffffffffffff1673ffffffffffffffffffffffffffffffffffffffff16815260200190815260200160002060008473ffffffffffffffffffffffffffffffffffffffff1673ffffffffffffffffffffffffffffffffffffffff1681526020019081526020016000205490507fffffffffffffffffffffffffffffffffffffffffffffffffffffffffffffffff811461140057818110156113f2576040517f08c379a00000000000000000000000000000000000000000000000000000000081526004016113e99061280a565b60405180910390fd5b6113ff848484840361112c565b5b50505050565b600073ffffffffffffffffffffffffffffffffffffffff168373ffffffffffffffffffffffffffffffffffffffff1603611475576040517f08c379a000000000000000000000000000000000000000000000000000000000815260040161146c9061289c565b60405180910390fd5b600073ffffffffffffffffffffffffffffffffffffffff168273ffffffffffffffffffffffffffffffffffffffff16036114e4576040517f08c379a00000000000000000000000000000000000000000000000000000000081526004016114db9061292e565b60405180910390fd5b60006114ee6110ff565b905060008160000160008673ffffffffffffffffffffffffffffffffffffffff1673ffffffffffffffffffffffffffffffffffffffff16815260200190815260200160002054905082811015611579576040517f08c379a0000000000000000000000000000000000000000000000000000000008152600401611570906129c0565b60405180910390fd5b8281038260000160008773ffffffffffffffffffffffffffffffffffffffff1673ffffffffffffffffffffffffffffffffffffffff16815260200190815260200160002081905550828260000160008673ffffffffffffffffffffffffffffffffffffffff1673ffffffffffffffffffffffffffffffffffffffff168152602001908152602001600020600082825461161291906122f9565b925050819055508373ffffffffffffffffffffffffffffffffffffffff168573ffffffffffffffffffffffffffffffffffffffff167fddf252ad1be2c89b69c2b068fc378daa952ba7f163c4a11628f55a4df523b3ef856040516116769190611cb2565b60405180910390a360006116886110d2565b9050838160070160008873ffffffffffffffffffffffffffffffffffffffff1673ffffffffffffffffffffffffffffffffffffffff16815260200190815260200160002060008282546116db919061232d565b925050819055508060050160008673ffffffffffffffffffffffffffffffffffffffff1673ffffffffffffffffffffffffffffffffffffffff16815260200190815260200160002060009054906101000a900460ff1661183b5780600401859080600181540180825580915050600190039060005260206000200160009091909190916101000a81548173ffffffffffffffffffffffffffffffffffffffff021916908373ffffffffffffffffffffffffffffffffffffffff16021790555060018160050160008773ffffffffffffffffffffffffffffffffffffffff1673ffffffffffffffffffffffffffffffffffffffff16815260200190815260200160002060006101000a81548160ff021916908315150217905550428160060160008773ffffffffffffffffffffffffffffffffffffffff1673ffffffffffffffffffffffffffffffffffffffff168152602001908152602001600020819055505b838160070160008773ffffffffffffffffffffffffffffffffffffffff1673ffffffffffffffffffffffffffffffffffffffff168152602001908152602001600020600082825461188c91906122f9565b925050819055508473ffffffffffffffffffffffffffffffffffffffff168673ffffffffffffffffffffffffffffffffffffffff167f9a8764eb3a304178c652bf9dc492c576852b1564ef9958afa953f398eba15410866040516118f09190611cb2565b60405180910390a3505050505050565b600073ffffffffffffffffffffffffffffffffffffffff168273ffffffffffffffffffffffffffffffffffffffff160361196f576040517f08c379a000000000000000000000000000000000000000000000000000000000815260040161196690612a2c565b60405180910390fd5b60006119796110ff565b90508181600201600082825461198f91906122f9565b92505081905550818160000160008573ffffffffffffffffffffffffffffffffffffffff1673ffffffffffffffffffffffffffffffffffffffff16815260200190815260200160002060008282546119e791906122f9565b925050819055508273ffffffffffffffffffffffffffffffffffffffff16600073ffffffffffffffffffffffffffffffffffffffff167fddf252ad1be2c89b69c2b068fc378daa952ba7f163c4a11628f55a4df523b3ef84604051611a4c9190611cb2565b60405180910390a3505050565b600073ffffffffffffffffffffffffffffffffffffffff168273ffffffffffffffffffffffffffffffffffffffff1603611ac8576040517f08c379a0000000000000000000000000000000000000000000000000000000008152600401611abf90612abe565b60405180910390fd5b6000611ad26110ff565b905060008160000160008573ffffffffffffffffffffffffffffffffffffffff1673ffffffffffffffffffffffffffffffffffffffff16815260200190815260200160002054905082811015611b5d576040517f08c379a0000000000000000000000000000000000000000000000000000000008152600401611b5490612b50565b60405180910390fd5b8281038260000160008673ffffffffffffffffffffffffffffffffffffffff1673ffffffffffffffffffffffffffffffffffffffff1681526020019081526020016000208190555082826002016000828254611bb9919061232d565b92505081905550600073ffffffffffffffffffffffffffffffffffffffff168473ffffffffffffffffffffffffffffffffffffffff167fddf252ad1be2c89b69c2b068fc378daa952ba7f163c4a11628f55a4df523b3ef85604051611c1e9190611cb2565b60405180910390a350505050565b6000604051905090565b600080fd5b600080fd5b6000819050919050565b611c5381611c40565b8114611c5e57600080fd5b50565b600081359050611c7081611c4a565b92915050565b600060208284031215611c8c57611c8b611c36565b5b6000611c9a84828501611c61565b91505092915050565b611cac81611c40565b82525050565b6000602082019050611cc76000830184611ca3565b92915050565b600081519050919050565b600082825260208201905092915050565b60005b83811015611d07578082015181840152602081019050611cec565b60008484015250505050565b6000601f19601f8301169050919050565b6000611d2f82611ccd565b611d398185611cd8565b9350611d49818560208601611ce9565b611d5281611d13565b840191505092915050565b60006020820190508181036000830152611d778184611d24565b905092915050565b600073ffffffffffffffffffffffffffffffffffffffff82169050919050565b6000611daa82611d7f565b9050919050565b611dba81611d9f565b8114611dc557600080fd5b50565b600081359050611dd781611db1565b92915050565b60008060408385031215611df457611df3611c36565b5b6000611e0285828601611dc8565b9250506020611e1385828601611c61565b9150509250929050565b60008115159050919050565b611e3281611e1d565b82525050565b6000602082019050611e4d6000830184611e29565b92915050565b600080600060608486031215611e6c57611e6b611c36565b5b6000611e7a86828701611dc8565b9350506020611e8b86828701611dc8565b9250506040611e9c86828701611c61565b9150509250925092565b600060ff82169050919050565b611ebc81611ea6565b82525050565b6000602082019050611ed76000830184611eb3565b92915050565b611ee681611d9f565b82525050565b6000602082019050611f016000830184611edd565b92915050565b600060208284031215611f1d57611f1c611c36565b5b6000611f2b84828501611dc8565b91505092915050565b600081519050919050565b600082825260208201905092915050565b6000819050602082019050919050565b611f6981611d9f565b82525050565b6000611f7b8383611f60565b60208301905092915050565b6000602082019050919050565b6000611f9f82611f34565b611fa98185611f3f565b9350611fb483611f50565b8060005b83811015611fe5578151611fcc8882611f6f565b9750611fd783611f87565b925050600181019050611fb8565b5085935050505092915050565b6000602082019050818103600083015261200c8184611f94565b905092915050565b600080fd5b600080fd5b7f4e487b7100000000000000000000000000000000000000000000000000000000600052604160045260246000fd5b61205682611d13565b810181811067ffffffffffffffff821117156120755761207461201e565b5b80604052505050565b6000612088611c2c565b9050612094828261204d565b919050565b600067ffffffffffffffff8211156120b4576120b361201e565b5b6120bd82611d13565b9050602081019050919050565b82818337600083830152505050565b60006120ec6120e784612099565b61207e565b90508281526020810184848401111561210857612107612019565b5b6121138482856120ca565b509392505050565b600082601f8301126121305761212f612014565b5b81356121408482602086016120d9565b91505092915050565b6000806000806080858703121561216357612162611c36565b5b600085013567ffffffffffffffff81111561218157612180611c3b565b5b61218d8782880161211b565b945050602085013567ffffffffffffffff8111156121ae576121ad611c3b565b5b6121ba8782880161211b565b93505060406121cb87828801611c61565b92505060606121dc87828801611c61565b91505092959194509250565b600080604083850312156121ff576121fe611c36565b5b600061220d85828601611dc8565b925050602061221e85828601611dc8565b9150509250929050565b7f4e487b7100000000000000000000000000000000000000000000000000000000600052601160045260246000fd5b600061226282611c40565b915061226d83611c40565b925082820261227b81611c40565b9150828204841483151761229257612291612228565b5b5092915050565b7f4e487b7100000000000000000000000000000000000000000000000000000000600052602260045260246000fd5b600060028204905060018216806122e057607f821691505b6020821081036122f3576122f2612299565b5b50919050565b600061230482611c40565b915061230f83611c40565b925082820190508082111561232757612326612228565b5b92915050565b600061233882611c40565b915061234383611c40565b925082820390508181111561235b5761235a612228565b5b92915050565b60006040820190506123766000830185611ca3565b6123836020830184611ca3565b9392505050565b7f45524332303a2064656372656173656420616c6c6f77616e63652062656c6f7760008201527f207a65726f000000000000000000000000000000000000000000000000000000602082015250565b60006123e6602583611cd8565b91506123f18261238a565b604082019050919050565b60006020820190508181036000830152612415816123d9565b9050919050565b60008190508160005260206000209050919050565b60006020601f8301049050919050565b600082821b905092915050565b60006008830261247e7fffffffffffffffffffffffffffffffffffffffffffffffffffffffffffffffff82612441565b6124888683612441565b95508019841693508086168417925050509392505050565b6000819050919050565b60006124c56124c06124bb84611c40565b6124a0565b611c40565b9050919050565b6000819050919050565b6124df836124aa565b6124f36124eb826124cc565b84845461244e565b825550505050565b600090565b6125086124fb565b6125138184846124d6565b505050565b5b818110156125375761252c600082612500565b600181019050612519565b5050565b601f82111561257c5761254d8161241c565b61255684612431565b81016020851015612565578190505b61257961257185612431565b830182612518565b50505b505050565b600082821c905092915050565b600061259f60001984600802612581565b1980831691505092915050565b60006125b8838361258e565b9150826002028217905092915050565b6125d182611ccd565b67ffffffffffffffff8111156125ea576125e961201e565b5b6125f482546122c8565b6125ff82828561253b565b600060209050601f8311600181146126325760008415612620578287015190505b61262a85826125ac565b865550612692565b601f1984166126408661241c565b60005b8281101561266857848901518255600182019150602085019450602081019050612643565b868310156126855784890151612681601f89168261258e565b8355505b6001600288020188555050505b505050505050565b7f45524332303a20617070726f76652066726f6d20746865207a65726f2061646460008201527f7265737300000000000000000000000000000000000000000000000000000000602082015250565b60006126f6602483611cd8565b91506127018261269a565b604082019050919050565b60006020820190508181036000830152612725816126e9565b9050919050565b7f45524332303a20617070726f766520746f20746865207a65726f20616464726560008201527f7373000000000000000000000000000000000000000000000000000000000000602082015250565b6000612788602283611cd8565b91506127938261272c565b604082019050919050565b600060208201905081810360008301526127b78161277b565b9050919050565b7f45524332303a20696e73756666696369656e7420616c6c6f77616e6365000000600082015250565b60006127f4601d83611cd8565b91506127ff826127be565b602082019050919050565b60006020820190508181036000830152612823816127e7565b9050919050565b7f45524332303a207472616e736665722066726f6d20746865207a65726f20616460008201527f6472657373000000000000000000000000000000000000000000000000000000602082015250565b6000612886602583611cd8565b91506128918261282a565b604082019050919050565b600060208201905081810360008301526128b581612879565b9050919050565b7f45524332303a207472616e7366657220746f20746865207a65726f206164647260008201527f6573730000000000000000000000000000000000000000000000000000000000602082015250565b6000612918602383611cd8565b9150612923826128bc565b604082019050919050565b600060208201905081810360008301526129478161290b565b9050919050565b7f45524332303a207472616e7366657220616d6f756e742065786365656473206260008201527f616c616e63650000000000000000000000000000000000000000000000000000602082015250565b60006129aa602683611cd8565b91506129b58261294e565b604082019050919050565b600060208201905081810360008301526129d98161299d565b9050919050565b7f45524332303a206d696e7420746f20746865207a65726f206164647265737300600082015250565b6000612a16601f83611cd8565b9150612a21826129e0565b602082019050919050565b60006020820190508181036000830152612a4581612a09565b9050919050565b7f45524332303a206275726e2066726f6d20746865207a65726f2061646472657360008201527f7300000000000000000000000000000000000000000000000000000000000000602082015250565b6000612aa8602183611cd8565b9150612ab382612a4c565b604082019050919050565b60006020820190508181036000830152612ad781612a9b565b9050919050565b7f45524332303a206275726e20616d6f756e7420657863656564732062616c616e60008201527f6365000000000000000000000000000000000000000000000000000000000000602082015250565b6000612b3a602283611cd8565b9150612b4582612ade565b604082019050919050565b60006020820190508181036000830152612b6981612b2d565b905091905056fea26469706673582212207b8a7b750c6a0cdce922a3f7f845fc4ed82317ca992eb109ff87741f5b2dca5c64736f6c63430008110033",
  "linkReferences": {},
  "deployedLinkReferences": {}
}