{
  "_format": "hh-sol-artifact-1",
  "contractName": "BondTokenFacet",
  "sourceName": "src/backend/contracts/BondTokenFacet.sol",
  "abi": [
    {
      "anonymous": false,
      "inputs": [
        {
          "indexed": true,
          "internalType": "address",
          "name": "owner",
          "type": "address"
        },
        {
          "indexed": true,
          "internalType": "address",
          "name": "spender",
          "type": "address"
        },
        {
          "indexed": false,
          "internalType": "uint256",
          "name": "value",
          "type": "uint256"
        }
      ],
      "name": "Approval",
      "type": "event"
    },
    {
      "anonymous": false,
      "inputs": [
        {
          "indexed": true,
          "internalType": "address",
          "name": "holder",
          "type": "address"
        },
        {
          "indexed": false,
          "internalType": "uint256",
          "name": "amount",
          "type": "uint256"
        },
        {
          "indexed": false,
          "internalType": "uint256",
          "name": "timestamp",
          "type": "uint256"
        }
      ],
      "name": "BondIssued",
      "type": "event"
    },
    {
      "anonymous": false,
      "inputs": [
        {
          "indexed": true,
          "internalType": "address",
          "name": "holder",
          "type": "address"
        },
        {
          "indexed": false,
          "internalType": "uint256",
          "name": "amount",
          "type": "uint256"
        }
      ],
      "name": "BondMatured",
      "type": "event"
    },
    {
      "anonymous": false,
      "inputs": [
        {
          "indexed": true,
          "internalType": "address",
          "name": "from",
          "type": "address"
        },
        {
          "indexed": true,
          "internalType": "address",
          "name": "to",
          "type": "address"
        },
        {
          "indexed": false,
          "internalType": "uint256",
          "name": "amount",
          "type": "uint256"
        }
      ],
      "name": "BondTransferred",
      "type": "event"
    },
    {
      "anonymous": false,
      "inputs": [
        {
          "indexed": true,
          "internalType": "address",
          "name": "from",
          "type": "address"
        },
        {
          "indexed": true,
          "internalType": "address",
          "name": "to",
          "type": "address"
        },
        {
          "indexed": false,
          "internalType": "uint256",
          "name": "value",
          "type": "uint256"
        }
      ],
      "name": "Transfer",
      "type": "event"
    },
    {
      "inputs": [
        {
          "internalType": "address",
          "name": "owner",
          "type": "address"
        },
        {
          "internalType": "address",
          "name": "spender",
          "type": "address"
        }
      ],
      "name": "allowance",
      "outputs": [
        {
          "internalType": "uint256",
          "name": "",
          "type": "uint256"
        }
      ],
      "stateMutability": "view",
      "type": "function"
    },
    {
      "inputs": [
        {
          "internalType": "address",
          "name": "spender",
          "type": "address"
        },
        {
          "internalType": "uint256",
          "name": "amount",
          "type": "uint256"
        }
      ],
      "name": "approve",
      "outputs": [
        {
          "internalType": "bool",
          "name": "",
          "type": "bool"
        }
      ],
      "stateMutability": "nonpayable",
      "type": "function"
    },
    {
      "inputs": [
        {
          "internalType": "address",
          "name": "account",
          "type": "address"
        }
      ],
      "name": "balanceOf",
      "outputs": [
        {
          "internalType": "uint256",
          "name": "",
          "type": "uint256"
        }
      ],
      "stateMutability": "view",
      "type": "function"
    },
    {
      "inputs": [
        {
          "internalType": "address",
          "name": "holder",
          "type": "address"
        }
      ],
      "name": "bondAmounts",
      "outputs": [
        {
          "internalType": "uint256",
          "name": "",
          "type": "uint256"
        }
      ],
      "stateMutability": "view",
      "type": "function"
    },
    {
      "inputs": [
        {
          "internalType": "address",
          "name": "holder",
          "type": "address"
        }
      ],
      "name": "bondPurchaseTimestamp",
      "outputs": [
        {
          "internalType": "uint256",
          "name": "",
          "type": "uint256"
        }
      ],
      "stateMutability": "view",
      "type": "function"
    },
    {
      "inputs": [
        {
          "internalType": "uint256",
          "name": "amount",
          "type": "uint256"
        }
      ],
      "name": "burn",
      "outputs": [],
      "stateMutability": "nonpayable",
      "type": "function"
    },
    {
      "inputs": [
        {
          "internalType": "address",
          "name": "account",
          "type": "address"
        },
        {
          "internalType": "uint256",
          "name": "amount",
          "type": "uint256"
        }
      ],
      "name": "burnFrom",
      "outputs": [],
      "stateMutability": "nonpayable",
      "type": "function"
    },
    {
      "inputs": [
        {
          "internalType": "uint256",
          "name": "amount",
          "type": "uint256"
        }
      ],
      "name": "calculateRedemptionAmount",
      "outputs": [
        {
          "internalType": "uint256",
          "name": "",
          "type": "uint256"
        }
      ],
      "stateMutability": "view",
      "type": "function"
    },
    {
      "inputs": [],
      "name": "decimals",
      "outputs": [
        {
          "internalType": "uint8",
          "name": "",
          "type": "uint8"
        }
      ],
      "stateMutability": "view",
      "type": "function"
    },
    {
      "inputs": [
        {
          "internalType": "address",
          "name": "spender",
          "type": "address"
        },
        {
          "internalType": "uint256",
          "name": "subtractedValue",
          "type": "uint256"
        }
      ],
      "name": "decreaseAllowance",
      "outputs": [
        {
          "internalType": "bool",
          "name": "",
          "type": "bool"
        }
      ],
      "stateMutability": "nonpayable",
      "type": "function"
    },
    {
      "inputs": [],
      "name": "getAllBondHolders",
      "outputs": [
        {
          "internalType": "address[]",
          "name": "",
          "type": "address[]"
        }
      ],
      "stateMutability": "view",
      "type": "function"
    },
    {
      "inputs": [],
      "name": "getBondHolderCount",
      "outputs": [
        {
          "internalType": "uint256",
          "name": "",
          "type": "uint256"
        }
      ],
      "stateMutability": "view",
      "type": "function"
    },
    {
      "inputs": [
        {
          "internalType": "address",
          "name": "holder",
          "type": "address"
        }
      ],
      "name": "hasBondMatured",
      "outputs": [
        {
          "internalType": "bool",
          "name": "",
          "type": "bool"
        }
      ],
      "stateMutability": "view",
      "type": "function"
    },
    {
      "inputs": [
        {
          "internalType": "address",
          "name": "spender",
          "type": "address"
        },
        {
          "internalType": "uint256",
          "name": "addedValue",
          "type": "uint256"
        }
      ],
      "name": "increaseAllowance",
      "outputs": [
        {
          "internalType": "bool",
          "name": "",
          "type": "bool"
        }
      ],
      "stateMutability": "nonpayable",
      "type": "function"
    },
    {
      "inputs": [
        {
          "internalType": "string",
          "name": "name",
          "type": "string"
        },
        {
          "internalType": "string",
          "name": "symbol",
          "type": "string"
        },
        {
          "internalType": "uint256",
          "name": "_maturityPeriodDays",
          "type": "uint256"
        },
        {
          "internalType": "uint256",
          "name": "_yieldBasisPoints",
          "type": "uint256"
        }
      ],
      "name": "initializeBondToken",
      "outputs": [],
      "stateMutability": "nonpayable",
      "type": "function"
    },
    {
      "inputs": [],
      "name": "issuanceTimestamp",
      "outputs": [
        {
          "internalType": "uint256",
          "name": "",
          "type": "uint256"
        }
      ],
      "stateMutability": "view",
      "type": "function"
    },
    {
      "inputs": [],
      "name": "maturityPeriod",
      "outputs": [
        {
          "internalType": "uint256",
          "name": "",
          "type": "uint256"
        }
      ],
      "stateMutability": "view",
      "type": "function"
    },
    {
      "inputs": [
        {
          "internalType": "address",
          "name": "to",
          "type": "address"
        },
        {
          "internalType": "uint256",
          "name": "amount",
          "type": "uint256"
        }
      ],
      "name": "mint",
      "outputs": [],
      "stateMutability": "nonpayable",
      "type": "function"
    },
    {
      "inputs": [],
      "name": "name",
      "outputs": [
        {
          "internalType": "string",
          "name": "",
          "type": "string"
        }
      ],
      "stateMutability": "view",
      "type": "function"
    },
    {
      "inputs": [],
      "name": "symbol",
      "outputs": [
        {
          "internalType": "string",
          "name": "",
          "type": "string"
        }
      ],
      "stateMutability": "view",
      "type": "function"
    },
    {
      "inputs": [
        {
          "internalType": "address",
          "name": "holder",
          "type": "address"
        }
      ],
      "name": "timeToMaturity",
      "outputs": [
        {
          "internalType": "uint256",
          "name": "",
          "type": "uint256"
        }
      ],
      "stateMutability": "view",
      "type": "function"
    },
    {
      "inputs": [],
      "name": "totalSupply",
      "outputs": [
        {
          "internalType": "uint256",
          "name": "",
          "type": "uint256"
        }
      ],
      "stateMutability": "view",
      "type": "function"
    },
    {
      "inputs": [
        {
          "internalType": "address",
          "name": "to",
          "type": "address"
        },
        {
          "internalType": "uint256",
          "name": "amount",
          "type": "uint256"
        }
      ],
      "name": "transfer",
      "outputs": [
        {
          "internalType": "bool",
          "name": "",
          "type": "bool"
        }
      ],
      "stateMutability": "nonpayable",
      "type": "function"
    },
    {
      "inputs": [
        {
          "internalType": "address",
          "name": "from",
          "type": "address"
        },
        {
          "internalType": "address",
          "name": "to",
          "type": "address"
        },
        {
          "internalType": "uint256",
          "name": "amount",
          "type": "uint256"
        }
      ],
      "name": "transferFrom",
      "outputs": [
        {
          "internalType": "bool",
          "name": "",
          "type": "bool"
        }
      ],
      "stateMutability": "nonpayable",
      "type": "function"
    },
    {
      "inputs": [],
      "name": "yieldBasisPoints",
      "outputs": [
        {
          "internalType": "uint256",
          "name": "",
          "type": "uint256"
        }
      ],
      "stateMutability": "view",
      "type": "function"
    }
  ],
  "bytecode": "0x608060405234801561001057600080fd5b50612a23806100206000396000f3fe608060405234801561001057600080fd5b50600436106101735760003560e01c806370a08231116100de578063a457c2d711610097578063baa8196e11610071578063baa8196e1461048a578063dd62ed3e146104ba578063dd9d3c48146104ea578063e0f37fc41461051a57610173565b8063a457c2d7146103fa578063a9059cbb1461042a578063b7b9b3df1461045a57610173565b806370a082311461032457806372e048761461035457806376074b351461037257806379cc6790146103a257806389801f5a146103be57806395d89b41146103dc57610173565b80633950935111610130578063395093511461025057806340c10f191461028057806342966c681461029c578063485cdc6b146102b85780634ade354c146102d6578063516724361461030657610173565b806306fdde0314610178578063095ea7b31461019657806318160ddd146101c657806323b872dd146101e4578063313ce5671461021457806336012d4414610232575b600080fd5b610180610536565b60405161018d9190611b03565b60405180910390f35b6101b060048036038101906101ab9190611bcd565b6105d1565b6040516101bd9190611c28565b60405180910390f35b6101ce6105e8565b6040516101db9190611c52565b60405180910390f35b6101fe60048036038101906101f99190611c6d565b6105fb565b60405161020b9190611c28565b60405180910390f35b61021c610623565b6040516102299190611cdc565b60405180910390f35b61023a610643565b6040516102479190611c52565b60405180910390f35b61026a60048036038101906102659190611bcd565b610656565b6040516102779190611c28565b60405180910390f35b61029a60048036038101906102959190611bcd565b6106fd565b005b6102b660048036038101906102b19190611cf7565b6108b5565b005b6102c06108c2565b6040516102cd9190611c52565b60405180910390f35b6102f060048036038101906102eb9190611d24565b6108d5565b6040516102fd9190611c52565b60405180910390f35b61030e610927565b60405161031b9190611c52565b60405180910390f35b61033e60048036038101906103399190611d24565b61093a565b60405161034b9190611c52565b60405180910390f35b61035c61098c565b6040516103699190611c52565b60405180910390f35b61038c60048036038101906103879190611cf7565b6109a2565b6040516103999190611c52565b60405180910390f35b6103bc60048036038101906103b79190611bcd565b6109df565b005b6103c66109f8565b6040516103d39190611e0f565b60405180910390f35b6103e4610a8f565b6040516103f19190611b03565b60405180910390f35b610414600480360381019061040f9190611bcd565b610b2a565b6040516104219190611c28565b60405180910390f35b610444600480360381019061043f9190611bcd565b610c19565b6040516104519190611c28565b60405180910390f35b610474600480360381019061046f9190611d24565b610c35565b6040516104819190611c28565b60405180910390f35b6104a4600480360381019061049f9190611d24565b610cf2565b6040516104b19190611c52565b60405180910390f35b6104d460048036038101906104cf9190611e31565b610d44565b6040516104e19190611c52565b60405180910390f35b61050460048036038101906104ff9190611d24565b610dd4565b6040516105119190611c52565b60405180910390f35b610534600480360381019061052f9190611fa6565b610eb1565b005b6060610540610f3c565b600301805461054e90612074565b80601f016020809104026020016040519081016040528092919081815260200182805461057a90612074565b80156105c75780601f1061059c576101008083540402835291602001916105c7565b820191906000526020600020905b8154815290600101906020018083116105aa57829003601f168201915b5050505050905090565b60006105de338484610f69565b6001905092915050565b60006105f2610f3c565b60020154905090565b60008033905061060c85828561113b565b610617858585611243565b60019150509392505050565b600061062d610f3c565b60050160009054906101000a900460ff16905090565b600061064d61171a565b60010154905090565b60006106f3338484610666610f3c565b60010160003373ffffffffffffffffffffffffffffffffffffffff1673ffffffffffffffffffffffffffffffffffffffff16815260200190815260200160002060008873ffffffffffffffffffffffffffffffffffffffff1673ffffffffffffffffffffffffffffffffffffffff168152602001908152602001600020546106ee91906120d4565b610f69565b6001905092915050565b6107078282611747565b600061071161171a565b905060008160030160008573ffffffffffffffffffffffffffffffffffffffff1673ffffffffffffffffffffffffffffffffffffffff16815260200190815260200160002054036107c25780600501839080600181540180825580915050600190039060005260206000200160009091909190916101000a81548173ffffffffffffffffffffffffffffffffffffffff021916908373ffffffffffffffffffffffffffffffffffffffff1602179055505b428160030160008573ffffffffffffffffffffffffffffffffffffffff1673ffffffffffffffffffffffffffffffffffffffff16815260200190815260200160002081905550818160040160008573ffffffffffffffffffffffffffffffffffffffff1673ffffffffffffffffffffffffffffffffffffffff168152602001908152602001600020600082825461085991906120d4565b925050819055508273ffffffffffffffffffffffffffffffffffffffff167fc7f101cd893547ed94b213df84d6f6c162b79d94f012e0939358b1e2aabbb0f183426040516108a8929190612108565b60405180910390a2505050565b6108bf33826118a0565b50565b60006108cc61171a565b60020154905090565b60006108df61171a565b60040160008373ffffffffffffffffffffffffffffffffffffffff1673ffffffffffffffffffffffffffffffffffffffff168152602001908152602001600020549050919050565b600061093161171a565b60000154905090565b6000610944610f3c565b60000160008373ffffffffffffffffffffffffffffffffffffffff1673ffffffffffffffffffffffffffffffffffffffff168152602001908152602001600020549050919050565b600061099661171a565b60050180549050905090565b6000806109ad61171a565b90506127108160020154846109c29190612131565b6109cc91906121a2565b836109d791906120d4565b915050919050565b6109ea82338361113b565b6109f482826118a0565b5050565b6060610a0261171a565b600501805480602002602001604051908101604052809291908181526020018280548015610a8557602002820191906000526020600020905b8160009054906101000a900473ffffffffffffffffffffffffffffffffffffffff1673ffffffffffffffffffffffffffffffffffffffff1681526020019060010190808311610a3b575b5050505050905090565b6060610a99610f3c565b6004018054610aa790612074565b80601f0160208091040260200160405190810160405280929190818152602001828054610ad390612074565b8015610b205780601f10610af557610100808354040283529160200191610b20565b820191906000526020600020905b815481529060010190602001808311610b0357829003601f168201915b5050505050905090565b600080610b35610f3c565b60010160003373ffffffffffffffffffffffffffffffffffffffff1673ffffffffffffffffffffffffffffffffffffffff16815260200190815260200160002060008573ffffffffffffffffffffffffffffffffffffffff1673ffffffffffffffffffffffffffffffffffffffff16815260200190815260200160002054905082811015610bf8576040517f08c379a0000000000000000000000000000000000000000000000000000000008152600401610bef90612245565b60405180910390fd5b610c0e33858584610c099190612265565b610f69565b600191505092915050565b600080339050610c2a818585611243565b600191505092915050565b600080610c4061171a565b905060008160030160008573ffffffffffffffffffffffffffffffffffffffff1673ffffffffffffffffffffffffffffffffffffffff1681526020019081526020016000205403610c95576000915050610ced565b80600101548160030160008573ffffffffffffffffffffffffffffffffffffffff1673ffffffffffffffffffffffffffffffffffffffff16815260200190815260200160002054610ce691906120d4565b4210159150505b919050565b6000610cfc61171a565b60030160008373ffffffffffffffffffffffffffffffffffffffff1673ffffffffffffffffffffffffffffffffffffffff168152602001908152602001600020549050919050565b6000610d4e610f3c565b60010160008473ffffffffffffffffffffffffffffffffffffffff1673ffffffffffffffffffffffffffffffffffffffff16815260200190815260200160002060008373ffffffffffffffffffffffffffffffffffffffff1673ffffffffffffffffffffffffffffffffffffffff16815260200190815260200160002054905092915050565b600080610ddf61171a565b905060008160030160008573ffffffffffffffffffffffffffffffffffffffff1673ffffffffffffffffffffffffffffffffffffffff1681526020019081526020016000205403610e34576000915050610eac565b600081600101548260030160008673ffffffffffffffffffffffffffffffffffffffff1673ffffffffffffffffffffffffffffffffffffffff16815260200190815260200160002054610e8791906120d4565b9050804210610e9b57600092505050610eac565b4281610ea79190612265565b925050505b919050565b6000610ebb610f3c565b90506000610ec761171a565b905085826003019081610eda9190612445565b5084826004019081610eec9190612445565b5060128260050160006101000a81548160ff021916908360ff1602179055504281600001819055506201518084610f239190612131565b8160010181905550828160020181905550505050505050565b6000807f7c21b06dedb0dece42c47c830fa7af8ddf8a802a7bd365f5f71b09ae49ff71fc90508091505090565b600073ffffffffffffffffffffffffffffffffffffffff168373ffffffffffffffffffffffffffffffffffffffff1603610fd8576040517f08c379a0000000000000000000000000000000000000000000000000000000008152600401610fcf90612589565b60405180910390fd5b600073ffffffffffffffffffffffffffffffffffffffff168273ffffffffffffffffffffffffffffffffffffffff1603611047576040517f08c379a000000000000000000000000000000000000000000000000000000000815260040161103e9061261b565b60405180910390fd5b80611050610f3c565b60010160008573ffffffffffffffffffffffffffffffffffffffff1673ffffffffffffffffffffffffffffffffffffffff16815260200190815260200160002060008473ffffffffffffffffffffffffffffffffffffffff1673ffffffffffffffffffffffffffffffffffffffff168152602001908152602001600020819055508173ffffffffffffffffffffffffffffffffffffffff168373ffffffffffffffffffffffffffffffffffffffff167f8c5be1e5ebec7d5bd14f71427d1e84f3dd0314c0f7b2291e5b200ac8c7c3b9258360405161112e9190611c52565b60405180910390a3505050565b6000611145610f3c565b60010160008573ffffffffffffffffffffffffffffffffffffffff1673ffffffffffffffffffffffffffffffffffffffff16815260200190815260200160002060008473ffffffffffffffffffffffffffffffffffffffff1673ffffffffffffffffffffffffffffffffffffffff1681526020019081526020016000205490507fffffffffffffffffffffffffffffffffffffffffffffffffffffffffffffffff811461123d578181101561122f576040517f08c379a000000000000000000000000000000000000000000000000000000000815260040161122690612687565b60405180910390fd5b61123c8484848403610f69565b5b50505050565b600073ffffffffffffffffffffffffffffffffffffffff168373ffffffffffffffffffffffffffffffffffffffff16036112b2576040517f08c379a00000000000000000000000000000000000000000000000000000000081526004016112a990612719565b60405180910390fd5b600073ffffffffffffffffffffffffffffffffffffffff168273ffffffffffffffffffffffffffffffffffffffff1603611321576040517f08c379a0000000000000000000000000000000000000000000000000000000008152600401611318906127ab565b60405180910390fd5b600061132b610f3c565b905060008160000160008673ffffffffffffffffffffffffffffffffffffffff1673ffffffffffffffffffffffffffffffffffffffff168152602001908152602001600020549050828110156113b6576040517f08c379a00000000000000000000000000000000000000000000000000000000081526004016113ad9061283d565b60405180910390fd5b8281038260000160008773ffffffffffffffffffffffffffffffffffffffff1673ffffffffffffffffffffffffffffffffffffffff16815260200190815260200160002081905550828260000160008673ffffffffffffffffffffffffffffffffffffffff1673ffffffffffffffffffffffffffffffffffffffff168152602001908152602001600020600082825461144f91906120d4565b925050819055508373ffffffffffffffffffffffffffffffffffffffff168573ffffffffffffffffffffffffffffffffffffffff167fddf252ad1be2c89b69c2b068fc378daa952ba7f163c4a11628f55a4df523b3ef856040516114b39190611c52565b60405180910390a360006114c561171a565b9050838160040160008873ffffffffffffffffffffffffffffffffffffffff1673ffffffffffffffffffffffffffffffffffffffff16815260200190815260200160002060008282546115189190612265565b9250508190555060008160030160008773ffffffffffffffffffffffffffffffffffffffff1673ffffffffffffffffffffffffffffffffffffffff16815260200190815260200160002054036116555780600501859080600181540180825580915050600190039060005260206000200160009091909190916101000a81548173ffffffffffffffffffffffffffffffffffffffff021916908373ffffffffffffffffffffffffffffffffffffffff1602179055508060030160008773ffffffffffffffffffffffffffffffffffffffff1673ffffffffffffffffffffffffffffffffffffffff168152602001908152602001600020548160030160008773ffffffffffffffffffffffffffffffffffffffff1673ffffffffffffffffffffffffffffffffffffffff168152602001908152602001600020819055505b838160040160008773ffffffffffffffffffffffffffffffffffffffff1673ffffffffffffffffffffffffffffffffffffffff16815260200190815260200160002060008282546116a691906120d4565b925050819055508473ffffffffffffffffffffffffffffffffffffffff168673ffffffffffffffffffffffffffffffffffffffff167fe60b32f14bbe2e7b97323c9de840291556af43fc8ed39e50c3c13879dbf74ff28660405161170a9190611c52565b60405180910390a3505050505050565b6000807f06ff347ea391021ffa0ef76acf1de710d8173fca5ebab397859b3c6e314f2a1390508091505090565b600073ffffffffffffffffffffffffffffffffffffffff168273ffffffffffffffffffffffffffffffffffffffff16036117b6576040517f08c379a00000000000000000000000000000000000000000000000000000000081526004016117ad906128a9565b60405180910390fd5b60006117c0610f3c565b9050818160020160008282546117d691906120d4565b92505081905550818160000160008573ffffffffffffffffffffffffffffffffffffffff1673ffffffffffffffffffffffffffffffffffffffff168152602001908152602001600020600082825461182e91906120d4565b925050819055508273ffffffffffffffffffffffffffffffffffffffff16600073ffffffffffffffffffffffffffffffffffffffff167fddf252ad1be2c89b69c2b068fc378daa952ba7f163c4a11628f55a4df523b3ef846040516118939190611c52565b60405180910390a3505050565b600073ffffffffffffffffffffffffffffffffffffffff168273ffffffffffffffffffffffffffffffffffffffff160361190f576040517f08c379a00000000000000000000000000000000000000000000000000000000081526004016119069061293b565b60405180910390fd5b6000611919610f3c565b905060008160000160008573ffffffffffffffffffffffffffffffffffffffff1673ffffffffffffffffffffffffffffffffffffffff168152602001908152602001600020549050828110156119a4576040517f08c379a000000000000000000000000000000000000000000000000000000000815260040161199b906129cd565b60405180910390fd5b8281038260000160008673ffffffffffffffffffffffffffffffffffffffff1673ffffffffffffffffffffffffffffffffffffffff1681526020019081526020016000208190555082826002016000828254611a009190612265565b92505081905550600073ffffffffffffffffffffffffffffffffffffffff168473ffffffffffffffffffffffffffffffffffffffff167fddf252ad1be2c89b69c2b068fc378daa952ba7f163c4a11628f55a4df523b3ef85604051611a659190611c52565b60405180910390a350505050565b600081519050919050565b600082825260208201905092915050565b60005b83811015611aad578082015181840152602081019050611a92565b60008484015250505050565b6000601f19601f8301169050919050565b6000611ad582611a73565b611adf8185611a7e565b9350611aef818560208601611a8f565b611af881611ab9565b840191505092915050565b60006020820190508181036000830152611b1d8184611aca565b905092915050565b6000604051905090565b600080fd5b600080fd5b600073ffffffffffffffffffffffffffffffffffffffff82169050919050565b6000611b6482611b39565b9050919050565b611b7481611b59565b8114611b7f57600080fd5b50565b600081359050611b9181611b6b565b92915050565b6000819050919050565b611baa81611b97565b8114611bb557600080fd5b50565b600081359050611bc781611ba1565b92915050565b60008060408385031215611be457611be3611b2f565b5b6000611bf285828601611b82565b9250506020611c0385828601611bb8565b9150509250929050565b60008115159050919050565b611c2281611c0d565b82525050565b6000602082019050611c3d6000830184611c19565b92915050565b611c4c81611b97565b82525050565b6000602082019050611c676000830184611c43565b92915050565b600080600060608486031215611c8657611c85611b2f565b5b6000611c9486828701611b82565b9350506020611ca586828701611b82565b9250506040611cb686828701611bb8565b9150509250925092565b600060ff82169050919050565b611cd681611cc0565b82525050565b6000602082019050611cf16000830184611ccd565b92915050565b600060208284031215611d0d57611d0c611b2f565b5b6000611d1b84828501611bb8565b91505092915050565b600060208284031215611d3a57611d39611b2f565b5b6000611d4884828501611b82565b91505092915050565b600081519050919050565b600082825260208201905092915050565b6000819050602082019050919050565b611d8681611b59565b82525050565b6000611d988383611d7d565b60208301905092915050565b6000602082019050919050565b6000611dbc82611d51565b611dc68185611d5c565b9350611dd183611d6d565b8060005b83811015611e02578151611de98882611d8c565b9750611df483611da4565b925050600181019050611dd5565b5085935050505092915050565b60006020820190508181036000830152611e298184611db1565b905092915050565b60008060408385031215611e4857611e47611b2f565b5b6000611e5685828601611b82565b9250506020611e6785828601611b82565b9150509250929050565b600080fd5b600080fd5b7f4e487b7100000000000000000000000000000000000000000000000000000000600052604160045260246000fd5b611eb382611ab9565b810181811067ffffffffffffffff82111715611ed257611ed1611e7b565b5b80604052505050565b6000611ee5611b25565b9050611ef18282611eaa565b919050565b600067ffffffffffffffff821115611f1157611f10611e7b565b5b611f1a82611ab9565b9050602081019050919050565b82818337600083830152505050565b6000611f49611f4484611ef6565b611edb565b905082815260208101848484011115611f6557611f64611e76565b5b611f70848285611f27565b509392505050565b600082601f830112611f8d57611f8c611e71565b5b8135611f9d848260208601611f36565b91505092915050565b60008060008060808587031215611fc057611fbf611b2f565b5b600085013567ffffffffffffffff811115611fde57611fdd611b34565b5b611fea87828801611f78565b945050602085013567ffffffffffffffff81111561200b5761200a611b34565b5b61201787828801611f78565b935050604061202887828801611bb8565b925050606061203987828801611bb8565b91505092959194509250565b7f4e487b7100000000000000000000000000000000000000000000000000000000600052602260045260246000fd5b6000600282049050600182168061208c57607f821691505b60208210810361209f5761209e612045565b5b50919050565b7f4e487b7100000000000000000000000000000000000000000000000000000000600052601160045260246000fd5b60006120df82611b97565b91506120ea83611b97565b9250828201905080821115612102576121016120a5565b5b92915050565b600060408201905061211d6000830185611c43565b61212a6020830184611c43565b9392505050565b600061213c82611b97565b915061214783611b97565b925082820261215581611b97565b9150828204841483151761216c5761216b6120a5565b5b5092915050565b7f4e487b7100000000000000000000000000000000000000000000000000000000600052601260045260246000fd5b60006121ad82611b97565b91506121b883611b97565b9250826121c8576121c7612173565b5b828204905092915050565b7f45524332303a2064656372656173656420616c6c6f77616e63652062656c6f7760008201527f207a65726f000000000000000000000000000000000000000000000000000000602082015250565b600061222f602583611a7e565b915061223a826121d3565b604082019050919050565b6000602082019050818103600083015261225e81612222565b9050919050565b600061227082611b97565b915061227b83611b97565b9250828203905081811115612293576122926120a5565b5b92915050565b60008190508160005260206000209050919050565b60006020601f8301049050919050565b600082821b905092915050565b6000600883026122fb7fffffffffffffffffffffffffffffffffffffffffffffffffffffffffffffffff826122be565b61230586836122be565b95508019841693508086168417925050509392505050565b6000819050919050565b600061234261233d61233884611b97565b61231d565b611b97565b9050919050565b6000819050919050565b61235c83612327565b61237061236882612349565b8484546122cb565b825550505050565b600090565b612385612378565b612390818484612353565b505050565b5b818110156123b4576123a960008261237d565b600181019050612396565b5050565b601f8211156123f9576123ca81612299565b6123d3846122ae565b810160208510156123e2578190505b6123f66123ee856122ae565b830182612395565b50505b505050565b600082821c905092915050565b600061241c600019846008026123fe565b1980831691505092915050565b6000612435838361240b565b9150826002028217905092915050565b61244e82611a73565b67ffffffffffffffff81111561246757612466611e7b565b5b6124718254612074565b61247c8282856123b8565b600060209050601f8311600181146124af576000841561249d578287015190505b6124a78582612429565b86555061250f565b601f1984166124bd86612299565b60005b828110156124e5578489015182556001820191506020850194506020810190506124c0565b8683101561250257848901516124fe601f89168261240b565b8355505b6001600288020188555050505b505050505050565b7f45524332303a20617070726f76652066726f6d20746865207a65726f2061646460008201527f7265737300000000000000000000000000000000000000000000000000000000602082015250565b6000612573602483611a7e565b915061257e82612517565b604082019050919050565b600060208201905081810360008301526125a281612566565b9050919050565b7f45524332303a20617070726f766520746f20746865207a65726f20616464726560008201527f7373000000000000000000000000000000000000000000000000000000000000602082015250565b6000612605602283611a7e565b9150612610826125a9565b604082019050919050565b60006020820190508181036000830152612634816125f8565b9050919050565b7f45524332303a20696e73756666696369656e7420616c6c6f77616e6365000000600082015250565b6000612671601d83611a7e565b915061267c8261263b565b602082019050919050565b600060208201905081810360008301526126a081612664565b9050919050565b7f45524332303a207472616e736665722066726f6d20746865207a65726f20616460008201527f6472657373000000000000000000000000000000000000000000000000000000602082015250565b6000612703602583611a7e565b915061270e826126a7565b604082019050919050565b60006020820190508181036000830152612732816126f6565b9050919050565b7f45524332303a207472616e7366657220746f20746865207a65726f206164647260008201527f6573730000000000000000000000000000000000000000000000000000000000602082015250565b6000612795602383611a7e565b91506127a082612739565b604082019050919050565b600060208201905081810360008301526127c481612788565b9050919050565b7f45524332303a207472616e7366657220616d6f756e742065786365656473206260008201527f616c616e63650000000000000000000000000000000000000000000000000000602082015250565b6000612827602683611a7e565b9150612832826127cb565b604082019050919050565b600060208201905081810360008301526128568161281a565b9050919050565b7f45524332303a206d696e7420746f20746865207a65726f206164647265737300600082015250565b6000612893601f83611a7e565b915061289e8261285d565b602082019050919050565b600060208201905081810360008301526128c281612886565b9050919050565b7f45524332303a206275726e2066726f6d20746865207a65726f2061646472657360008201527f7300000000000000000000000000000000000000000000000000000000000000602082015250565b6000612925602183611a7e565b9150612930826128c9565b604082019050919050565b6000602082019050818103600083015261295481612918565b9050919050565b7f45524332303a206275726e20616d6f756e7420657863656564732062616c616e60008201527f6365000000000000000000000000000000000000000000000000000000000000602082015250565b60006129b7602283611a7e565b91506129c28261295b565b604082019050919050565b600060208201905081810360008301526129e6816129aa565b905091905056fea264697066735822122075588aa9a50d14a2f3417fcae612e138510062602f3e4eff23b784bb9181ad5e64736f6c63430008110033",
  "linkReferences": {},
  "deployedLinkReferences": {}
}