{
  "_format": "hh-sol-artifact-1",
  "contractName": "EquityTokenFacet",
  "sourceName": "src/backend/contracts/EquityTokenFacet.sol",
  "abi": [
    {
      "anonymous": false,
      "inputs": [
        {
          "indexed": true,
          "internalType": "address",
          "name": "owner",
          "type": "address"
        },
        {
          "indexed": true,
          "internalType": "address",
          "name": "spender",
          "type": "address"
        },
        {
          "indexed": false,
          "internalType": "uint256",
          "name": "value",
          "type": "uint256"
        }
      ],
      "name": "Approval",
      "type": "event"
    },
    {
      "anonymous": false,
      "inputs": [
        {
          "indexed": true,
          "internalType": "address",
          "name": "from",
          "type": "address"
        },
        {
          "indexed": true,
          "internalType": "address",
          "name": "to",
          "type": "address"
        },
        {
          "indexed": false,
          "internalType": "uint256",
          "name": "value",
          "type": "uint256"
        }
      ],
      "name": "Transfer",
      "type": "event"
    },
    {
      "inputs": [
        {
          "internalType": "address",
          "name": "owner",
          "type": "address"
        },
        {
          "internalType": "address",
          "name": "spender",
          "type": "address"
        }
      ],
      "name": "allowance",
      "outputs": [
        {
          "internalType": "uint256",
          "name": "",
          "type": "uint256"
        }
      ],
      "stateMutability": "view",
      "type": "function"
    },
    {
      "inputs": [
        {
          "internalType": "address",
          "name": "spender",
          "type": "address"
        },
        {
          "internalType": "uint256",
          "name": "amount",
          "type": "uint256"
        }
      ],
      "name": "approve",
      "outputs": [
        {
          "internalType": "bool",
          "name": "",
          "type": "bool"
        }
      ],
      "stateMutability": "nonpayable",
      "type": "function"
    },
    {
      "inputs": [
        {
          "internalType": "address",
          "name": "account",
          "type": "address"
        }
      ],
      "name": "balanceOf",
      "outputs": [
        {
          "internalType": "uint256",
          "name": "",
          "type": "uint256"
        }
      ],
      "stateMutability": "view",
      "type": "function"
    },
    {
      "inputs": [],
      "name": "decimals",
      "outputs": [
        {
          "internalType": "uint8",
          "name": "",
          "type": "uint8"
        }
      ],
      "stateMutability": "view",
      "type": "function"
    },
    {
      "inputs": [
        {
          "internalType": "address",
          "name": "spender",
          "type": "address"
        },
        {
          "internalType": "uint256",
          "name": "subtractedValue",
          "type": "uint256"
        }
      ],
      "name": "decreaseAllowance",
      "outputs": [
        {
          "internalType": "bool",
          "name": "",
          "type": "bool"
        }
      ],
      "stateMutability": "nonpayable",
      "type": "function"
    },
    {
      "inputs": [
        {
          "internalType": "address",
          "name": "spender",
          "type": "address"
        },
        {
          "internalType": "uint256",
          "name": "addedValue",
          "type": "uint256"
        }
      ],
      "name": "increaseAllowance",
      "outputs": [
        {
          "internalType": "bool",
          "name": "",
          "type": "bool"
        }
      ],
      "stateMutability": "nonpayable",
      "type": "function"
    },
    {
      "inputs": [
        {
          "internalType": "string",
          "name": "name",
          "type": "string"
        },
        {
          "internalType": "string",
          "name": "symbol",
          "type": "string"
        },
        {
          "internalType": "uint256",
          "name": "_totalAuthorizedShares",
          "type": "uint256"
        }
      ],
      "name": "initializeEquityToken",
      "outputs": [],
      "stateMutability": "nonpayable",
      "type": "function"
    },
    {
      "inputs": [
        {
          "internalType": "address",
          "name": "to",
          "type": "address"
        },
        {
          "internalType": "uint256",
          "name": "amount",
          "type": "uint256"
        }
      ],
      "name": "mint",
      "outputs": [],
      "stateMutability": "nonpayable",
      "type": "function"
    },
    {
      "inputs": [],
      "name": "name",
      "outputs": [
        {
          "internalType": "string",
          "name": "",
          "type": "string"
        }
      ],
      "stateMutability": "view",
      "type": "function"
    },
    {
      "inputs": [],
      "name": "symbol",
      "outputs": [
        {
          "internalType": "string",
          "name": "",
          "type": "string"
        }
      ],
      "stateMutability": "view",
      "type": "function"
    },
    {
      "inputs": [],
      "name": "totalAuthorizedShares",
      "outputs": [
        {
          "internalType": "uint256",
          "name": "",
          "type": "uint256"
        }
      ],
      "stateMutability": "view",
      "type": "function"
    },
    {
      "inputs": [],
      "name": "totalSupply",
      "outputs": [
        {
          "internalType": "uint256",
          "name": "",
          "type": "uint256"
        }
      ],
      "stateMutability": "view",
      "type": "function"
    },
    {
      "inputs": [
        {
          "internalType": "address",
          "name": "to",
          "type": "address"
        },
        {
          "internalType": "uint256",
          "name": "amount",
          "type": "uint256"
        }
      ],
      "name": "transfer",
      "outputs": [
        {
          "internalType": "bool",
          "name": "",
          "type": "bool"
        }
      ],
      "stateMutability": "nonpayable",
      "type": "function"
    },
    {
      "inputs": [
        {
          "internalType": "address",
          "name": "from",
          "type": "address"
        },
        {
          "internalType": "address",
          "name": "to",
          "type": "address"
        },
        {
          "internalType": "uint256",
          "name": "amount",
          "type": "uint256"
        }
      ],
      "name": "transferFrom",
      "outputs": [
        {
          "internalType": "bool",
          "name": "",
          "type": "bool"
        }
      ],
      "stateMutability": "nonpayable",
      "type": "function"
    }
  ],
  "bytecode": "0x608060405234801561001057600080fd5b50611c5c806100206000396000f3fe608060405234801561001057600080fd5b50600436106100ea5760003560e01c806370a082311161008c578063a457c2d711610066578063a457c2d714610261578063a9059cbb14610291578063c29f3832146102c1578063dd62ed3e146102dd576100ea565b806370a08231146101f557806395d89b411461022557806396bc813114610243576100ea565b806323b872dd116100c857806323b872dd1461015b578063313ce5671461018b57806339509351146101a957806340c10f19146101d9576100ea565b806306fdde03146100ef578063095ea7b31461010d57806318160ddd1461013d575b600080fd5b6100f761030d565b6040516101049190610fe0565b60405180910390f35b610127600480360381019061012291906110aa565b6103a8565b6040516101349190611105565b60405180910390f35b6101456103bf565b604051610152919061112f565b60405180910390f35b6101756004803603810190610170919061114a565b6103d2565b6040516101829190611105565b60405180910390f35b6101936103fa565b6040516101a091906111b9565b60405180910390f35b6101c360048036038101906101be91906110aa565b61041a565b6040516101d09190611105565b60405180910390f35b6101f360048036038101906101ee91906110aa565b6104c1565b005b61020f600480360381019061020a91906111d4565b61053f565b60405161021c919061112f565b60405180910390f35b61022d610591565b60405161023a9190610fe0565b60405180910390f35b61024b61062c565b604051610258919061112f565b60405180910390f35b61027b600480360381019061027691906110aa565b61063f565b6040516102889190611105565b60405180910390f35b6102ab60048036038101906102a691906110aa565b61072e565b6040516102b89190611105565b60405180910390f35b6102db60048036038101906102d69190611336565b61074a565b005b6102f760048036038101906102f291906113c1565b6107b4565b604051610304919061112f565b60405180910390f35b6060610317610844565b600301805461032590611430565b80601f016020809104026020016040519081016040528092919081815260200182805461035190611430565b801561039e5780601f106103735761010080835404028352916020019161039e565b820191906000526020600020905b81548152906001019060200180831161038157829003601f168201915b5050505050905090565b60006103b5338484610871565b6001905092915050565b60006103c9610844565b60020154905090565b6000803390506103e3858285610a43565b6103ee858585610b4b565b60019150509392505050565b6000610404610844565b60050160009054906101000a900460ff16905090565b60006104b733848461042a610844565b60010160003373ffffffffffffffffffffffffffffffffffffffff1673ffffffffffffffffffffffffffffffffffffffff16815260200190815260200160002060008873ffffffffffffffffffffffffffffffffffffffff1673ffffffffffffffffffffffffffffffffffffffff168152602001908152602001600020546104b29190611490565b610871565b6001905092915050565b60006104cb610844565b905060006104d7610dca565b905080600001548383600201546104ee9190611490565b111561052f576040517f08c379a000000000000000000000000000000000000000000000000000000000815260040161052690611510565b60405180910390fd5b6105398484610df7565b50505050565b6000610549610844565b60000160008373ffffffffffffffffffffffffffffffffffffffff1673ffffffffffffffffffffffffffffffffffffffff168152602001908152602001600020549050919050565b606061059b610844565b60040180546105a990611430565b80601f01602080910402602001604051908101604052809291908181526020018280546105d590611430565b80156106225780601f106105f757610100808354040283529160200191610622565b820191906000526020600020905b81548152906001019060200180831161060557829003601f168201915b5050505050905090565b6000610636610dca565b60000154905090565b60008061064a610844565b60010160003373ffffffffffffffffffffffffffffffffffffffff1673ffffffffffffffffffffffffffffffffffffffff16815260200190815260200160002060008573ffffffffffffffffffffffffffffffffffffffff1673ffffffffffffffffffffffffffffffffffffffff1681526020019081526020016000205490508281101561070d576040517f08c379a0000000000000000000000000000000000000000000000000000000008152600401610704906115a2565b60405180910390fd5b6107233385858461071e91906115c2565b610871565b600191505092915050565b60008033905061073f818585610b4b565b600191505092915050565b6000610754610844565b90506000610760610dca565b90508482600301908161077391906117a2565b508382600401908161078591906117a2565b5060128260050160006101000a81548160ff021916908360ff1602179055508281600001819055505050505050565b60006107be610844565b60010160008473ffffffffffffffffffffffffffffffffffffffff1673ffffffffffffffffffffffffffffffffffffffff16815260200190815260200160002060008373ffffffffffffffffffffffffffffffffffffffff1673ffffffffffffffffffffffffffffffffffffffff16815260200190815260200160002054905092915050565b6000807fc858b894693175a4a79322ef8d300c0e7663687a0dccfc3a1b4a12c3d3897c9090508091505090565b600073ffffffffffffffffffffffffffffffffffffffff168373ffffffffffffffffffffffffffffffffffffffff16036108e0576040517f08c379a00000000000000000000000000000000000000000000000000000000081526004016108d7906118e6565b60405180910390fd5b600073ffffffffffffffffffffffffffffffffffffffff168273ffffffffffffffffffffffffffffffffffffffff160361094f576040517f08c379a000000000000000000000000000000000000000000000000000000000815260040161094690611978565b60405180910390fd5b80610958610844565b60010160008573ffffffffffffffffffffffffffffffffffffffff1673ffffffffffffffffffffffffffffffffffffffff16815260200190815260200160002060008473ffffffffffffffffffffffffffffffffffffffff1673ffffffffffffffffffffffffffffffffffffffff168152602001908152602001600020819055508173ffffffffffffffffffffffffffffffffffffffff168373ffffffffffffffffffffffffffffffffffffffff167f8c5be1e5ebec7d5bd14f71427d1e84f3dd0314c0f7b2291e5b200ac8c7c3b92583604051610a36919061112f565b60405180910390a3505050565b6000610a4d610844565b60010160008573ffffffffffffffffffffffffffffffffffffffff1673ffffffffffffffffffffffffffffffffffffffff16815260200190815260200160002060008473ffffffffffffffffffffffffffffffffffffffff1673ffffffffffffffffffffffffffffffffffffffff1681526020019081526020016000205490507fffffffffffffffffffffffffffffffffffffffffffffffffffffffffffffffff8114610b455781811015610b37576040517f08c379a0000000000000000000000000000000000000000000000000000000008152600401610b2e906119e4565b60405180910390fd5b610b448484848403610871565b5b50505050565b600073ffffffffffffffffffffffffffffffffffffffff168373ffffffffffffffffffffffffffffffffffffffff1603610bba576040517f08c379a0000000000000000000000000000000000000000000000000000000008152600401610bb190611a76565b60405180910390fd5b600073ffffffffffffffffffffffffffffffffffffffff168273ffffffffffffffffffffffffffffffffffffffff1603610c29576040517f08c379a0000000000000000000000000000000000000000000000000000000008152600401610c2090611b08565b60405180910390fd5b6000610c33610844565b905060008160000160008673ffffffffffffffffffffffffffffffffffffffff1673ffffffffffffffffffffffffffffffffffffffff16815260200190815260200160002054905082811015610cbe576040517f08c379a0000000000000000000000000000000000000000000000000000000008152600401610cb590611b9a565b60405180910390fd5b8281038260000160008773ffffffffffffffffffffffffffffffffffffffff1673ffffffffffffffffffffffffffffffffffffffff16815260200190815260200160002081905550828260000160008673ffffffffffffffffffffffffffffffffffffffff1673ffffffffffffffffffffffffffffffffffffffff1681526020019081526020016000206000828254610d579190611490565b925050819055508373ffffffffffffffffffffffffffffffffffffffff168573ffffffffffffffffffffffffffffffffffffffff167fddf252ad1be2c89b69c2b068fc378daa952ba7f163c4a11628f55a4df523b3ef85604051610dbb919061112f565b60405180910390a35050505050565b6000807fff91107e6b650a3ecf0200a7eea0db9cdcd6598bd72cc0d446902f2bbec2406390508091505090565b600073ffffffffffffffffffffffffffffffffffffffff168273ffffffffffffffffffffffffffffffffffffffff1603610e66576040517f08c379a0000000000000000000000000000000000000000000000000000000008152600401610e5d90611c06565b60405180910390fd5b6000610e70610844565b905081816002016000828254610e869190611490565b92505081905550818160000160008573ffffffffffffffffffffffffffffffffffffffff1673ffffffffffffffffffffffffffffffffffffffff1681526020019081526020016000206000828254610ede9190611490565b925050819055508273ffffffffffffffffffffffffffffffffffffffff16600073ffffffffffffffffffffffffffffffffffffffff167fddf252ad1be2c89b69c2b068fc378daa952ba7f163c4a11628f55a4df523b3ef84604051610f43919061112f565b60405180910390a3505050565b600081519050919050565b600082825260208201905092915050565b60005b83811015610f8a578082015181840152602081019050610f6f565b60008484015250505050565b6000601f19601f8301169050919050565b6000610fb282610f50565b610fbc8185610f5b565b9350610fcc818560208601610f6c565b610fd581610f96565b840191505092915050565b60006020820190508181036000830152610ffa8184610fa7565b905092915050565b6000604051905090565b600080fd5b600080fd5b600073ffffffffffffffffffffffffffffffffffffffff82169050919050565b600061104182611016565b9050919050565b61105181611036565b811461105c57600080fd5b50565b60008135905061106e81611048565b92915050565b6000819050919050565b61108781611074565b811461109257600080fd5b50565b6000813590506110a48161107e565b92915050565b600080604083850312156110c1576110c061100c565b5b60006110cf8582860161105f565b92505060206110e085828601611095565b9150509250929050565b60008115159050919050565b6110ff816110ea565b82525050565b600060208201905061111a60008301846110f6565b92915050565b61112981611074565b82525050565b60006020820190506111446000830184611120565b92915050565b6000806000606084860312156111635761116261100c565b5b60006111718682870161105f565b93505060206111828682870161105f565b925050604061119386828701611095565b9150509250925092565b600060ff82169050919050565b6111b38161119d565b82525050565b60006020820190506111ce60008301846111aa565b92915050565b6000602082840312156111ea576111e961100c565b5b60006111f88482850161105f565b91505092915050565b600080fd5b600080fd5b7f4e487b7100000000000000000000000000000000000000000000000000000000600052604160045260246000fd5b61124382610f96565b810181811067ffffffffffffffff821117156112625761126161120b565b5b80604052505050565b6000611275611002565b9050611281828261123a565b919050565b600067ffffffffffffffff8211156112a1576112a061120b565b5b6112aa82610f96565b9050602081019050919050565b82818337600083830152505050565b60006112d96112d484611286565b61126b565b9050828152602081018484840111156112f5576112f4611206565b5b6113008482856112b7565b509392505050565b600082601f83011261131d5761131c611201565b5b813561132d8482602086016112c6565b91505092915050565b60008060006060848603121561134f5761134e61100c565b5b600084013567ffffffffffffffff81111561136d5761136c611011565b5b61137986828701611308565b935050602084013567ffffffffffffffff81111561139a57611399611011565b5b6113a686828701611308565b92505060406113b786828701611095565b9150509250925092565b600080604083850312156113d8576113d761100c565b5b60006113e68582860161105f565b92505060206113f78582860161105f565b9150509250929050565b7f4e487b7100000000000000000000000000000000000000000000000000000000600052602260045260246000fd5b6000600282049050600182168061144857607f821691505b60208210810361145b5761145a611401565b5b50919050565b7f4e487b7100000000000000000000000000000000000000000000000000000000600052601160045260246000fd5b600061149b82611074565b91506114a683611074565b92508282019050808211156114be576114bd611461565b5b92915050565b7f4578636565647320617574686f72697a65642073686172657300000000000000600082015250565b60006114fa601983610f5b565b9150611505826114c4565b602082019050919050565b60006020820190508181036000830152611529816114ed565b9050919050565b7f45524332303a2064656372656173656420616c6c6f77616e63652062656c6f7760008201527f207a65726f000000000000000000000000000000000000000000000000000000602082015250565b600061158c602583610f5b565b915061159782611530565b604082019050919050565b600060208201905081810360008301526115bb8161157f565b9050919050565b60006115cd82611074565b91506115d883611074565b92508282039050818111156115f0576115ef611461565b5b92915050565b60008190508160005260206000209050919050565b60006020601f8301049050919050565b600082821b905092915050565b6000600883026116587fffffffffffffffffffffffffffffffffffffffffffffffffffffffffffffffff8261161b565b611662868361161b565b95508019841693508086168417925050509392505050565b6000819050919050565b600061169f61169a61169584611074565b61167a565b611074565b9050919050565b6000819050919050565b6116b983611684565b6116cd6116c5826116a6565b848454611628565b825550505050565b600090565b6116e26116d5565b6116ed8184846116b0565b505050565b5b81811015611711576117066000826116da565b6001810190506116f3565b5050565b601f82111561175657611727816115f6565b6117308461160b565b8101602085101561173f578190505b61175361174b8561160b565b8301826116f2565b50505b505050565b600082821c905092915050565b60006117796000198460080261175b565b1980831691505092915050565b60006117928383611768565b9150826002028217905092915050565b6117ab82610f50565b67ffffffffffffffff8111156117c4576117c361120b565b5b6117ce8254611430565b6117d9828285611715565b600060209050601f83116001811461180c57600084156117fa578287015190505b6118048582611786565b86555061186c565b601f19841661181a866115f6565b60005b828110156118425784890151825560018201915060208501945060208101905061181d565b8683101561185f578489015161185b601f891682611768565b8355505b6001600288020188555050505b505050505050565b7f45524332303a20617070726f76652066726f6d20746865207a65726f2061646460008201527f7265737300000000000000000000000000000000000000000000000000000000602082015250565b60006118d0602483610f5b565b91506118db82611874565b604082019050919050565b600060208201905081810360008301526118ff816118c3565b9050919050565b7f45524332303a20617070726f766520746f20746865207a65726f20616464726560008201527f7373000000000000000000000000000000000000000000000000000000000000602082015250565b6000611962602283610f5b565b915061196d82611906565b604082019050919050565b6000602082019050818103600083015261199181611955565b9050919050565b7f45524332303a20696e73756666696369656e7420616c6c6f77616e6365000000600082015250565b60006119ce601d83610f5b565b91506119d982611998565b602082019050919050565b600060208201905081810360008301526119fd816119c1565b9050919050565b7f45524332303a207472616e736665722066726f6d20746865207a65726f20616460008201527f6472657373000000000000000000000000000000000000000000000000000000602082015250565b6000611a60602583610f5b565b9150611a6b82611a04565b604082019050919050565b60006020820190508181036000830152611a8f81611a53565b9050919050565b7f45524332303a207472616e7366657220746f20746865207a65726f206164647260008201527f6573730000000000000000000000000000000000000000000000000000000000602082015250565b6000611af2602383610f5b565b9150611afd82611a96565b604082019050919050565b60006020820190508181036000830152611b2181611ae5565b9050919050565b7f45524332303a207472616e7366657220616d6f756e742065786365656473206260008201527f616c616e63650000000000000000000000000000000000000000000000000000602082015250565b6000611b84602683610f5b565b9150611b8f82611b28565b604082019050919050565b60006020820190508181036000830152611bb381611b77565b9050919050565b7f45524332303a206d696e7420746f20746865207a65726f206164647265737300600082015250565b6000611bf0601f83610f5b565b9150611bfb82611bba565b602082019050919050565b60006020820190508181036000830152611c1f81611be3565b905091905056fea26469706673582212201d6a082e6e89943f3ea7cb43ccea30325f47c29f144579d7b3a1591e2e28157964736f6c63430008110033",
  "linkReferences": {},
  "deployedLinkReferences": {}
}