{
  "_format": "hh-sol-artifact-1",
  "contractName": "TokenSale",
  "sourceName": "src/backend/contracts/TokenSale.sol",
  "abi": [
    {
      "inputs": [
        {
          "internalType": "uint256",
          "name": "_bondMaturityDays",
          "type": "uint256"
        },
        {
          "internalType": "uint256",
          "name": "_bondYieldBasisPoints",
          "type": "uint256"
        },
        {
          "internalType": "uint256",
          "name": "_warrantStrikePrice",
          "type": "uint256"
        },
        {
          "internalType": "address payable",
          "name": "_treasury",
          "type": "address"
        }
      ],
      "stateMutability": "nonpayable",
      "type": "constructor"
    },
    {
      "anonymous": false,
      "inputs": [
        {
          "indexed": true,
          "internalType": "address",
          "name": "buyer",
          "type": "address"
        },
        {
          "indexed": false,
          "internalType": "uint256",
          "name": "amount",
          "type": "uint256"
        },
        {
          "indexed": false,
          "internalType": "uint256",
          "name": "cost",
          "type": "uint256"
        }
      ],
      "name": "BondsPurchased",
      "type": "event"
    },
    {
      "anonymous": false,
      "inputs": [
        {
          "indexed": true,
          "internalType": "address",
          "name": "holder",
          "type": "address"
        },
        {
          "indexed": false,
          "internalType": "uint256",
          "name": "amount",
          "type": "uint256"
        },
        {
          "indexed": false,
          "internalType": "uint256",
          "name": "payout",
          "type": "uint256"
        }
      ],
      "name": "BondsRedeemed",
      "type": "event"
    },
    {
      "anonymous": false,
      "inputs": [
        {
          "indexed": true,
          "internalType": "address",
          "name": "previousOwner",
          "type": "address"
        },
        {
          "indexed": true,
          "internalType": "address",
          "name": "newOwner",
          "type": "address"
        }
      ],
      "name": "OwnershipTransferred",
      "type": "event"
    },
    {
      "anonymous": false,
      "inputs": [
        {
          "indexed": true,
          "internalType": "address",
          "name": "holder",
          "type": "address"
        },
        {
          "indexed": false,
          "internalType": "uint256",
          "name": "amount",
          "type": "uint256"
        },
        {
          "indexed": false,
          "internalType": "uint256",
          "name": "cost",
          "type": "uint256"
        }
      ],
      "name": "WarrantsExercised",
      "type": "event"
    },
    {
      "anonymous": false,
      "inputs": [
        {
          "indexed": true,
          "internalType": "address",
          "name": "buyer",
          "type": "address"
        },
        {
          "indexed": false,
          "internalType": "uint256",
          "name": "amount",
          "type": "uint256"
        },
        {
          "indexed": false,
          "internalType": "uint256",
          "name": "cost",
          "type": "uint256"
        }
      ],
      "name": "WarrantsPurchased",
      "type": "event"
    },
    {
      "inputs": [],
      "name": "activeBondCount",
      "outputs": [
        {
          "internalType": "uint256",
          "name": "",
          "type": "uint256"
        }
      ],
      "stateMutability": "view",
      "type": "function"
    },
    {
      "inputs": [],
      "name": "bondMaturityPeriod",
      "outputs": [
        {
          "internalType": "uint256",
          "name": "",
          "type": "uint256"
        }
      ],
      "stateMutability": "view",
      "type": "function"
    },
    {
      "inputs": [],
      "name": "bondToken",
      "outputs": [
        {
          "internalType": "contract BondToken",
          "name": "",
          "type": "address"
        }
      ],
      "stateMutability": "view",
      "type": "function"
    },
    {
      "inputs": [],
      "name": "bondYieldPercentage",
      "outputs": [
        {
          "internalType": "uint256",
          "name": "",
          "type": "uint256"
        }
      ],
      "stateMutability": "view",
      "type": "function"
    },
    {
      "inputs": [],
      "name": "equityToken",
      "outputs": [
        {
          "internalType": "contract EquityToken",
          "name": "",
          "type": "address"
        }
      ],
      "stateMutability": "view",
      "type": "function"
    },
    {
      "inputs": [
        {
          "internalType": "uint256",
          "name": "amount",
          "type": "uint256"
        }
      ],
      "name": "exerciseWarrants",
      "outputs": [],
      "stateMutability": "payable",
      "type": "function"
    },
    {
      "inputs": [],
      "name": "fundBondRedemption",
      "outputs": [],
      "stateMutability": "payable",
      "type": "function"
    },
    {
      "inputs": [],
      "name": "owner",
      "outputs": [
        {
          "internalType": "address",
          "name": "",
          "type": "address"
        }
      ],
      "stateMutability": "view",
      "type": "function"
    },
    {
      "inputs": [],
      "name": "purchaseBonds",
      "outputs": [],
      "stateMutability": "payable",
      "type": "function"
    },
    {
      "inputs": [],
      "name": "purchaseWarrants",
      "outputs": [],
      "stateMutability": "payable",
      "type": "function"
    },
    {
      "inputs": [
        {
          "internalType": "uint256",
          "name": "amount",
          "type": "uint256"
        }
      ],
      "name": "redeemBonds",
      "outputs": [],
      "stateMutability": "nonpayable",
      "type": "function"
    },
    {
      "inputs": [],
      "name": "renounceOwnership",
      "outputs": [],
      "stateMutability": "nonpayable",
      "type": "function"
    },
    {
      "inputs": [],
      "name": "totalEquityIssued",
      "outputs": [
        {
          "internalType": "uint256",
          "name": "",
          "type": "uint256"
        }
      ],
      "stateMutability": "view",
      "type": "function"
    },
    {
      "inputs": [],
      "name": "totalFundsRaised",
      "outputs": [
        {
          "internalType": "uint256",
          "name": "",
          "type": "uint256"
        }
      ],
      "stateMutability": "view",
      "type": "function"
    },
    {
      "inputs": [],
      "name": "totalWarrantsIssued",
      "outputs": [
        {
          "internalType": "uint256",
          "name": "",
          "type": "uint256"
        }
      ],
      "stateMutability": "view",
      "type": "function"
    },
    {
      "inputs": [
        {
          "internalType": "address",
          "name": "newOwner",
          "type": "address"
        }
      ],
      "name": "transferFullOwnership",
      "outputs": [],
      "stateMutability": "nonpayable",
      "type": "function"
    },
    {
      "inputs": [
        {
          "internalType": "address",
          "name": "newOwner",
          "type": "address"
        }
      ],
      "name": "transferOwnership",
      "outputs": [],
      "stateMutability": "nonpayable",
      "type": "function"
    },
    {
      "inputs": [],
      "name": "treasury",
      "outputs": [
        {
          "internalType": "address payable",
          "name": "",
          "type": "address"
        }
      ],
      "stateMutability": "view",
      "type": "function"
    },
    {
      "inputs": [
        {
          "internalType": "address payable",
          "name": "newTreasury",
          "type": "address"
        }
      ],
      "name": "updateTreasury",
      "outputs": [],
      "stateMutability": "nonpayable",
      "type": "function"
    },
    {
      "inputs": [],
      "name": "warrantStrikePrice",
      "outputs": [
        {
          "internalType": "uint256",
          "name": "",
          "type": "uint256"
        }
      ],
      "stateMutability": "view",
      "type": "function"
    },
    {
      "inputs": [],
      "name": "warrantToken",
      "outputs": [
        {
          "internalType": "contract WarrantToken",
          "name": "",
          "type": "address"
        }
      ],
      "stateMutability": "view",
      "type": "function"
    },
    {
      "stateMutability": "payable",
      "type": "receive"
    }
  ],
  "bytecode": "0x60806040523480156200001157600080fd5b50604051620097df380380620097df833981810160405281019062000037919062000491565b620000576200004b620002f660201b60201c565b620002fe60201b60201c565b83600481905550826005819055508160068190555080600760006101000a81548173ffffffffffffffffffffffffffffffffffffffff021916908373ffffffffffffffffffffffffffffffffffffffff1602179055508383604051620000bd90620003c2565b620000ca929190620005c5565b604051809103906000f080158015620000e7573d6000803e3d6000fd5b50600160006101000a81548173ffffffffffffffffffffffffffffffffffffffff021916908373ffffffffffffffffffffffffffffffffffffffff160217905550816104476040516200013a90620003d0565b6200014792919062000709565b604051809103906000f08015801562000164573d6000803e3d6000fd5b50600260006101000a81548173ffffffffffffffffffffffffffffffffffffffff021916908373ffffffffffffffffffffffffffffffffffffffff16021790555069d3c21bcecceda1000000604051620001be90620003de565b620001ca919062000843565b604051809103906000f080158015620001e7573d6000803e3d6000fd5b50600360006101000a81548173ffffffffffffffffffffffffffffffffffffffff021916908373ffffffffffffffffffffffffffffffffffffffff160217905550600260009054906101000a900473ffffffffffffffffffffffffffffffffffffffff1673ffffffffffffffffffffffffffffffffffffffff1663c6a06887600360009054906101000a900473ffffffffffffffffffffffffffffffffffffffff166040518263ffffffff1660e01b8152600401620002a79190620008af565b600060405180830381600087803b158015620002c257600080fd5b505af1158015620002d7573d6000803e3d6000fd5b50505050620002ec33620002fe60201b60201c565b50505050620008cc565b600033905090565b60008060009054906101000a900473ffffffffffffffffffffffffffffffffffffffff169050816000806101000a81548173ffffffffffffffffffffffffffffffffffffffff021916908373ffffffffffffffffffffffffffffffffffffffff1602179055508173ffffffffffffffffffffffffffffffffffffffff168173ffffffffffffffffffffffffffffffffffffffff167f8be0079c531659141344cd1fd0a4f28419497f9722a3daafe3b4186f6b6457e060405160405180910390a35050565b6126518062002cdb83390190565b6124d3806200532c83390190565b611fe080620077ff83390190565b600080fd5b6000819050919050565b6200040681620003f1565b81146200041257600080fd5b50565b6000815190506200042681620003fb565b92915050565b600073ffffffffffffffffffffffffffffffffffffffff82169050919050565b600062000459826200042c565b9050919050565b6200046b816200044c565b81146200047757600080fd5b50565b6000815190506200048b8162000460565b92915050565b60008060008060808587031215620004ae57620004ad620003ec565b5b6000620004be8782880162000415565b9450506020620004d18782880162000415565b9350506040620004e48782880162000415565b9250506060620004f7878288016200047a565b91505092959194509250565b600082825260208201905092915050565b7f436f6d70616e7920426f6e6420546f6b656e0000000000000000000000000000600082015250565b60006200054c60128362000503565b9150620005598262000514565b602082019050919050565b7f43424f4e44000000000000000000000000000000000000000000000000000000600082015250565b60006200059c60058362000503565b9150620005a98262000564565b602082019050919050565b620005bf81620003f1565b82525050565b60006080820190508181036000830152620005e0816200053d565b90508181036020830152620005f5816200058d565b9050620006066040830185620005b4565b620006156060830184620005b4565b9392505050565b7f436f6d70616e792057617272616e7420546f6b656e0000000000000000000000600082015250565b60006200065460158362000503565b915062000661826200061c565b602082019050919050565b7f4357415252000000000000000000000000000000000000000000000000000000600082015250565b6000620006a460058362000503565b9150620006b1826200066c565b602082019050919050565b6000819050919050565b6000819050919050565b6000620006f1620006eb620006e584620006bc565b620006c6565b620003f1565b9050919050565b6200070381620006d0565b82525050565b60006080820190508181036000830152620007248162000645565b90508181036020830152620007398162000695565b90506200074a6040830185620005b4565b620007596060830184620006f8565b9392505050565b7f436f6d70616e792045717569747920546f6b656e000000000000000000000000600082015250565b60006200079860148362000503565b9150620007a58262000760565b602082019050919050565b7f4345515549545900000000000000000000000000000000000000000000000000600082015250565b6000620007e860078362000503565b9150620007f582620007b0565b602082019050919050565b6000819050919050565b60006200082b620008256200081f8462000800565b620006c6565b620003f1565b9050919050565b6200083d816200080a565b82525050565b600060608201905081810360008301526200085e8162000789565b905081810360208301526200087381620007d9565b905062000884604083018462000832565b92915050565b600062000897826200042c565b9050919050565b620008a9816200088a565b82525050565b6000602082019050620008c660008301846200089e565b92915050565b6123ff80620008dc6000396000f3fe60806040526004361061012e5760003560e01c8063900d8cb1116100ab578063c70fce7d1161006f578063c70fce7d14610365578063e189ce141461036f578063e4464ecc14610398578063ec52c690146103b4578063f2fde38b146103df578063fa9c7a2e1461040857610135565b8063900d8cb11461028e578063b5a8461d146102b9578063b8a986f3146102e4578063c28f43921461030f578063c6b435141461033a57610135565b80635583fca2116100f25780635583fca2146101cd57806361d027b3146101f8578063715018a6146102235780637f51bb1f1461023a5780638da5cb5b1461026357610135565b8063270880da1461013a57806339f4fc47146101445780633d31841b1461016d578063412a1d4e14610177578063427c0c7f146101a257610135565b3661013557005b600080fd5b610142610433565b005b34801561015057600080fd5b5061016b60048036038101906101669190611835565b61068a565b005b6101756108b4565b005b34801561018357600080fd5b5061018c610ae0565b604051610199919061187b565b60405180910390f35b3480156101ae57600080fd5b506101b7610ae6565b6040516101c4919061187b565b60405180910390f35b3480156101d957600080fd5b506101e2610aec565b6040516101ef919061187b565b60405180910390f35b34801561020457600080fd5b5061020d610af2565b60405161021a91906118b7565b60405180910390f35b34801561022f57600080fd5b50610238610b18565b005b34801561024657600080fd5b50610261600480360381019061025c91906118fe565b610b2c565b005b34801561026f57600080fd5b50610278610be7565b604051610285919061193a565b60405180910390f35b34801561029a57600080fd5b506102a3610c10565b6040516102b0919061187b565b60405180910390f35b3480156102c557600080fd5b506102ce610c16565b6040516102db919061187b565b60405180910390f35b3480156102f057600080fd5b506102f9610c1c565b604051610306919061187b565b60405180910390f35b34801561031b57600080fd5b50610324610c22565b60405161033191906119b4565b60405180910390f35b34801561034657600080fd5b5061034f610c48565b60405161035c91906119f0565b60405180910390f35b61036d610c6e565b005b34801561037b57600080fd5b5061039660048036038101906103919190611a37565b610cb3565b005b6103b260048036038101906103ad9190611a37565b6110d6565b005b3480156103c057600080fd5b506103c96115d9565b6040516103d6919061187b565b60405180910390f35b3480156103eb57600080fd5b5061040660048036038101906104019190611835565b6115df565b005b34801561041457600080fd5b5061041d611662565b60405161042a9190611a85565b60405180910390f35b60003411610476576040517f08c379a000000000000000000000000000000000000000000000000000000000815260040161046d90611b23565b60405180910390fd5b600067016345785d8a00009050600081670de0b6b3a76400003461049a9190611b72565b6104a49190611be3565b9050600260009054906101000a900473ffffffffffffffffffffffffffffffffffffffff1673ffffffffffffffffffffffffffffffffffffffff166340c10f1933836040518363ffffffff1660e01b8152600401610503929190611c14565b600060405180830381600087803b15801561051d57600080fd5b505af1158015610531573d6000803e3d6000fd5b5050505034600860008282546105479190611c3d565b9250508190555080600a60008282546105609190611c3d565b925050819055506000600760009054906101000a900473ffffffffffffffffffffffffffffffffffffffff1673ffffffffffffffffffffffffffffffffffffffff16346040516105af90611ca2565b60006040518083038185875af1925050503d80600081146105ec576040519150601f19603f3d011682016040523d82523d6000602084013e6105f1565b606091505b5050905080610635576040517f08c379a000000000000000000000000000000000000000000000000000000000815260040161062c90611d03565b60405180910390fd5b3373ffffffffffffffffffffffffffffffffffffffff167ff2ab67635a782d67b2fab71fc4cbbf2fedefec74430ea6aa1a595df0f8929d4f833460405161067d929190611d23565b60405180910390a2505050565b610692611688565b600073ffffffffffffffffffffffffffffffffffffffff168173ffffffffffffffffffffffffffffffffffffffff1603610701576040517f08c379a00000000000000000000000000000000000000000000000000000000081526004016106f890611d98565b60405180910390fd5b600160009054906101000a900473ffffffffffffffffffffffffffffffffffffffff1673ffffffffffffffffffffffffffffffffffffffff1663f2fde38b826040518263ffffffff1660e01b815260040161075c919061193a565b600060405180830381600087803b15801561077657600080fd5b505af115801561078a573d6000803e3d6000fd5b50505050600260009054906101000a900473ffffffffffffffffffffffffffffffffffffffff1673ffffffffffffffffffffffffffffffffffffffff1663f2fde38b826040518263ffffffff1660e01b81526004016107e9919061193a565b600060405180830381600087803b15801561080357600080fd5b505af1158015610817573d6000803e3d6000fd5b50505050600360009054906101000a900473ffffffffffffffffffffffffffffffffffffffff1673ffffffffffffffffffffffffffffffffffffffff1663f2fde38b826040518263ffffffff1660e01b8152600401610876919061193a565b600060405180830381600087803b15801561089057600080fd5b505af11580156108a4573d6000803e3d6000fd5b505050506108b1816115df565b50565b600034116108f7576040517f08c379a00000000000000000000000000000000000000000000000000000000081526004016108ee90611e04565b60405180910390fd5b6000349050600160009054906101000a900473ffffffffffffffffffffffffffffffffffffffff1673ffffffffffffffffffffffffffffffffffffffff166340c10f1933836040518363ffffffff1660e01b8152600401610959929190611c14565b600060405180830381600087803b15801561097357600080fd5b505af1158015610987573d6000803e3d6000fd5b50505050346008600082825461099d9190611c3d565b925050819055506001600960008282546109b79190611c3d565b925050819055506000600760009054906101000a900473ffffffffffffffffffffffffffffffffffffffff1673ffffffffffffffffffffffffffffffffffffffff1634604051610a0690611ca2565b60006040518083038185875af1925050503d8060008114610a43576040519150601f19603f3d011682016040523d82523d6000602084013e610a48565b606091505b5050905080610a8c576040517f08c379a0000000000000000000000000000000000000000000000000000000008152600401610a8390611d03565b60405180910390fd5b3373ffffffffffffffffffffffffffffffffffffffff167fe17625c8e066d43aa572a68a46078c8ba73f775c9708f1d6ce8cdd04afba6a8e8334604051610ad4929190611d23565b60405180910390a25050565b60095481565b60085481565b60065481565b600760009054906101000a900473ffffffffffffffffffffffffffffffffffffffff1681565b610b20611688565b610b2a6000611706565b565b610b34611688565b600073ffffffffffffffffffffffffffffffffffffffff168173ffffffffffffffffffffffffffffffffffffffff1603610ba3576040517f08c379a0000000000000000000000000000000000000000000000000000000008152600401610b9a90611e70565b60405180910390fd5b80600760006101000a81548173ffffffffffffffffffffffffffffffffffffffff021916908373ffffffffffffffffffffffffffffffffffffffff16021790555050565b60008060009054906101000a900473ffffffffffffffffffffffffffffffffffffffff16905090565b600b5481565b60055481565b600a5481565b600160009054906101000a900473ffffffffffffffffffffffffffffffffffffffff1681565b600360009054906101000a900473ffffffffffffffffffffffffffffffffffffffff1681565b60003411610cb1576040517f08c379a0000000000000000000000000000000000000000000000000000000008152600401610ca890611edc565b60405180910390fd5b565b60008111610cf6576040517f08c379a0000000000000000000000000000000000000000000000000000000008152600401610ced90611f48565b60405180910390fd5b80600160009054906101000a900473ffffffffffffffffffffffffffffffffffffffff1673ffffffffffffffffffffffffffffffffffffffff166370a08231336040518263ffffffff1660e01b8152600401610d52919061193a565b602060405180830381865afa158015610d6f573d6000803e3d6000fd5b505050506040513d601f19601f82011682018060405250810190610d939190611f7d565b1015610dd4576040517f08c379a0000000000000000000000000000000000000000000000000000000008152600401610dcb90611ff6565b60405180910390fd5b600160009054906101000a900473ffffffffffffffffffffffffffffffffffffffff1673ffffffffffffffffffffffffffffffffffffffff1663b7b9b3df336040518263ffffffff1660e01b8152600401610e2f919061193a565b602060405180830381865afa158015610e4c573d6000803e3d6000fd5b505050506040513d601f19601f82011682018060405250810190610e70919061204e565b610eaf576040517f08c379a0000000000000000000000000000000000000000000000000000000008152600401610ea6906120c7565b60405180910390fd5b6000600160009054906101000a900473ffffffffffffffffffffffffffffffffffffffff1673ffffffffffffffffffffffffffffffffffffffff166376074b35836040518263ffffffff1660e01b8152600401610f0c919061187b565b602060405180830381865afa158015610f29573d6000803e3d6000fd5b505050506040513d601f19601f82011682018060405250810190610f4d9190611f7d565b9050600160009054906101000a900473ffffffffffffffffffffffffffffffffffffffff1673ffffffffffffffffffffffffffffffffffffffff166379cc679033846040518363ffffffff1660e01b8152600401610fac929190611c14565b600060405180830381600087803b158015610fc657600080fd5b505af1158015610fda573d6000803e3d6000fd5b50505050600160096000828254610ff191906120e7565b925050819055508047101561103b576040517f08c379a000000000000000000000000000000000000000000000000000000000815260040161103290612167565b60405180910390fd5b3373ffffffffffffffffffffffffffffffffffffffff166108fc829081150290604051600060405180830381858888f19350505050158015611081573d6000803e3d6000fd5b503373ffffffffffffffffffffffffffffffffffffffff167f078e7e33fc73f8f19ca611c3ba5105036dd4e8b8fbc9714fa55bc9a0379495c283836040516110ca929190611d23565b60405180910390a25050565b60008111611119576040517f08c379a000000000000000000000000000000000000000000000000000000000815260040161111090611f48565b60405180910390fd5b80600260009054906101000a900473ffffffffffffffffffffffffffffffffffffffff1673ffffffffffffffffffffffffffffffffffffffff166370a08231336040518263ffffffff1660e01b8152600401611175919061193a565b602060405180830381865afa158015611192573d6000803e3d6000fd5b505050506040513d601f19601f820116820180604052508101906111b69190611f7d565b10156111f7576040517f08c379a00000000000000000000000000000000000000000000000000000000081526004016111ee906121d3565b60405180910390fd5b600260009054906101000a900473ffffffffffffffffffffffffffffffffffffffff1673ffffffffffffffffffffffffffffffffffffffff166390e64d136040518163ffffffff1660e01b8152600401602060405180830381865afa158015611264573d6000803e3d6000fd5b505050506040513d601f19601f82011682018060405250810190611288919061204e565b156112c8576040517f08c379a00000000000000000000000000000000000000000000000000000000081526004016112bf9061223f565b60405180910390fd5b6000600654826112d89190611b72565b90508034101561131d576040517f08c379a0000000000000000000000000000000000000000000000000000000008152600401611314906122ab565b60405180910390fd5b600260009054906101000a900473ffffffffffffffffffffffffffffffffffffffff1673ffffffffffffffffffffffffffffffffffffffff166379cc679033846040518363ffffffff1660e01b815260040161137a929190611c14565b600060405180830381600087803b15801561139457600080fd5b505af11580156113a8573d6000803e3d6000fd5b50505050600360009054906101000a900473ffffffffffffffffffffffffffffffffffffffff1673ffffffffffffffffffffffffffffffffffffffff166340c10f1933846040518363ffffffff1660e01b8152600401611409929190611c14565b600060405180830381600087803b15801561142357600080fd5b505af1158015611437573d6000803e3d6000fd5b5050505081600b600082825461144d9190611c3d565b925050819055506000600760009054906101000a900473ffffffffffffffffffffffffffffffffffffffff1673ffffffffffffffffffffffffffffffffffffffff168260405161149c90611ca2565b60006040518083038185875af1925050503d80600081146114d9576040519150601f19603f3d011682016040523d82523d6000602084013e6114de565b606091505b5050905080611522576040517f08c379a000000000000000000000000000000000000000000000000000000000815260040161151990611d03565b60405180910390fd5b6000823461153091906120e7565b90506000811115611583573373ffffffffffffffffffffffffffffffffffffffff166108fc829081150290604051600060405180830381858888f19350505050158015611581573d6000803e3d6000fd5b505b3373ffffffffffffffffffffffffffffffffffffffff167f975692f552d88478e140a81ee74e7745097f97ff120aa7089462854542982be985856040516115cb929190611d23565b60405180910390a250505050565b60045481565b6115e7611688565b600073ffffffffffffffffffffffffffffffffffffffff168173ffffffffffffffffffffffffffffffffffffffff1603611656576040517f08c379a000000000000000000000000000000000000000000000000000000000815260040161164d9061233d565b60405180910390fd5b61165f81611706565b50565b600260009054906101000a900473ffffffffffffffffffffffffffffffffffffffff1681565b6116906117ca565b73ffffffffffffffffffffffffffffffffffffffff166116ae610be7565b73ffffffffffffffffffffffffffffffffffffffff1614611704576040517f08c379a00000000000000000000000000000000000000000000000000000000081526004016116fb906123a9565b60405180910390fd5b565b60008060009054906101000a900473ffffffffffffffffffffffffffffffffffffffff169050816000806101000a81548173ffffffffffffffffffffffffffffffffffffffff021916908373ffffffffffffffffffffffffffffffffffffffff1602179055508173ffffffffffffffffffffffffffffffffffffffff168173ffffffffffffffffffffffffffffffffffffffff167f8be0079c531659141344cd1fd0a4f28419497f9722a3daafe3b4186f6b6457e060405160405180910390a35050565b600033905090565b600080fd5b600073ffffffffffffffffffffffffffffffffffffffff82169050919050565b6000611802826117d7565b9050919050565b611812816117f7565b811461181d57600080fd5b50565b60008135905061182f81611809565b92915050565b60006020828403121561184b5761184a6117d2565b5b600061185984828501611820565b91505092915050565b6000819050919050565b61187581611862565b82525050565b6000602082019050611890600083018461186c565b92915050565b60006118a1826117d7565b9050919050565b6118b181611896565b82525050565b60006020820190506118cc60008301846118a8565b92915050565b6118db81611896565b81146118e657600080fd5b50565b6000813590506118f8816118d2565b92915050565b600060208284031215611914576119136117d2565b5b6000611922848285016118e9565b91505092915050565b611934816117f7565b82525050565b600060208201905061194f600083018461192b565b92915050565b6000819050919050565b600061197a611975611970846117d7565b611955565b6117d7565b9050919050565b600061198c8261195f565b9050919050565b600061199e82611981565b9050919050565b6119ae81611993565b82525050565b60006020820190506119c960008301846119a5565b92915050565b60006119da82611981565b9050919050565b6119ea816119cf565b82525050565b6000602082019050611a0560008301846119e1565b92915050565b611a1481611862565b8114611a1f57600080fd5b50565b600081359050611a3181611a0b565b92915050565b600060208284031215611a4d57611a4c6117d2565b5b6000611a5b84828501611a22565b91505092915050565b6000611a6f82611981565b9050919050565b611a7f81611a64565b82525050565b6000602082019050611a9a6000830184611a76565b92915050565b600082825260208201905092915050565b7f4d7573742073656e642045544820746f2070757263686173652077617272616e60008201527f7473000000000000000000000000000000000000000000000000000000000000602082015250565b6000611b0d602283611aa0565b9150611b1882611ab1565b604082019050919050565b60006020820190508181036000830152611b3c81611b00565b9050919050565b7f4e487b7100000000000000000000000000000000000000000000000000000000600052601160045260246000fd5b6000611b7d82611862565b9150611b8883611862565b9250828202611b9681611862565b91508282048414831517611bad57611bac611b43565b5b5092915050565b7f4e487b7100000000000000000000000000000000000000000000000000000000600052601260045260246000fd5b6000611bee82611862565b9150611bf983611862565b925082611c0957611c08611bb4565b5b828204905092915050565b6000604082019050611c29600083018561192b565b611c36602083018461186c565b9392505050565b6000611c4882611862565b9150611c5383611862565b9250828201905080821115611c6b57611c6a611b43565b5b92915050565b600081905092915050565b50565b6000611c8c600083611c71565b9150611c9782611c7c565b600082019050919050565b6000611cad82611c7f565b9150819050919050565b7f4661696c656420746f2073656e642045544820746f2074726561737572790000600082015250565b6000611ced601e83611aa0565b9150611cf882611cb7565b602082019050919050565b60006020820190508181036000830152611d1c81611ce0565b9050919050565b6000604082019050611d38600083018561186c565b611d45602083018461186c565b9392505050565b7f496e76616c6964206e6577206f776e6572000000000000000000000000000000600082015250565b6000611d82601183611aa0565b9150611d8d82611d4c565b602082019050919050565b60006020820190508181036000830152611db181611d75565b9050919050565b7f4d7573742073656e642045544820746f20707572636861736520626f6e647300600082015250565b6000611dee601f83611aa0565b9150611df982611db8565b602082019050919050565b60006020820190508181036000830152611e1d81611de1565b9050919050565b7f496e76616c696420747265617375727920616464726573730000000000000000600082015250565b6000611e5a601883611aa0565b9150611e6582611e24565b602082019050919050565b60006020820190508181036000830152611e8981611e4d565b9050919050565b7f4d7573742073656e642045544800000000000000000000000000000000000000600082015250565b6000611ec6600d83611aa0565b9150611ed182611e90565b602082019050919050565b60006020820190508181036000830152611ef581611eb9565b9050919050565b7f416d6f756e74206d7573742062652067726561746572207468616e2030000000600082015250565b6000611f32601d83611aa0565b9150611f3d82611efc565b602082019050919050565b60006020820190508181036000830152611f6181611f25565b9050919050565b600081519050611f7781611a0b565b92915050565b600060208284031215611f9357611f926117d2565b5b6000611fa184828501611f68565b91505092915050565b7f496e73756666696369656e7420626f6e642062616c616e636500000000000000600082015250565b6000611fe0601983611aa0565b9150611feb82611faa565b602082019050919050565b6000602082019050818103600083015261200f81611fd3565b9050919050565b60008115159050919050565b61202b81612016565b811461203657600080fd5b50565b60008151905061204881612022565b92915050565b600060208284031215612064576120636117d2565b5b600061207284828501612039565b91505092915050565b7f426f6e64732068617665206e6f7420796574206d617475726564000000000000600082015250565b60006120b1601a83611aa0565b91506120bc8261207b565b602082019050919050565b600060208201905081810360008301526120e0816120a4565b9050919050565b60006120f282611862565b91506120fd83611862565b925082820390508181111561211557612114611b43565b5b92915050565b7f496e73756666696369656e7420636f6e74726163742062616c616e6365000000600082015250565b6000612151601d83611aa0565b915061215c8261211b565b602082019050919050565b6000602082019050818103600083015261218081612144565b9050919050565b7f496e73756666696369656e742077617272616e742062616c616e636500000000600082015250565b60006121bd601c83611aa0565b91506121c882612187565b602082019050919050565b600060208201905081810360008301526121ec816121b0565b9050919050565b7f57617272616e7473206861766520657870697265640000000000000000000000600082015250565b6000612229601583611aa0565b9150612234826121f3565b602082019050919050565b600060208201905081810360008301526122588161221c565b9050919050565b7f496e73756666696369656e74204554482073656e740000000000000000000000600082015250565b6000612295601583611aa0565b91506122a08261225f565b602082019050919050565b600060208201905081810360008301526122c481612288565b9050919050565b7f4f776e61626c653a206e6577206f776e657220697320746865207a65726f206160008201527f6464726573730000000000000000000000000000000000000000000000000000602082015250565b6000612327602683611aa0565b9150612332826122cb565b604082019050919050565b600060208201905081810360008301526123568161231a565b9050919050565b7f4f776e61626c653a2063616c6c6572206973206e6f7420746865206f776e6572600082015250565b6000612393602083611aa0565b915061239e8261235d565b602082019050919050565b600060208201905081810360008301526123c281612386565b905091905056fea2646970667358221220dd0c9a64f77d15fd80c28960ea410b81ac84b372300eec1805c0b7f074efc4f664736f6c6343000811003360806040523480156200001157600080fd5b50604051620026513803806200265183398181016040528101906200003791906200035b565b838381600390816200004a91906200064c565b5080600490816200005c91906200064c565b5050506200007f62000073620000bf60201b60201c565b620000c760201b60201c565b42600681905550620151808262000097919062000762565b60078190555080600881905550620000b533620000c760201b60201c565b50505050620007ad565b600033905090565b6000600560009054906101000a900473ffffffffffffffffffffffffffffffffffffffff16905081600560006101000a81548173ffffffffffffffffffffffffffffffffffffffff021916908373ffffffffffffffffffffffffffffffffffffffff1602179055508173ffffffffffffffffffffffffffffffffffffffff168173ffffffffffffffffffffffffffffffffffffffff167f8be0079c531659141344cd1fd0a4f28419497f9722a3daafe3b4186f6b6457e060405160405180910390a35050565b6000604051905090565b600080fd5b600080fd5b600080fd5b600080fd5b6000601f19601f8301169050919050565b7f4e487b7100000000000000000000000000000000000000000000000000000000600052604160045260246000fd5b620001f682620001ab565b810181811067ffffffffffffffff82111715620002185762000217620001bc565b5b80604052505050565b60006200022d6200018d565b90506200023b8282620001eb565b919050565b600067ffffffffffffffff8211156200025e576200025d620001bc565b5b6200026982620001ab565b9050602081019050919050565b60005b838110156200029657808201518184015260208101905062000279565b60008484015250505050565b6000620002b9620002b38462000240565b62000221565b905082815260208101848484011115620002d857620002d7620001a6565b5b620002e584828562000276565b509392505050565b600082601f830112620003055762000304620001a1565b5b815162000317848260208601620002a2565b91505092915050565b6000819050919050565b620003358162000320565b81146200034157600080fd5b50565b60008151905062000355816200032a565b92915050565b6000806000806080858703121562000378576200037762000197565b5b600085015167ffffffffffffffff8111156200039957620003986200019c565b5b620003a787828801620002ed565b945050602085015167ffffffffffffffff811115620003cb57620003ca6200019c565b5b620003d987828801620002ed565b9350506040620003ec8782880162000344565b9250506060620003ff8782880162000344565b91505092959194509250565b600081519050919050565b7f4e487b7100000000000000000000000000000000000000000000000000000000600052602260045260246000fd5b600060028204905060018216806200045e57607f821691505b60208210810362000474576200047362000416565b5b50919050565b60008190508160005260206000209050919050565b60006020601f8301049050919050565b600082821b905092915050565b600060088302620004de7fffffffffffffffffffffffffffffffffffffffffffffffffffffffffffffffff826200049f565b620004ea86836200049f565b95508019841693508086168417925050509392505050565b6000819050919050565b60006200052d62000527620005218462000320565b62000502565b62000320565b9050919050565b6000819050919050565b62000549836200050c565b62000561620005588262000534565b848454620004ac565b825550505050565b600090565b6200057862000569565b620005858184846200053e565b505050565b5b81811015620005ad57620005a16000826200056e565b6001810190506200058b565b5050565b601f821115620005fc57620005c6816200047a565b620005d1846200048f565b81016020851015620005e1578190505b620005f9620005f0856200048f565b8301826200058a565b50505b505050565b600082821c905092915050565b6000620006216000198460080262000601565b1980831691505092915050565b60006200063c83836200060e565b9150826002028217905092915050565b62000657826200040b565b67ffffffffffffffff811115620006735762000672620001bc565b5b6200067f825462000445565b6200068c828285620005b1565b600060209050601f831160018114620006c45760008415620006af578287015190505b620006bb85826200062e565b8655506200072b565b601f198416620006d4866200047a565b60005b82811015620006fe57848901518255600182019150602085019450602081019050620006d7565b868310156200071e57848901516200071a601f8916826200060e565b8355505b6001600288020188555050505b505050505050565b7f4e487b7100000000000000000000000000000000000000000000000000000000600052601160045260246000fd5b60006200076f8262000320565b91506200077c8362000320565b92508282026200078c8162000320565b91508282048414831517620007a657620007a562000733565b5b5092915050565b611e9480620007bd6000396000f3fe608060405234801561001057600080fd5b506004361061014d5760003560e01c806370a08231116100c3578063a457c2d71161007c578063a457c2d714610390578063a9059cbb146103c0578063b7b9b3df146103f0578063baa8196e14610420578063dd62ed3e14610450578063f2fde38b146104805761014d565b806370a08231146102ce578063715018a6146102fe57806376074b351461030857806379cc6790146103385780638da5cb5b1461035457806395d89b41146103725761014d565b806336012d441161011557806336012d441461020c578063395093511461022a57806340c10f191461025a57806342966c6814610276578063485cdc6b1461029257806351672436146102b05761014d565b806306fdde0314610152578063095ea7b31461017057806318160ddd146101a057806323b872dd146101be578063313ce567146101ee575b600080fd5b61015a61049c565b60405161016791906113ea565b60405180910390f35b61018a600480360381019061018591906114a5565b61052e565b6040516101979190611500565b60405180910390f35b6101a8610551565b6040516101b5919061152a565b60405180910390f35b6101d860048036038101906101d39190611545565b61055b565b6040516101e59190611500565b60405180910390f35b6101f661058a565b60405161020391906115b4565b60405180910390f35b610214610593565b604051610221919061152a565b60405180910390f35b610244600480360381019061023f91906114a5565b610599565b6040516102519190611500565b60405180910390f35b610274600480360381019061026f91906114a5565b6105d0565b005b610290600480360381019061028b91906115cf565b61062a565b005b61029a61063e565b6040516102a7919061152a565b60405180910390f35b6102b8610644565b6040516102c5919061152a565b60405180910390f35b6102e860048036038101906102e391906115fc565b61064a565b6040516102f5919061152a565b60405180910390f35b610306610692565b005b610322600480360381019061031d91906115cf565b6106a6565b60405161032f919061152a565b60405180910390f35b610352600480360381019061034d91906114a5565b6106d5565b005b61035c6106f5565b6040516103699190611638565b60405180910390f35b61037a61071f565b60405161038791906113ea565b60405180910390f35b6103aa60048036038101906103a591906114a5565b6107b1565b6040516103b79190611500565b60405180910390f35b6103da60048036038101906103d591906114a5565b610828565b6040516103e79190611500565b60405180910390f35b61040a600480360381019061040591906115fc565b61084b565b6040516104179190611500565b60405180910390f35b61043a600480360381019061043591906115fc565b6108f4565b604051610447919061152a565b60405180910390f35b61046a60048036038101906104659190611653565b61090c565b604051610477919061152a565b60405180910390f35b61049a600480360381019061049591906115fc565b610993565b005b6060600380546104ab906116c2565b80601f01602080910402602001604051908101604052809291908181526020018280546104d7906116c2565b80156105245780601f106104f957610100808354040283529160200191610524565b820191906000526020600020905b81548152906001019060200180831161050757829003601f168201915b5050505050905090565b600080610539610a16565b9050610546818585610a1e565b600191505092915050565b6000600254905090565b600080610566610a16565b9050610573858285610be7565b61057e858585610c73565b60019150509392505050565b60006012905090565b60075481565b6000806105a4610a16565b90506105c58185856105b6858961090c565b6105c09190611722565b610a1e565b600191505092915050565b6105d8610ee9565b6105e28282610f67565b42600960008473ffffffffffffffffffffffffffffffffffffffff1673ffffffffffffffffffffffffffffffffffffffff168152602001908152602001600020819055505050565b61063b610635610a16565b826110bd565b50565b60085481565b60065481565b60008060008373ffffffffffffffffffffffffffffffffffffffff1673ffffffffffffffffffffffffffffffffffffffff168152602001908152602001600020549050919050565b61069a610ee9565b6106a4600061128a565b565b6000612710600854836106b99190611756565b6106c391906117c7565b826106ce9190611722565b9050919050565b6106e7826106e1610a16565b83610be7565b6106f182826110bd565b5050565b6000600560009054906101000a900473ffffffffffffffffffffffffffffffffffffffff16905090565b60606004805461072e906116c2565b80601f016020809104026020016040519081016040528092919081815260200182805461075a906116c2565b80156107a75780601f1061077c576101008083540402835291602001916107a7565b820191906000526020600020905b81548152906001019060200180831161078a57829003601f168201915b5050505050905090565b6000806107bc610a16565b905060006107ca828661090c565b90508381101561080f576040517f08c379a00000000000000000000000000000000000000000000000000000000081526004016108069061186a565b60405180910390fd5b61081c8286868403610a1e565b60019250505092915050565b600080610833610a16565b9050610840818585610c73565b600191505092915050565b600080600960008473ffffffffffffffffffffffffffffffffffffffff1673ffffffffffffffffffffffffffffffffffffffff168152602001908152602001600020540361089c57600090506108ef565b600754600960008473ffffffffffffffffffffffffffffffffffffffff1673ffffffffffffffffffffffffffffffffffffffff168152602001908152602001600020546108e99190611722565b42101590505b919050565b60096020528060005260406000206000915090505481565b6000600160008473ffffffffffffffffffffffffffffffffffffffff1673ffffffffffffffffffffffffffffffffffffffff16815260200190815260200160002060008373ffffffffffffffffffffffffffffffffffffffff1673ffffffffffffffffffffffffffffffffffffffff16815260200190815260200160002054905092915050565b61099b610ee9565b600073ffffffffffffffffffffffffffffffffffffffff168173ffffffffffffffffffffffffffffffffffffffff1603610a0a576040517f08c379a0000000000000000000000000000000000000000000000000000000008152600401610a01906118fc565b60405180910390fd5b610a138161128a565b50565b600033905090565b600073ffffffffffffffffffffffffffffffffffffffff168373ffffffffffffffffffffffffffffffffffffffff1603610a8d576040517f08c379a0000000000000000000000000000000000000000000000000000000008152600401610a849061198e565b60405180910390fd5b600073ffffffffffffffffffffffffffffffffffffffff168273ffffffffffffffffffffffffffffffffffffffff1603610afc576040517f08c379a0000000000000000000000000000000000000000000000000000000008152600401610af390611a20565b60405180910390fd5b80600160008573ffffffffffffffffffffffffffffffffffffffff1673ffffffffffffffffffffffffffffffffffffffff16815260200190815260200160002060008473ffffffffffffffffffffffffffffffffffffffff1673ffffffffffffffffffffffffffffffffffffffff168152602001908152602001600020819055508173ffffffffffffffffffffffffffffffffffffffff168373ffffffffffffffffffffffffffffffffffffffff167f8c5be1e5ebec7d5bd14f71427d1e84f3dd0314c0f7b2291e5b200ac8c7c3b92583604051610bda919061152a565b60405180910390a3505050565b6000610bf3848461090c565b90507fffffffffffffffffffffffffffffffffffffffffffffffffffffffffffffffff8114610c6d5781811015610c5f576040517f08c379a0000000000000000000000000000000000000000000000000000000008152600401610c5690611a8c565b60405180910390fd5b610c6c8484848403610a1e565b5b50505050565b600073ffffffffffffffffffffffffffffffffffffffff168373ffffffffffffffffffffffffffffffffffffffff1603610ce2576040517f08c379a0000000000000000000000000000000000000000000000000000000008152600401610cd990611b1e565b60405180910390fd5b600073ffffffffffffffffffffffffffffffffffffffff168273ffffffffffffffffffffffffffffffffffffffff1603610d51576040517f08c379a0000000000000000000000000000000000000000000000000000000008152600401610d4890611bb0565b60405180910390fd5b610d5c838383611350565b60008060008573ffffffffffffffffffffffffffffffffffffffff1673ffffffffffffffffffffffffffffffffffffffff16815260200190815260200160002054905081811015610de2576040517f08c379a0000000000000000000000000000000000000000000000000000000008152600401610dd990611c42565b60405180910390fd5b8181036000808673ffffffffffffffffffffffffffffffffffffffff1673ffffffffffffffffffffffffffffffffffffffff16815260200190815260200160002081905550816000808573ffffffffffffffffffffffffffffffffffffffff1673ffffffffffffffffffffffffffffffffffffffff168152602001908152602001600020600082825401925050819055508273ffffffffffffffffffffffffffffffffffffffff168473ffffffffffffffffffffffffffffffffffffffff167fddf252ad1be2c89b69c2b068fc378daa952ba7f163c4a11628f55a4df523b3ef84604051610ed0919061152a565b60405180910390a3610ee3848484611355565b50505050565b610ef1610a16565b73ffffffffffffffffffffffffffffffffffffffff16610f0f6106f5565b73ffffffffffffffffffffffffffffffffffffffff1614610f65576040517f08c379a0000000000000000000000000000000000000000000000000000000008152600401610f5c90611cae565b60405180910390fd5b565b600073ffffffffffffffffffffffffffffffffffffffff168273ffffffffffffffffffffffffffffffffffffffff1603610fd6576040517f08c379a0000000000000000000000000000000000000000000000000000000008152600401610fcd90611d1a565b60405180910390fd5b610fe260008383611350565b8060026000828254610ff49190611722565b92505081905550806000808473ffffffffffffffffffffffffffffffffffffffff1673ffffffffffffffffffffffffffffffffffffffff168152602001908152602001600020600082825401925050819055508173ffffffffffffffffffffffffffffffffffffffff16600073ffffffffffffffffffffffffffffffffffffffff167fddf252ad1be2c89b69c2b068fc378daa952ba7f163c4a11628f55a4df523b3ef836040516110a5919061152a565b60405180910390a36110b960008383611355565b5050565b600073ffffffffffffffffffffffffffffffffffffffff168273ffffffffffffffffffffffffffffffffffffffff160361112c576040517f08c379a000000000000000000000000000000000000000000000000000000000815260040161112390611dac565b60405180910390fd5b61113882600083611350565b60008060008473ffffffffffffffffffffffffffffffffffffffff1673ffffffffffffffffffffffffffffffffffffffff168152602001908152602001600020549050818110156111be576040517f08c379a00000000000000000000000000000000000000000000000000000000081526004016111b590611e3e565b60405180910390fd5b8181036000808573ffffffffffffffffffffffffffffffffffffffff1673ffffffffffffffffffffffffffffffffffffffff1681526020019081526020016000208190555081600260008282540392505081905550600073ffffffffffffffffffffffffffffffffffffffff168373ffffffffffffffffffffffffffffffffffffffff167fddf252ad1be2c89b69c2b068fc378daa952ba7f163c4a11628f55a4df523b3ef84604051611271919061152a565b60405180910390a361128583600084611355565b505050565b6000600560009054906101000a900473ffffffffffffffffffffffffffffffffffffffff16905081600560006101000a81548173ffffffffffffffffffffffffffffffffffffffff021916908373ffffffffffffffffffffffffffffffffffffffff1602179055508173ffffffffffffffffffffffffffffffffffffffff168173ffffffffffffffffffffffffffffffffffffffff167f8be0079c531659141344cd1fd0a4f28419497f9722a3daafe3b4186f6b6457e060405160405180910390a35050565b505050565b505050565b600081519050919050565b600082825260208201905092915050565b60005b83811015611394578082015181840152602081019050611379565b60008484015250505050565b6000601f19601f8301169050919050565b60006113bc8261135a565b6113c68185611365565b93506113d6818560208601611376565b6113df816113a0565b840191505092915050565b6000602082019050818103600083015261140481846113b1565b905092915050565b600080fd5b600073ffffffffffffffffffffffffffffffffffffffff82169050919050565b600061143c82611411565b9050919050565b61144c81611431565b811461145757600080fd5b50565b60008135905061146981611443565b92915050565b6000819050919050565b6114828161146f565b811461148d57600080fd5b50565b60008135905061149f81611479565b92915050565b600080604083850312156114bc576114bb61140c565b5b60006114ca8582860161145a565b92505060206114db85828601611490565b9150509250929050565b60008115159050919050565b6114fa816114e5565b82525050565b600060208201905061151560008301846114f1565b92915050565b6115248161146f565b82525050565b600060208201905061153f600083018461151b565b92915050565b60008060006060848603121561155e5761155d61140c565b5b600061156c8682870161145a565b935050602061157d8682870161145a565b925050604061158e86828701611490565b9150509250925092565b600060ff82169050919050565b6115ae81611598565b82525050565b60006020820190506115c960008301846115a5565b92915050565b6000602082840312156115e5576115e461140c565b5b60006115f384828501611490565b91505092915050565b6000602082840312156116125761161161140c565b5b60006116208482850161145a565b91505092915050565b61163281611431565b82525050565b600060208201905061164d6000830184611629565b92915050565b6000806040838503121561166a5761166961140c565b5b60006116788582860161145a565b92505060206116898582860161145a565b9150509250929050565b7f4e487b7100000000000000000000000000000000000000000000000000000000600052602260045260246000fd5b600060028204905060018216806116da57607f821691505b6020821081036116ed576116ec611693565b5b50919050565b7f4e487b7100000000000000000000000000000000000000000000000000000000600052601160045260246000fd5b600061172d8261146f565b91506117388361146f565b92508282019050808211156117505761174f6116f3565b5b92915050565b60006117618261146f565b915061176c8361146f565b925082820261177a8161146f565b91508282048414831517611791576117906116f3565b5b5092915050565b7f4e487b7100000000000000000000000000000000000000000000000000000000600052601260045260246000fd5b60006117d28261146f565b91506117dd8361146f565b9250826117ed576117ec611798565b5b828204905092915050565b7f45524332303a2064656372656173656420616c6c6f77616e63652062656c6f7760008201527f207a65726f000000000000000000000000000000000000000000000000000000602082015250565b6000611854602583611365565b915061185f826117f8565b604082019050919050565b6000602082019050818103600083015261188381611847565b9050919050565b7f4f776e61626c653a206e6577206f776e657220697320746865207a65726f206160008201527f6464726573730000000000000000000000000000000000000000000000000000602082015250565b60006118e6602683611365565b91506118f18261188a565b604082019050919050565b60006020820190508181036000830152611915816118d9565b9050919050565b7f45524332303a20617070726f76652066726f6d20746865207a65726f2061646460008201527f7265737300000000000000000000000000000000000000000000000000000000602082015250565b6000611978602483611365565b91506119838261191c565b604082019050919050565b600060208201905081810360008301526119a78161196b565b9050919050565b7f45524332303a20617070726f766520746f20746865207a65726f20616464726560008201527f7373000000000000000000000000000000000000000000000000000000000000602082015250565b6000611a0a602283611365565b9150611a15826119ae565b604082019050919050565b60006020820190508181036000830152611a39816119fd565b9050919050565b7f45524332303a20696e73756666696369656e7420616c6c6f77616e6365000000600082015250565b6000611a76601d83611365565b9150611a8182611a40565b602082019050919050565b60006020820190508181036000830152611aa581611a69565b9050919050565b7f45524332303a207472616e736665722066726f6d20746865207a65726f20616460008201527f6472657373000000000000000000000000000000000000000000000000000000602082015250565b6000611b08602583611365565b9150611b1382611aac565b604082019050919050565b60006020820190508181036000830152611b3781611afb565b9050919050565b7f45524332303a207472616e7366657220746f20746865207a65726f206164647260008201527f6573730000000000000000000000000000000000000000000000000000000000602082015250565b6000611b9a602383611365565b9150611ba582611b3e565b604082019050919050565b60006020820190508181036000830152611bc981611b8d565b9050919050565b7f45524332303a207472616e7366657220616d6f756e742065786365656473206260008201527f616c616e63650000000000000000000000000000000000000000000000000000602082015250565b6000611c2c602683611365565b9150611c3782611bd0565b604082019050919050565b60006020820190508181036000830152611c5b81611c1f565b9050919050565b7f4f776e61626c653a2063616c6c6572206973206e6f7420746865206f776e6572600082015250565b6000611c98602083611365565b9150611ca382611c62565b602082019050919050565b60006020820190508181036000830152611cc781611c8b565b9050919050565b7f45524332303a206d696e7420746f20746865207a65726f206164647265737300600082015250565b6000611d04601f83611365565b9150611d0f82611cce565b602082019050919050565b60006020820190508181036000830152611d3381611cf7565b9050919050565b7f45524332303a206275726e2066726f6d20746865207a65726f2061646472657360008201527f7300000000000000000000000000000000000000000000000000000000000000602082015250565b6000611d96602183611365565b9150611da182611d3a565b604082019050919050565b60006020820190508181036000830152611dc581611d89565b9050919050565b7f45524332303a206275726e20616d6f756e7420657863656564732062616c616e60008201527f6365000000000000000000000000000000000000000000000000000000000000602082015250565b6000611e28602283611365565b9150611e3382611dcc565b604082019050919050565b60006020820190508181036000830152611e5781611e1b565b905091905056fea2646970667358221220903935a8717edc8a4e30bd773ea4ccc79d059f621d58079b71dfb35330461e7364736f6c6343000811003360806040523480156200001157600080fd5b50604051620024d3380380620024d3833981810160405281019062000037919062000361565b838381600390816200004a919062000652565b5080600490816200005c919062000652565b5050506200007f62000073620000c560201b60201c565b620000cd60201b60201c565b81600681905550620151808162000097919062000768565b42620000a49190620007b3565b600781905550620000bb33620000cd60201b60201c565b50505050620007ee565b600033905090565b6000600560009054906101000a900473ffffffffffffffffffffffffffffffffffffffff16905081600560006101000a81548173ffffffffffffffffffffffffffffffffffffffff021916908373ffffffffffffffffffffffffffffffffffffffff1602179055508173ffffffffffffffffffffffffffffffffffffffff168173ffffffffffffffffffffffffffffffffffffffff167f8be0079c531659141344cd1fd0a4f28419497f9722a3daafe3b4186f6b6457e060405160405180910390a35050565b6000604051905090565b600080fd5b600080fd5b600080fd5b600080fd5b6000601f19601f8301169050919050565b7f4e487b7100000000000000000000000000000000000000000000000000000000600052604160045260246000fd5b620001fc82620001b1565b810181811067ffffffffffffffff821117156200021e576200021d620001c2565b5b80604052505050565b60006200023362000193565b9050620002418282620001f1565b919050565b600067ffffffffffffffff821115620002645762000263620001c2565b5b6200026f82620001b1565b9050602081019050919050565b60005b838110156200029c5780820151818401526020810190506200027f565b60008484015250505050565b6000620002bf620002b98462000246565b62000227565b905082815260208101848484011115620002de57620002dd620001ac565b5b620002eb8482856200027c565b509392505050565b600082601f8301126200030b576200030a620001a7565b5b81516200031d848260208601620002a8565b91505092915050565b6000819050919050565b6200033b8162000326565b81146200034757600080fd5b50565b6000815190506200035b8162000330565b92915050565b600080600080608085870312156200037e576200037d6200019d565b5b600085015167ffffffffffffffff8111156200039f576200039e620001a2565b5b620003ad87828801620002f3565b945050602085015167ffffffffffffffff811115620003d157620003d0620001a2565b5b620003df87828801620002f3565b9350506040620003f2878288016200034a565b925050606062000405878288016200034a565b91505092959194509250565b600081519050919050565b7f4e487b7100000000000000000000000000000000000000000000000000000000600052602260045260246000fd5b600060028204905060018216806200046457607f821691505b6020821081036200047a57620004796200041c565b5b50919050565b60008190508160005260206000209050919050565b60006020601f8301049050919050565b600082821b905092915050565b600060088302620004e47fffffffffffffffffffffffffffffffffffffffffffffffffffffffffffffffff82620004a5565b620004f08683620004a5565b95508019841693508086168417925050509392505050565b6000819050919050565b6000620005336200052d620005278462000326565b62000508565b62000326565b9050919050565b6000819050919050565b6200054f8362000512565b620005676200055e826200053a565b848454620004b2565b825550505050565b600090565b6200057e6200056f565b6200058b81848462000544565b505050565b5b81811015620005b357620005a760008262000574565b60018101905062000591565b5050565b601f8211156200060257620005cc8162000480565b620005d78462000495565b81016020851015620005e7578190505b620005ff620005f68562000495565b83018262000590565b50505b505050565b600082821c905092915050565b6000620006276000198460080262000607565b1980831691505092915050565b600062000642838362000614565b9150826002028217905092915050565b6200065d8262000411565b67ffffffffffffffff811115620006795762000678620001c2565b5b6200068582546200044b565b62000692828285620005b7565b600060209050601f831160018114620006ca5760008415620006b5578287015190505b620006c1858262000634565b86555062000731565b601f198416620006da8662000480565b60005b828110156200070457848901518255600182019150602085019450602081019050620006dd565b8683101562000724578489015162000720601f89168262000614565b8355505b6001600288020188555050505b505050505050565b7f4e487b7100000000000000000000000000000000000000000000000000000000600052601160045260246000fd5b6000620007758262000326565b9150620007828362000326565b9250828202620007928162000326565b91508282048414831517620007ac57620007ab62000739565b5b5092915050565b6000620007c08262000326565b9150620007cd8362000326565b9250828201905080821115620007e857620007e762000739565b5b92915050565b611cd580620007fe6000396000f3fe608060405234801561001057600080fd5b50600436106101425760003560e01c806379cc6790116100b8578063a457c2d71161007c578063a457c2d714610355578063a9059cbb14610385578063c52987cf146103b5578063c6a06887146103d3578063dd62ed3e146103ef578063f2fde38b1461041f57610142565b806379cc6790146102c15780638da5cb5b146102dd57806390e64d13146102fb57806395d89b41146103195780639f43ddd21461033757610142565b8063395093511161010a578063395093511461020157806340c10f191461023157806342966c681461024d57806346065ba11461026957806370a0823114610287578063715018a6146102b757610142565b806306fdde0314610147578063095ea7b31461016557806318160ddd1461019557806323b872dd146101b3578063313ce567146101e3575b600080fd5b61014f61043b565b60405161015c91906112cd565b60405180910390f35b61017f600480360381019061017a9190611388565b6104cd565b60405161018c91906113e3565b60405180910390f35b61019d6104f0565b6040516101aa919061140d565b60405180910390f35b6101cd60048036038101906101c89190611428565b6104fa565b6040516101da91906113e3565b60405180910390f35b6101eb610529565b6040516101f89190611497565b60405180910390f35b61021b60048036038101906102169190611388565b610532565b60405161022891906113e3565b60405180910390f35b61024b60048036038101906102469190611388565b610569565b005b610267600480360381019061026291906114b2565b61057f565b005b610271610593565b60405161027e91906114ee565b60405180910390f35b6102a1600480360381019061029c9190611509565b6105b9565b6040516102ae919061140d565b60405180910390f35b6102bf610601565b005b6102db60048036038101906102d69190611388565b610615565b005b6102e5610635565b6040516102f291906114ee565b60405180910390f35b61030361065f565b60405161031091906113e3565b60405180910390f35b61032161066b565b60405161032e91906112cd565b60405180910390f35b61033f6106fd565b60405161034c919061140d565b60405180910390f35b61036f600480360381019061036a9190611388565b610703565b60405161037c91906113e3565b60405180910390f35b61039f600480360381019061039a9190611388565b61077a565b6040516103ac91906113e3565b60405180910390f35b6103bd61079d565b6040516103ca919061140d565b60405180910390f35b6103ed60048036038101906103e89190611509565b6107a3565b005b61040960048036038101906104049190611536565b6107ef565b604051610416919061140d565b60405180910390f35b61043960048036038101906104349190611509565b610876565b005b60606003805461044a906115a5565b80601f0160208091040260200160405190810160405280929190818152602001828054610476906115a5565b80156104c35780601f10610498576101008083540402835291602001916104c3565b820191906000526020600020905b8154815290600101906020018083116104a657829003601f168201915b5050505050905090565b6000806104d86108f9565b90506104e5818585610901565b600191505092915050565b6000600254905090565b6000806105056108f9565b9050610512858285610aca565b61051d858585610b56565b60019150509392505050565b60006012905090565b60008061053d6108f9565b905061055e81858561054f85896107ef565b6105599190611605565b610901565b600191505092915050565b610571610dcc565b61057b8282610e4a565b5050565b61059061058a6108f9565b82610fa0565b50565b600860009054906101000a900473ffffffffffffffffffffffffffffffffffffffff1681565b60008060008373ffffffffffffffffffffffffffffffffffffffff1673ffffffffffffffffffffffffffffffffffffffff168152602001908152602001600020549050919050565b610609610dcc565b610613600061116d565b565b610627826106216108f9565b83610aca565b6106318282610fa0565b5050565b6000600560009054906101000a900473ffffffffffffffffffffffffffffffffffffffff16905090565b60006007544211905090565b60606004805461067a906115a5565b80601f01602080910402602001604051908101604052809291908181526020018280546106a6906115a5565b80156106f35780601f106106c8576101008083540402835291602001916106f3565b820191906000526020600020905b8154815290600101906020018083116106d657829003601f168201915b5050505050905090565b60075481565b60008061070e6108f9565b9050600061071c82866107ef565b905083811015610761576040517f08c379a0000000000000000000000000000000000000000000000000000000008152600401610758906116ab565b60405180910390fd5b61076e8286868403610901565b60019250505092915050565b6000806107856108f9565b9050610792818585610b56565b600191505092915050565b60065481565b6107ab610dcc565b80600860006101000a81548173ffffffffffffffffffffffffffffffffffffffff021916908373ffffffffffffffffffffffffffffffffffffffff16021790555050565b6000600160008473ffffffffffffffffffffffffffffffffffffffff1673ffffffffffffffffffffffffffffffffffffffff16815260200190815260200160002060008373ffffffffffffffffffffffffffffffffffffffff1673ffffffffffffffffffffffffffffffffffffffff16815260200190815260200160002054905092915050565b61087e610dcc565b600073ffffffffffffffffffffffffffffffffffffffff168173ffffffffffffffffffffffffffffffffffffffff16036108ed576040517f08c379a00000000000000000000000000000000000000000000000000000000081526004016108e49061173d565b60405180910390fd5b6108f68161116d565b50565b600033905090565b600073ffffffffffffffffffffffffffffffffffffffff168373ffffffffffffffffffffffffffffffffffffffff1603610970576040517f08c379a0000000000000000000000000000000000000000000000000000000008152600401610967906117cf565b60405180910390fd5b600073ffffffffffffffffffffffffffffffffffffffff168273ffffffffffffffffffffffffffffffffffffffff16036109df576040517f08c379a00000000000000000000000000000000000000000000000000000000081526004016109d690611861565b60405180910390fd5b80600160008573ffffffffffffffffffffffffffffffffffffffff1673ffffffffffffffffffffffffffffffffffffffff16815260200190815260200160002060008473ffffffffffffffffffffffffffffffffffffffff1673ffffffffffffffffffffffffffffffffffffffff168152602001908152602001600020819055508173ffffffffffffffffffffffffffffffffffffffff168373ffffffffffffffffffffffffffffffffffffffff167f8c5be1e5ebec7d5bd14f71427d1e84f3dd0314c0f7b2291e5b200ac8c7c3b92583604051610abd919061140d565b60405180910390a3505050565b6000610ad684846107ef565b90507fffffffffffffffffffffffffffffffffffffffffffffffffffffffffffffffff8114610b505781811015610b42576040517f08c379a0000000000000000000000000000000000000000000000000000000008152600401610b39906118cd565b60405180910390fd5b610b4f8484848403610901565b5b50505050565b600073ffffffffffffffffffffffffffffffffffffffff168373ffffffffffffffffffffffffffffffffffffffff1603610bc5576040517f08c379a0000000000000000000000000000000000000000000000000000000008152600401610bbc9061195f565b60405180910390fd5b600073ffffffffffffffffffffffffffffffffffffffff168273ffffffffffffffffffffffffffffffffffffffff1603610c34576040517f08c379a0000000000000000000000000000000000000000000000000000000008152600401610c2b906119f1565b60405180910390fd5b610c3f838383611233565b60008060008573ffffffffffffffffffffffffffffffffffffffff1673ffffffffffffffffffffffffffffffffffffffff16815260200190815260200160002054905081811015610cc5576040517f08c379a0000000000000000000000000000000000000000000000000000000008152600401610cbc90611a83565b60405180910390fd5b8181036000808673ffffffffffffffffffffffffffffffffffffffff1673ffffffffffffffffffffffffffffffffffffffff16815260200190815260200160002081905550816000808573ffffffffffffffffffffffffffffffffffffffff1673ffffffffffffffffffffffffffffffffffffffff168152602001908152602001600020600082825401925050819055508273ffffffffffffffffffffffffffffffffffffffff168473ffffffffffffffffffffffffffffffffffffffff167fddf252ad1be2c89b69c2b068fc378daa952ba7f163c4a11628f55a4df523b3ef84604051610db3919061140d565b60405180910390a3610dc6848484611238565b50505050565b610dd46108f9565b73ffffffffffffffffffffffffffffffffffffffff16610df2610635565b73ffffffffffffffffffffffffffffffffffffffff1614610e48576040517f08c379a0000000000000000000000000000000000000000000000000000000008152600401610e3f90611aef565b60405180910390fd5b565b600073ffffffffffffffffffffffffffffffffffffffff168273ffffffffffffffffffffffffffffffffffffffff1603610eb9576040517f08c379a0000000000000000000000000000000000000000000000000000000008152600401610eb090611b5b565b60405180910390fd5b610ec560008383611233565b8060026000828254610ed79190611605565b92505081905550806000808473ffffffffffffffffffffffffffffffffffffffff1673ffffffffffffffffffffffffffffffffffffffff168152602001908152602001600020600082825401925050819055508173ffffffffffffffffffffffffffffffffffffffff16600073ffffffffffffffffffffffffffffffffffffffff167fddf252ad1be2c89b69c2b068fc378daa952ba7f163c4a11628f55a4df523b3ef83604051610f88919061140d565b60405180910390a3610f9c60008383611238565b5050565b600073ffffffffffffffffffffffffffffffffffffffff168273ffffffffffffffffffffffffffffffffffffffff160361100f576040517f08c379a000000000000000000000000000000000000000000000000000000000815260040161100690611bed565b60405180910390fd5b61101b82600083611233565b60008060008473ffffffffffffffffffffffffffffffffffffffff1673ffffffffffffffffffffffffffffffffffffffff168152602001908152602001600020549050818110156110a1576040517f08c379a000000000000000000000000000000000000000000000000000000000815260040161109890611c7f565b60405180910390fd5b8181036000808573ffffffffffffffffffffffffffffffffffffffff1673ffffffffffffffffffffffffffffffffffffffff1681526020019081526020016000208190555081600260008282540392505081905550600073ffffffffffffffffffffffffffffffffffffffff168373ffffffffffffffffffffffffffffffffffffffff167fddf252ad1be2c89b69c2b068fc378daa952ba7f163c4a11628f55a4df523b3ef84604051611154919061140d565b60405180910390a361116883600084611238565b505050565b6000600560009054906101000a900473ffffffffffffffffffffffffffffffffffffffff16905081600560006101000a81548173ffffffffffffffffffffffffffffffffffffffff021916908373ffffffffffffffffffffffffffffffffffffffff1602179055508173ffffffffffffffffffffffffffffffffffffffff168173ffffffffffffffffffffffffffffffffffffffff167f8be0079c531659141344cd1fd0a4f28419497f9722a3daafe3b4186f6b6457e060405160405180910390a35050565b505050565b505050565b600081519050919050565b600082825260208201905092915050565b60005b8381101561127757808201518184015260208101905061125c565b60008484015250505050565b6000601f19601f8301169050919050565b600061129f8261123d565b6112a98185611248565b93506112b9818560208601611259565b6112c281611283565b840191505092915050565b600060208201905081810360008301526112e78184611294565b905092915050565b600080fd5b600073ffffffffffffffffffffffffffffffffffffffff82169050919050565b600061131f826112f4565b9050919050565b61132f81611314565b811461133a57600080fd5b50565b60008135905061134c81611326565b92915050565b6000819050919050565b61136581611352565b811461137057600080fd5b50565b6000813590506113828161135c565b92915050565b6000806040838503121561139f5761139e6112ef565b5b60006113ad8582860161133d565b92505060206113be85828601611373565b9150509250929050565b60008115159050919050565b6113dd816113c8565b82525050565b60006020820190506113f860008301846113d4565b92915050565b61140781611352565b82525050565b600060208201905061142260008301846113fe565b92915050565b600080600060608486031215611441576114406112ef565b5b600061144f8682870161133d565b93505060206114608682870161133d565b925050604061147186828701611373565b9150509250925092565b600060ff82169050919050565b6114918161147b565b82525050565b60006020820190506114ac6000830184611488565b92915050565b6000602082840312156114c8576114c76112ef565b5b60006114d684828501611373565b91505092915050565b6114e881611314565b82525050565b600060208201905061150360008301846114df565b92915050565b60006020828403121561151f5761151e6112ef565b5b600061152d8482850161133d565b91505092915050565b6000806040838503121561154d5761154c6112ef565b5b600061155b8582860161133d565b925050602061156c8582860161133d565b9150509250929050565b7f4e487b7100000000000000000000000000000000000000000000000000000000600052602260045260246000fd5b600060028204905060018216806115bd57607f821691505b6020821081036115d0576115cf611576565b5b50919050565b7f4e487b7100000000000000000000000000000000000000000000000000000000600052601160045260246000fd5b600061161082611352565b915061161b83611352565b9250828201905080821115611633576116326115d6565b5b92915050565b7f45524332303a2064656372656173656420616c6c6f77616e63652062656c6f7760008201527f207a65726f000000000000000000000000000000000000000000000000000000602082015250565b6000611695602583611248565b91506116a082611639565b604082019050919050565b600060208201905081810360008301526116c481611688565b9050919050565b7f4f776e61626c653a206e6577206f776e657220697320746865207a65726f206160008201527f6464726573730000000000000000000000000000000000000000000000000000602082015250565b6000611727602683611248565b9150611732826116cb565b604082019050919050565b600060208201905081810360008301526117568161171a565b9050919050565b7f45524332303a20617070726f76652066726f6d20746865207a65726f2061646460008201527f7265737300000000000000000000000000000000000000000000000000000000602082015250565b60006117b9602483611248565b91506117c48261175d565b604082019050919050565b600060208201905081810360008301526117e8816117ac565b9050919050565b7f45524332303a20617070726f766520746f20746865207a65726f20616464726560008201527f7373000000000000000000000000000000000000000000000000000000000000602082015250565b600061184b602283611248565b9150611856826117ef565b604082019050919050565b6000602082019050818103600083015261187a8161183e565b9050919050565b7f45524332303a20696e73756666696369656e7420616c6c6f77616e6365000000600082015250565b60006118b7601d83611248565b91506118c282611881565b602082019050919050565b600060208201905081810360008301526118e6816118aa565b9050919050565b7f45524332303a207472616e736665722066726f6d20746865207a65726f20616460008201527f6472657373000000000000000000000000000000000000000000000000000000602082015250565b6000611949602583611248565b9150611954826118ed565b604082019050919050565b600060208201905081810360008301526119788161193c565b9050919050565b7f45524332303a207472616e7366657220746f20746865207a65726f206164647260008201527f6573730000000000000000000000000000000000000000000000000000000000602082015250565b60006119db602383611248565b91506119e68261197f565b604082019050919050565b60006020820190508181036000830152611a0a816119ce565b9050919050565b7f45524332303a207472616e7366657220616d6f756e742065786365656473206260008201527f616c616e63650000000000000000000000000000000000000000000000000000602082015250565b6000611a6d602683611248565b9150611a7882611a11565b604082019050919050565b60006020820190508181036000830152611a9c81611a60565b9050919050565b7f4f776e61626c653a2063616c6c6572206973206e6f7420746865206f776e6572600082015250565b6000611ad9602083611248565b9150611ae482611aa3565b602082019050919050565b60006020820190508181036000830152611b0881611acc565b9050919050565b7f45524332303a206d696e7420746f20746865207a65726f206164647265737300600082015250565b6000611b45601f83611248565b9150611b5082611b0f565b602082019050919050565b60006020820190508181036000830152611b7481611b38565b9050919050565b7f45524332303a206275726e2066726f6d20746865207a65726f2061646472657360008201527f7300000000000000000000000000000000000000000000000000000000000000602082015250565b6000611bd7602183611248565b9150611be282611b7b565b604082019050919050565b60006020820190508181036000830152611c0681611bca565b9050919050565b7f45524332303a206275726e20616d6f756e7420657863656564732062616c616e60008201527f6365000000000000000000000000000000000000000000000000000000000000602082015250565b6000611c69602283611248565b9150611c7482611c0d565b604082019050919050565b60006020820190508181036000830152611c9881611c5c565b905091905056fea2646970667358221220856fd44ccdc44d75f0e41540995f20b712e538f474a1acc71f32a865cc4804fc64736f6c6343000811003360806040523480156200001157600080fd5b5060405162001fe038038062001fe083398181016040528101906200003791906200033c565b828281600390816200004a919062000617565b5080600490816200005c919062000617565b5050506200007f62000073620000a060201b60201c565b620000a860201b60201c565b806006819055506200009733620000a860201b60201c565b505050620006fe565b600033905090565b6000600560009054906101000a900473ffffffffffffffffffffffffffffffffffffffff16905081600560006101000a81548173ffffffffffffffffffffffffffffffffffffffff021916908373ffffffffffffffffffffffffffffffffffffffff1602179055508173ffffffffffffffffffffffffffffffffffffffff168173ffffffffffffffffffffffffffffffffffffffff167f8be0079c531659141344cd1fd0a4f28419497f9722a3daafe3b4186f6b6457e060405160405180910390a35050565b6000604051905090565b600080fd5b600080fd5b600080fd5b600080fd5b6000601f19601f8301169050919050565b7f4e487b7100000000000000000000000000000000000000000000000000000000600052604160045260246000fd5b620001d7826200018c565b810181811067ffffffffffffffff82111715620001f957620001f86200019d565b5b80604052505050565b60006200020e6200016e565b90506200021c8282620001cc565b919050565b600067ffffffffffffffff8211156200023f576200023e6200019d565b5b6200024a826200018c565b9050602081019050919050565b60005b83811015620002775780820151818401526020810190506200025a565b60008484015250505050565b60006200029a620002948462000221565b62000202565b905082815260208101848484011115620002b957620002b862000187565b5b620002c684828562000257565b509392505050565b600082601f830112620002e657620002e562000182565b5b8151620002f884826020860162000283565b91505092915050565b6000819050919050565b620003168162000301565b81146200032257600080fd5b50565b60008151905062000336816200030b565b92915050565b60008060006060848603121562000358576200035762000178565b5b600084015167ffffffffffffffff8111156200037957620003786200017d565b5b6200038786828701620002ce565b935050602084015167ffffffffffffffff811115620003ab57620003aa6200017d565b5b620003b986828701620002ce565b9250506040620003cc8682870162000325565b9150509250925092565b600081519050919050565b7f4e487b7100000000000000000000000000000000000000000000000000000000600052602260045260246000fd5b600060028204905060018216806200042957607f821691505b6020821081036200043f576200043e620003e1565b5b50919050565b60008190508160005260206000209050919050565b60006020601f8301049050919050565b600082821b905092915050565b600060088302620004a97fffffffffffffffffffffffffffffffffffffffffffffffffffffffffffffffff826200046a565b620004b586836200046a565b95508019841693508086168417925050509392505050565b6000819050919050565b6000620004f8620004f2620004ec8462000301565b620004cd565b62000301565b9050919050565b6000819050919050565b6200051483620004d7565b6200052c6200052382620004ff565b84845462000477565b825550505050565b600090565b6200054362000534565b6200055081848462000509565b505050565b5b8181101562000578576200056c60008262000539565b60018101905062000556565b5050565b601f821115620005c757620005918162000445565b6200059c846200045a565b81016020851015620005ac578190505b620005c4620005bb856200045a565b83018262000555565b50505b505050565b600082821c905092915050565b6000620005ec60001984600802620005cc565b1980831691505092915050565b6000620006078383620005d9565b9150826002028217905092915050565b6200062282620003d6565b67ffffffffffffffff8111156200063e576200063d6200019d565b5b6200064a825462000410565b620006578282856200057c565b600060209050601f8311600181146200068f57600084156200067a578287015190505b620006868582620005f9565b865550620006f6565b601f1984166200069f8662000445565b60005b82811015620006c957848901518255600182019150602085019450602081019050620006a2565b86831015620006e95784890151620006e5601f891682620005d9565b8355505b6001600288020188555050505b505050505050565b6118d2806200070e6000396000f3fe608060405234801561001057600080fd5b50600436106101005760003560e01c8063715018a611610097578063a457c2d711610066578063a457c2d71461029f578063a9059cbb146102cf578063dd62ed3e146102ff578063f2fde38b1461032f57610100565b8063715018a61461023b5780638da5cb5b1461024557806395d89b411461026357806396bc81311461028157610100565b8063313ce567116100d3578063313ce567146101a157806339509351146101bf57806340c10f19146101ef57806370a082311461020b57610100565b806306fdde0314610105578063095ea7b31461012357806318160ddd1461015357806323b872dd14610171575b600080fd5b61010d61034b565b60405161011a9190610faf565b60405180910390f35b61013d6004803603810190610138919061106a565b6103dd565b60405161014a91906110c5565b60405180910390f35b61015b610400565b60405161016891906110ef565b60405180910390f35b61018b6004803603810190610186919061110a565b61040a565b60405161019891906110c5565b60405180910390f35b6101a9610439565b6040516101b69190611179565b60405180910390f35b6101d960048036038101906101d4919061106a565b610442565b6040516101e691906110c5565b60405180910390f35b6102096004803603810190610204919061106a565b610479565b005b61022560048036038101906102209190611194565b6104e6565b60405161023291906110ef565b60405180910390f35b61024361052e565b005b61024d610542565b60405161025a91906111d0565b60405180910390f35b61026b61056c565b6040516102789190610faf565b60405180910390f35b6102896105fe565b60405161029691906110ef565b60405180910390f35b6102b960048036038101906102b4919061106a565b610604565b6040516102c691906110c5565b60405180910390f35b6102e960048036038101906102e4919061106a565b61067b565b6040516102f691906110c5565b60405180910390f35b610319600480360381019061031491906111eb565b61069e565b60405161032691906110ef565b60405180910390f35b61034960048036038101906103449190611194565b610725565b005b60606003805461035a9061125a565b80601f01602080910402602001604051908101604052809291908181526020018280546103869061125a565b80156103d35780601f106103a8576101008083540402835291602001916103d3565b820191906000526020600020905b8154815290600101906020018083116103b657829003601f168201915b5050505050905090565b6000806103e86107a8565b90506103f58185856107b0565b600191505092915050565b6000600254905090565b6000806104156107a8565b9050610422858285610979565b61042d858585610a05565b60019150509392505050565b60006012905090565b60008061044d6107a8565b905061046e81858561045f858961069e565b61046991906112ba565b6107b0565b600191505092915050565b610481610c7b565b6006548161048d610400565b61049791906112ba565b11156104d8576040517f08c379a00000000000000000000000000000000000000000000000000000000081526004016104cf9061133a565b60405180910390fd5b6104e28282610cf9565b5050565b60008060008373ffffffffffffffffffffffffffffffffffffffff1673ffffffffffffffffffffffffffffffffffffffff168152602001908152602001600020549050919050565b610536610c7b565b6105406000610e4f565b565b6000600560009054906101000a900473ffffffffffffffffffffffffffffffffffffffff16905090565b60606004805461057b9061125a565b80601f01602080910402602001604051908101604052809291908181526020018280546105a79061125a565b80156105f45780601f106105c9576101008083540402835291602001916105f4565b820191906000526020600020905b8154815290600101906020018083116105d757829003601f168201915b5050505050905090565b60065481565b60008061060f6107a8565b9050600061061d828661069e565b905083811015610662576040517f08c379a0000000000000000000000000000000000000000000000000000000008152600401610659906113cc565b60405180910390fd5b61066f82868684036107b0565b60019250505092915050565b6000806106866107a8565b9050610693818585610a05565b600191505092915050565b6000600160008473ffffffffffffffffffffffffffffffffffffffff1673ffffffffffffffffffffffffffffffffffffffff16815260200190815260200160002060008373ffffffffffffffffffffffffffffffffffffffff1673ffffffffffffffffffffffffffffffffffffffff16815260200190815260200160002054905092915050565b61072d610c7b565b600073ffffffffffffffffffffffffffffffffffffffff168173ffffffffffffffffffffffffffffffffffffffff160361079c576040517f08c379a00000000000000000000000000000000000000000000000000000000081526004016107939061145e565b60405180910390fd5b6107a581610e4f565b50565b600033905090565b600073ffffffffffffffffffffffffffffffffffffffff168373ffffffffffffffffffffffffffffffffffffffff160361081f576040517f08c379a0000000000000000000000000000000000000000000000000000000008152600401610816906114f0565b60405180910390fd5b600073ffffffffffffffffffffffffffffffffffffffff168273ffffffffffffffffffffffffffffffffffffffff160361088e576040517f08c379a000000000000000000000000000000000000000000000000000000000815260040161088590611582565b60405180910390fd5b80600160008573ffffffffffffffffffffffffffffffffffffffff1673ffffffffffffffffffffffffffffffffffffffff16815260200190815260200160002060008473ffffffffffffffffffffffffffffffffffffffff1673ffffffffffffffffffffffffffffffffffffffff168152602001908152602001600020819055508173ffffffffffffffffffffffffffffffffffffffff168373ffffffffffffffffffffffffffffffffffffffff167f8c5be1e5ebec7d5bd14f71427d1e84f3dd0314c0f7b2291e5b200ac8c7c3b9258360405161096c91906110ef565b60405180910390a3505050565b6000610985848461069e565b90507fffffffffffffffffffffffffffffffffffffffffffffffffffffffffffffffff81146109ff57818110156109f1576040517f08c379a00000000000000000000000000000000000000000000000000000000081526004016109e8906115ee565b60405180910390fd5b6109fe84848484036107b0565b5b50505050565b600073ffffffffffffffffffffffffffffffffffffffff168373ffffffffffffffffffffffffffffffffffffffff1603610a74576040517f08c379a0000000000000000000000000000000000000000000000000000000008152600401610a6b90611680565b60405180910390fd5b600073ffffffffffffffffffffffffffffffffffffffff168273ffffffffffffffffffffffffffffffffffffffff1603610ae3576040517f08c379a0000000000000000000000000000000000000000000000000000000008152600401610ada90611712565b60405180910390fd5b610aee838383610f15565b60008060008573ffffffffffffffffffffffffffffffffffffffff1673ffffffffffffffffffffffffffffffffffffffff16815260200190815260200160002054905081811015610b74576040517f08c379a0000000000000000000000000000000000000000000000000000000008152600401610b6b906117a4565b60405180910390fd5b8181036000808673ffffffffffffffffffffffffffffffffffffffff1673ffffffffffffffffffffffffffffffffffffffff16815260200190815260200160002081905550816000808573ffffffffffffffffffffffffffffffffffffffff1673ffffffffffffffffffffffffffffffffffffffff168152602001908152602001600020600082825401925050819055508273ffffffffffffffffffffffffffffffffffffffff168473ffffffffffffffffffffffffffffffffffffffff167fddf252ad1be2c89b69c2b068fc378daa952ba7f163c4a11628f55a4df523b3ef84604051610c6291906110ef565b60405180910390a3610c75848484610f1a565b50505050565b610c836107a8565b73ffffffffffffffffffffffffffffffffffffffff16610ca1610542565b73ffffffffffffffffffffffffffffffffffffffff1614610cf7576040517f08c379a0000000000000000000000000000000000000000000000000000000008152600401610cee90611810565b60405180910390fd5b565b600073ffffffffffffffffffffffffffffffffffffffff168273ffffffffffffffffffffffffffffffffffffffff1603610d68576040517f08c379a0000000000000000000000000000000000000000000000000000000008152600401610d5f9061187c565b60405180910390fd5b610d7460008383610f15565b8060026000828254610d8691906112ba565b92505081905550806000808473ffffffffffffffffffffffffffffffffffffffff1673ffffffffffffffffffffffffffffffffffffffff168152602001908152602001600020600082825401925050819055508173ffffffffffffffffffffffffffffffffffffffff16600073ffffffffffffffffffffffffffffffffffffffff167fddf252ad1be2c89b69c2b068fc378daa952ba7f163c4a11628f55a4df523b3ef83604051610e3791906110ef565b60405180910390a3610e4b60008383610f1a565b5050565b6000600560009054906101000a900473ffffffffffffffffffffffffffffffffffffffff16905081600560006101000a81548173ffffffffffffffffffffffffffffffffffffffff021916908373ffffffffffffffffffffffffffffffffffffffff1602179055508173ffffffffffffffffffffffffffffffffffffffff168173ffffffffffffffffffffffffffffffffffffffff167f8be0079c531659141344cd1fd0a4f28419497f9722a3daafe3b4186f6b6457e060405160405180910390a35050565b505050565b505050565b600081519050919050565b600082825260208201905092915050565b60005b83811015610f59578082015181840152602081019050610f3e565b60008484015250505050565b6000601f19601f8301169050919050565b6000610f8182610f1f565b610f8b8185610f2a565b9350610f9b818560208601610f3b565b610fa481610f65565b840191505092915050565b60006020820190508181036000830152610fc98184610f76565b905092915050565b600080fd5b600073ffffffffffffffffffffffffffffffffffffffff82169050919050565b600061100182610fd6565b9050919050565b61101181610ff6565b811461101c57600080fd5b50565b60008135905061102e81611008565b92915050565b6000819050919050565b61104781611034565b811461105257600080fd5b50565b6000813590506110648161103e565b92915050565b6000806040838503121561108157611080610fd1565b5b600061108f8582860161101f565b92505060206110a085828601611055565b9150509250929050565b60008115159050919050565b6110bf816110aa565b82525050565b60006020820190506110da60008301846110b6565b92915050565b6110e981611034565b82525050565b600060208201905061110460008301846110e0565b92915050565b60008060006060848603121561112357611122610fd1565b5b60006111318682870161101f565b93505060206111428682870161101f565b925050604061115386828701611055565b9150509250925092565b600060ff82169050919050565b6111738161115d565b82525050565b600060208201905061118e600083018461116a565b92915050565b6000602082840312156111aa576111a9610fd1565b5b60006111b88482850161101f565b91505092915050565b6111ca81610ff6565b82525050565b60006020820190506111e560008301846111c1565b92915050565b6000806040838503121561120257611201610fd1565b5b60006112108582860161101f565b92505060206112218582860161101f565b9150509250929050565b7f4e487b7100000000000000000000000000000000000000000000000000000000600052602260045260246000fd5b6000600282049050600182168061127257607f821691505b6020821081036112855761128461122b565b5b50919050565b7f4e487b7100000000000000000000000000000000000000000000000000000000600052601160045260246000fd5b60006112c582611034565b91506112d083611034565b92508282019050808211156112e8576112e761128b565b5b92915050565b7f4578636565647320617574686f72697a65642073686172657300000000000000600082015250565b6000611324601983610f2a565b915061132f826112ee565b602082019050919050565b6000602082019050818103600083015261135381611317565b9050919050565b7f45524332303a2064656372656173656420616c6c6f77616e63652062656c6f7760008201527f207a65726f000000000000000000000000000000000000000000000000000000602082015250565b60006113b6602583610f2a565b91506113c18261135a565b604082019050919050565b600060208201905081810360008301526113e5816113a9565b9050919050565b7f4f776e61626c653a206e6577206f776e657220697320746865207a65726f206160008201527f6464726573730000000000000000000000000000000000000000000000000000602082015250565b6000611448602683610f2a565b9150611453826113ec565b604082019050919050565b600060208201905081810360008301526114778161143b565b9050919050565b7f45524332303a20617070726f76652066726f6d20746865207a65726f2061646460008201527f7265737300000000000000000000000000000000000000000000000000000000602082015250565b60006114da602483610f2a565b91506114e58261147e565b604082019050919050565b60006020820190508181036000830152611509816114cd565b9050919050565b7f45524332303a20617070726f766520746f20746865207a65726f20616464726560008201527f7373000000000000000000000000000000000000000000000000000000000000602082015250565b600061156c602283610f2a565b915061157782611510565b604082019050919050565b6000602082019050818103600083015261159b8161155f565b9050919050565b7f45524332303a20696e73756666696369656e7420616c6c6f77616e6365000000600082015250565b60006115d8601d83610f2a565b91506115e3826115a2565b602082019050919050565b60006020820190508181036000830152611607816115cb565b9050919050565b7f45524332303a207472616e736665722066726f6d20746865207a65726f20616460008201527f6472657373000000000000000000000000000000000000000000000000000000602082015250565b600061166a602583610f2a565b91506116758261160e565b604082019050919050565b600060208201905081810360008301526116998161165d565b9050919050565b7f45524332303a207472616e7366657220746f20746865207a65726f206164647260008201527f6573730000000000000000000000000000000000000000000000000000000000602082015250565b60006116fc602383610f2a565b9150611707826116a0565b604082019050919050565b6000602082019050818103600083015261172b816116ef565b9050919050565b7f45524332303a207472616e7366657220616d6f756e742065786365656473206260008201527f616c616e63650000000000000000000000000000000000000000000000000000602082015250565b600061178e602683610f2a565b915061179982611732565b604082019050919050565b600060208201905081810360008301526117bd81611781565b9050919050565b7f4f776e61626c653a2063616c6c6572206973206e6f7420746865206f776e6572600082015250565b60006117fa602083610f2a565b9150611805826117c4565b602082019050919050565b60006020820190508181036000830152611829816117ed565b9050919050565b7f45524332303a206d696e7420746f20746865207a65726f206164647265737300600082015250565b6000611866601f83610f2a565b915061187182611830565b602082019050919050565b6000602082019050818103600083015261189581611859565b905091905056fea2646970667358221220a05968711ddd3f171063e41b400e81bae299d8c6df7d1d66ca7311f5fa3f4bf764736f6c63430008110033",
  "linkReferences": {},
  "deployedLinkReferences": {}
}