{
  "_format": "hh-sol-artifact-1",
  "contractName": "TokenSaleFacet",
  "sourceName": "src/backend/contracts/TokenSaleFacet.sol",
  "abi": [
    {
      "anonymous": false,
      "inputs": [
        {
          "indexed": false,
          "internalType": "bool",
          "name": "isActive",
          "type": "bool"
        }
      ],
      "name": "BondSaleStatusChanged",
      "type": "event"
    },
    {
      "anonymous": false,
      "inputs": [
        {
          "indexed": true,
          "internalType": "address",
          "name": "buyer",
          "type": "address"
        },
        {
          "indexed": false,
          "internalType": "uint256",
          "name": "amount",
          "type": "uint256"
        },
        {
          "indexed": false,
          "internalType": "uint256",
          "name": "cost",
          "type": "uint256"
        }
      ],
      "name": "BondsPurchased",
      "type": "event"
    },
    {
      "anonymous": false,
      "inputs": [
        {
          "indexed": true,
          "internalType": "address",
          "name": "holder",
          "type": "address"
        },
        {
          "indexed": false,
          "internalType": "uint256",
          "name": "amount",
          "type": "uint256"
        },
        {
          "indexed": false,
          "internalType": "uint256",
          "name": "payout",
          "type": "uint256"
        }
      ],
      "name": "BondsRedeemed",
      "type": "event"
    },
    {
      "anonymous": false,
      "inputs": [
        {
          "indexed": false,
          "internalType": "address",
          "name": "funder",
          "type": "address"
        },
        {
          "indexed": false,
          "internalType": "uint256",
          "name": "amount",
          "type": "uint256"
        }
      ],
      "name": "ContractFunded",
      "type": "event"
    },
    {
      "anonymous": false,
      "inputs": [
        {
          "indexed": false,
          "internalType": "string",
          "name": "tokenType",
          "type": "string"
        },
        {
          "indexed": false,
          "internalType": "uint256",
          "name": "min",
          "type": "uint256"
        },
        {
          "indexed": false,
          "internalType": "uint256",
          "name": "max",
          "type": "uint256"
        }
      ],
      "name": "MinMaxAmountsUpdated",
      "type": "event"
    },
    {
      "anonymous": false,
      "inputs": [
        {
          "indexed": false,
          "internalType": "address",
          "name": "oldTreasury",
          "type": "address"
        },
        {
          "indexed": false,
          "internalType": "address",
          "name": "newTreasury",
          "type": "address"
        }
      ],
      "name": "TreasuryUpdated",
      "type": "event"
    },
    {
      "anonymous": false,
      "inputs": [
        {
          "indexed": false,
          "internalType": "bool",
          "name": "isActive",
          "type": "bool"
        }
      ],
      "name": "WarrantSaleStatusChanged",
      "type": "event"
    },
    {
      "anonymous": false,
      "inputs": [
        {
          "indexed": true,
          "internalType": "address",
          "name": "holder",
          "type": "address"
        },
        {
          "indexed": false,
          "internalType": "uint256",
          "name": "amount",
          "type": "uint256"
        },
        {
          "indexed": false,
          "internalType": "uint256",
          "name": "cost",
          "type": "uint256"
        }
      ],
      "name": "WarrantsExercised",
      "type": "event"
    },
    {
      "anonymous": false,
      "inputs": [
        {
          "indexed": true,
          "internalType": "address",
          "name": "buyer",
          "type": "address"
        },
        {
          "indexed": false,
          "internalType": "uint256",
          "name": "amount",
          "type": "uint256"
        },
        {
          "indexed": false,
          "internalType": "uint256",
          "name": "cost",
          "type": "uint256"
        }
      ],
      "name": "WarrantsPurchased",
      "type": "event"
    },
    {
      "inputs": [],
      "name": "activeBondCount",
      "outputs": [
        {
          "internalType": "uint256",
          "name": "",
          "type": "uint256"
        }
      ],
      "stateMutability": "view",
      "type": "function"
    },
    {
      "inputs": [],
      "name": "bondMaturityPeriod",
      "outputs": [
        {
          "internalType": "uint256",
          "name": "",
          "type": "uint256"
        }
      ],
      "stateMutability": "view",
      "type": "function"
    },
    {
      "inputs": [],
      "name": "bondSaleActive",
      "outputs": [
        {
          "internalType": "bool",
          "name": "",
          "type": "bool"
        }
      ],
      "stateMutability": "view",
      "type": "function"
    },
    {
      "inputs": [],
      "name": "bondTokenDiamond",
      "outputs": [
        {
          "internalType": "address",
          "name": "",
          "type": "address"
        }
      ],
      "stateMutability": "view",
      "type": "function"
    },
    {
      "inputs": [],
      "name": "bondYieldPercentage",
      "outputs": [
        {
          "internalType": "uint256",
          "name": "",
          "type": "uint256"
        }
      ],
      "stateMutability": "view",
      "type": "function"
    },
    {
      "inputs": [],
      "name": "equityTokenDiamond",
      "outputs": [
        {
          "internalType": "address",
          "name": "",
          "type": "address"
        }
      ],
      "stateMutability": "view",
      "type": "function"
    },
    {
      "inputs": [
        {
          "internalType": "uint256",
          "name": "amount",
          "type": "uint256"
        }
      ],
      "name": "exerciseWarrants",
      "outputs": [],
      "stateMutability": "payable",
      "type": "function"
    },
    {
      "inputs": [],
      "name": "fundBondRedemption",
      "outputs": [],
      "stateMutability": "payable",
      "type": "function"
    },
    {
      "inputs": [],
      "name": "getAllInvestors",
      "outputs": [
        {
          "internalType": "address[]",
          "name": "",
          "type": "address[]"
        }
      ],
      "stateMutability": "view",
      "type": "function"
    },
    {
      "inputs": [],
      "name": "getInvestorCount",
      "outputs": [
        {
          "internalType": "uint256",
          "name": "",
          "type": "uint256"
        }
      ],
      "stateMutability": "view",
      "type": "function"
    },
    {
      "inputs": [
        {
          "internalType": "address",
          "name": "investor",
          "type": "address"
        }
      ],
      "name": "getInvestorDetails",
      "outputs": [
        {
          "components": [
            {
              "internalType": "uint256",
              "name": "totalBondInvestment",
              "type": "uint256"
            },
            {
              "internalType": "uint256",
              "name": "totalWarrantInvestment",
              "type": "uint256"
            },
            {
              "internalType": "uint256",
              "name": "bondRedemptions",
              "type": "uint256"
            },
            {
              "internalType": "uint256",
              "name": "warrantsExercised",
              "type": "uint256"
            },
            {
              "internalType": "bool",
              "name": "hasBonds",
              "type": "bool"
            },
            {
              "internalType": "bool",
              "name": "hasWarrants",
              "type": "bool"
            },
            {
              "internalType": "uint256",
              "name": "lastActivityTimestamp",
              "type": "uint256"
            }
          ],
          "internalType": "struct TokenSaleFacet.InvestorInfo",
          "name": "",
          "type": "tuple"
        }
      ],
      "stateMutability": "view",
      "type": "function"
    },
    {
      "inputs": [
        {
          "internalType": "address",
          "name": "_bondTokenDiamond",
          "type": "address"
        },
        {
          "internalType": "address",
          "name": "_warrantTokenDiamond",
          "type": "address"
        },
        {
          "internalType": "address",
          "name": "_equityTokenDiamond",
          "type": "address"
        },
        {
          "internalType": "uint256",
          "name": "_bondMaturityDays",
          "type": "uint256"
        },
        {
          "internalType": "uint256",
          "name": "_bondYieldBasisPoints",
          "type": "uint256"
        },
        {
          "internalType": "uint256",
          "name": "_warrantStrikePrice",
          "type": "uint256"
        },
        {
          "internalType": "address payable",
          "name": "_treasury",
          "type": "address"
        }
      ],
      "name": "initializeTokenSale",
      "outputs": [],
      "stateMutability": "nonpayable",
      "type": "function"
    },
    {
      "inputs": [
        {
          "internalType": "address",
          "name": "investor",
          "type": "address"
        }
      ],
      "name": "investors",
      "outputs": [
        {
          "internalType": "bool",
          "name": "",
          "type": "bool"
        }
      ],
      "stateMutability": "view",
      "type": "function"
    },
    {
      "inputs": [],
      "name": "maxBondPurchase",
      "outputs": [
        {
          "internalType": "uint256",
          "name": "",
          "type": "uint256"
        }
      ],
      "stateMutability": "view",
      "type": "function"
    },
    {
      "inputs": [],
      "name": "maxWarrantPurchase",
      "outputs": [
        {
          "internalType": "uint256",
          "name": "",
          "type": "uint256"
        }
      ],
      "stateMutability": "view",
      "type": "function"
    },
    {
      "inputs": [],
      "name": "minBondPurchase",
      "outputs": [
        {
          "internalType": "uint256",
          "name": "",
          "type": "uint256"
        }
      ],
      "stateMutability": "view",
      "type": "function"
    },
    {
      "inputs": [],
      "name": "minWarrantPurchase",
      "outputs": [
        {
          "internalType": "uint256",
          "name": "",
          "type": "uint256"
        }
      ],
      "stateMutability": "view",
      "type": "function"
    },
    {
      "inputs": [],
      "name": "purchaseBonds",
      "outputs": [],
      "stateMutability": "payable",
      "type": "function"
    },
    {
      "inputs": [],
      "name": "purchaseWarrants",
      "outputs": [],
      "stateMutability": "payable",
      "type": "function"
    },
    {
      "inputs": [
        {
          "internalType": "uint256",
          "name": "amount",
          "type": "uint256"
        }
      ],
      "name": "redeemBonds",
      "outputs": [],
      "stateMutability": "nonpayable",
      "type": "function"
    },
    {
      "inputs": [
        {
          "internalType": "bool",
          "name": "_active",
          "type": "bool"
        }
      ],
      "name": "toggleBondSale",
      "outputs": [],
      "stateMutability": "nonpayable",
      "type": "function"
    },
    {
      "inputs": [
        {
          "internalType": "bool",
          "name": "_active",
          "type": "bool"
        }
      ],
      "name": "toggleWarrantSale",
      "outputs": [],
      "stateMutability": "nonpayable",
      "type": "function"
    },
    {
      "inputs": [],
      "name": "totalBondRedemptions",
      "outputs": [
        {
          "internalType": "uint256",
          "name": "",
          "type": "uint256"
        }
      ],
      "stateMutability": "view",
      "type": "function"
    },
    {
      "inputs": [],
      "name": "totalEquityIssued",
      "outputs": [
        {
          "internalType": "uint256",
          "name": "",
          "type": "uint256"
        }
      ],
      "stateMutability": "view",
      "type": "function"
    },
    {
      "inputs": [],
      "name": "totalFundsRaised",
      "outputs": [
        {
          "internalType": "uint256",
          "name": "",
          "type": "uint256"
        }
      ],
      "stateMutability": "view",
      "type": "function"
    },
    {
      "inputs": [],
      "name": "totalWarrantsExercised",
      "outputs": [
        {
          "internalType": "uint256",
          "name": "",
          "type": "uint256"
        }
      ],
      "stateMutability": "view",
      "type": "function"
    },
    {
      "inputs": [],
      "name": "totalWarrantsIssued",
      "outputs": [
        {
          "internalType": "uint256",
          "name": "",
          "type": "uint256"
        }
      ],
      "stateMutability": "view",
      "type": "function"
    },
    {
      "inputs": [],
      "name": "treasury",
      "outputs": [
        {
          "internalType": "address payable",
          "name": "",
          "type": "address"
        }
      ],
      "stateMutability": "view",
      "type": "function"
    },
    {
      "inputs": [
        {
          "internalType": "uint256",
          "name": "_min",
          "type": "uint256"
        },
        {
          "internalType": "uint256",
          "name": "_max",
          "type": "uint256"
        }
      ],
      "name": "updateBondPurchaseLimits",
      "outputs": [],
      "stateMutability": "nonpayable",
      "type": "function"
    },
    {
      "inputs": [
        {
          "internalType": "address",
          "name": "newBondTokenDiamond",
          "type": "address"
        },
        {
          "internalType": "address",
          "name": "newWarrantTokenDiamond",
          "type": "address"
        },
        {
          "internalType": "address",
          "name": "newEquityTokenDiamond",
          "type": "address"
        }
      ],
      "name": "updateTokenAddresses",
      "outputs": [],
      "stateMutability": "nonpayable",
      "type": "function"
    },
    {
      "inputs": [
        {
          "internalType": "address payable",
          "name": "newTreasury",
          "type": "address"
        }
      ],
      "name": "updateTreasury",
      "outputs": [],
      "stateMutability": "nonpayable",
      "type": "function"
    },
    {
      "inputs": [
        {
          "internalType": "uint256",
          "name": "_min",
          "type": "uint256"
        },
        {
          "internalType": "uint256",
          "name": "_max",
          "type": "uint256"
        }
      ],
      "name": "updateWarrantPurchaseLimits",
      "outputs": [],
      "stateMutability": "nonpayable",
      "type": "function"
    },
    {
      "inputs": [],
      "name": "warrantSaleActive",
      "outputs": [
        {
          "internalType": "bool",
          "name": "",
          "type": "bool"
        }
      ],
      "stateMutability": "view",
      "type": "function"
    },
    {
      "inputs": [],
      "name": "warrantStrikePrice",
      "outputs": [
        {
          "internalType": "uint256",
          "name": "",
          "type": "uint256"
        }
      ],
      "stateMutability": "view",
      "type": "function"
    },
    {
      "inputs": [],
      "name": "warrantTokenDiamond",
      "outputs": [
        {
          "internalType": "address",
          "name": "",
          "type": "address"
        }
      ],
      "stateMutability": "view",
      "type": "function"
    },
    {
      "stateMutability": "payable",
      "type": "receive"
    }
  ],
  "bytecode": "0x608060405234801561001057600080fd5b5061494b806100206000396000f3fe6080604052600436106102085760003560e01c80637ca0d59711610118578063b8a986f3116100a0578063e189ce141161006f578063e189ce14146106f8578063e4464ecc14610721578063ec52c6901461073d578063eeacc2c014610768578063efab1e501461079357610248565b8063b8a986f31461066f578063bb2da8551461069a578063c70fce7d146106c3578063d0a2f2c4146106cd57610248565b8063960524e3116100e7578063960524e31461059a578063a08e34bd146105c5578063accebcb4146105f0578063b4ec89c71461061b578063b5a8461d1461064457610248565b80637ca0d597146104f05780637f51bb1f1461051b57806386f991c114610544578063900d8cb11461056f57610248565b8063442429111161019b578063674a5f0c1161016a578063674a5f0c146104095780636bac4650146104345780636f7bc9be1461045d57806371694eb51461049a578063737a53e1146104c557610248565b8063442429111461035f5780634e0e48791461038a5780635583fca2146103b357806361d027b3146103de57610248565b80633c4e4478116101d75780633c4e4478146102d65780633d31841b146102ff578063412a1d4e14610309578063427c0c7f1461033457610248565b806320691b291461024d57806320f6929914610276578063270880da146102a1578063340a646f146102ab57610248565b36610248577f0939f6f4877faf071412e527bc4c6d0bd65ad077e52b57334f7765265647a7f1333460405161023e9291906132b9565b60405180910390a1005b600080fd5b34801561025957600080fd5b50610274600480360381019061026f919061331f565b6107d0565b005b34801561028257600080fd5b5061028b61082d565b604051610298919061334c565b60405180910390f35b6102a9610860565b005b3480156102b757600080fd5b506102c0610ea4565b6040516102cd9190613367565b60405180910390f35b3480156102e257600080fd5b506102fd60048036038101906102f89190613418565b610eb7565b005b610307611072565b005b34801561031557600080fd5b5061031e611529565b60405161032b9190613367565b60405180910390f35b34801561034057600080fd5b5061034961153c565b6040516103569190613367565b60405180910390f35b34801561036b57600080fd5b5061037461154f565b6040516103819190613367565b60405180910390f35b34801561039657600080fd5b506103b160048036038101906103ac91906134ba565b611562565b005b3480156103bf57600080fd5b506103c861178a565b6040516103d59190613367565b60405180910390f35b3480156103ea57600080fd5b506103f361179d565b604051610400919061351c565b60405180910390f35b34801561041557600080fd5b5061041e6117d0565b60405161042b919061334c565b60405180910390f35b34801561044057600080fd5b5061045b6004803603810190610456919061331f565b611803565b005b34801561046957600080fd5b50610484600480360381019061047f9190613537565b611860565b6040516104919190613573565b60405180910390f35b3480156104a657600080fd5b506104af6118bf565b6040516104bc9190613367565b60405180910390f35b3480156104d157600080fd5b506104da6118d2565b6040516104e79190613367565b60405180910390f35b3480156104fc57600080fd5b506105056118e5565b6040516105129190613367565b60405180910390f35b34801561052757600080fd5b50610542600480360381019061053d919061358e565b6118f8565b005b34801561055057600080fd5b50610559611a1d565b6040516105669190613367565b60405180910390f35b34801561057b57600080fd5b50610584611a30565b6040516105919190613367565b60405180910390f35b3480156105a657600080fd5b506105af611a43565b6040516105bc9190613367565b60405180910390f35b3480156105d157600080fd5b506105da611a59565b6040516105e79190613573565b60405180910390f35b3480156105fc57600080fd5b50610605611a79565b6040516106129190613573565b60405180910390f35b34801561062757600080fd5b50610642600480360381019061063d91906135bb565b611a99565b005b34801561065057600080fd5b50610659611b38565b6040516106669190613367565b60405180910390f35b34801561067b57600080fd5b50610684611b4b565b6040516106919190613367565b60405180910390f35b3480156106a657600080fd5b506106c160048036038101906106bc91906135bb565b611b5e565b005b6106cb611bfd565b005b3480156106d957600080fd5b506106e2611c7b565b6040516106ef91906136b9565b60405180910390f35b34801561070457600080fd5b5061071f600480360381019061071a91906136db565b611d12565b005b61073b600480360381019061073691906136db565b61256f565b005b34801561074957600080fd5b50610752612fbe565b60405161075f9190613367565b60405180910390f35b34801561077457600080fd5b5061077d612fd1565b60405161078a919061334c565b60405180910390f35b34801561079f57600080fd5b506107ba60048036038101906107b59190613537565b613004565b6040516107c791906137b4565b60405180910390f35b806107d96130ce565b60060160146101000a81548160ff0219169083151502179055507ff26745ecef5b4630968151176491cc7ad049abe43152689e071f59598f71b07e816040516108229190613573565b60405180910390a150565b60006108376130ce565b60010160009054906101000a900473ffffffffffffffffffffffffffffffffffffffff16905090565b600061086a6130ce565b90508060060160159054906101000a900460ff166108bd576040517f08c379a00000000000000000000000000000000000000000000000000000000081526004016108b49061382c565b60405180910390fd5b8060090154341015610904576040517f08c379a00000000000000000000000000000000000000000000000000000000081526004016108fb90613898565b60405180910390fd5b80600a015434111561094b576040517f08c379a000000000000000000000000000000000000000000000000000000000815260040161094290613904565b60405180910390fd5b6000808260010160009054906101000a900473ffffffffffffffffffffffffffffffffffffffff1673ffffffffffffffffffffffffffffffffffffffff166040516024016040516020818303038152906040527f07339dba000000000000000000000000000000000000000000000000000000007bffffffffffffffffffffffffffffffffffffffffffffffffffffffff19166020820180517bffffffffffffffffffffffffffffffffffffffffffffffffffffffff8381831617835250505050604051610a199190613995565b6000604051808303816000865af19150503d8060008114610a56576040519150601f19603f3d011682016040523d82523d6000602084013e610a5b565b606091505b509150915081610aa0576040517f08c379a0000000000000000000000000000000000000000000000000000000008152600401610a97906139f8565b60405180910390fd5b600081806020019051810190610ab69190613a2d565b9050600081670de0b6b3a764000034610acf9190613a89565b610ad99190613afa565b905060008560010160009054906101000a900473ffffffffffffffffffffffffffffffffffffffff1673ffffffffffffffffffffffffffffffffffffffff163383604051602401610b2b9291906132b9565b6040516020818303038152906040527f40c10f19000000000000000000000000000000000000000000000000000000007bffffffffffffffffffffffffffffffffffffffffffffffffffffffff19166020820180517bffffffffffffffffffffffffffffffffffffffffffffffffffffffff8381831617835250505050604051610bb59190613995565b6000604051808303816000865af19150503d8060008114610bf2576040519150601f19603f3d011682016040523d82523d6000602084013e610bf7565b606091505b5050905080610c3b576040517f08c379a0000000000000000000000000000000000000000000000000000000008152600401610c3290613b77565b60405180910390fd5b3486600b016000828254610c4f9190613b97565b925050819055508186600d016000828254610c6a9190613b97565b92505081905550610c7a336130fb565b348660130160003373ffffffffffffffffffffffffffffffffffffffff1673ffffffffffffffffffffffffffffffffffffffff1681526020019081526020016000206001016000828254610cce9190613b97565b9250508190555060018660130160003373ffffffffffffffffffffffffffffffffffffffff1673ffffffffffffffffffffffffffffffffffffffff16815260200190815260200160002060040160016101000a81548160ff021916908315150217905550428660130160003373ffffffffffffffffffffffffffffffffffffffff1673ffffffffffffffffffffffffffffffffffffffff1681526020019081526020016000206005018190555060008660060160009054906101000a900473ffffffffffffffffffffffffffffffffffffffff1673ffffffffffffffffffffffffffffffffffffffff1634604051610dc590613bf1565b60006040518083038185875af1925050503d8060008114610e02576040519150601f19603f3d011682016040523d82523d6000602084013e610e07565b606091505b5050905080610e4b576040517f08c379a0000000000000000000000000000000000000000000000000000000008152600401610e4290613c52565b60405180910390fd5b3373ffffffffffffffffffffffffffffffffffffffff167ff2ab67635a782d67b2fab71fc4cbbf2fedefec74430ea6aa1a595df0f8929d4f8434604051610e93929190613c72565b60405180910390a250505050505050565b6000610eae6130ce565b60080154905090565b6000610ec16130ce565b9050878160000160006101000a81548173ffffffffffffffffffffffffffffffffffffffff021916908373ffffffffffffffffffffffffffffffffffffffff160217905550868160010160006101000a81548173ffffffffffffffffffffffffffffffffffffffff021916908373ffffffffffffffffffffffffffffffffffffffff160217905550858160020160006101000a81548173ffffffffffffffffffffffffffffffffffffffff021916908373ffffffffffffffffffffffffffffffffffffffff160217905550848160030181905550838160040181905550828160050181905550818160060160006101000a81548173ffffffffffffffffffffffffffffffffffffffff021916908373ffffffffffffffffffffffffffffffffffffffff16021790555060018160060160146101000a81548160ff02191690831515021790555060018160060160156101000a81548160ff021916908315150217905550662386f26fc10000816007018190555068056bc75e2d631000008160080181905550662386f26fc1000081600901819055506802b5e3af16b188000081600a01819055505050505050505050565b600061107c6130ce565b90508060060160149054906101000a900460ff166110cf576040517f08c379a00000000000000000000000000000000000000000000000000000000081526004016110c690613ce7565b60405180910390fd5b8060070154341015611116576040517f08c379a000000000000000000000000000000000000000000000000000000000815260040161110d90613898565b60405180910390fd5b806008015434111561115d576040517f08c379a000000000000000000000000000000000000000000000000000000000815260040161115490613904565b60405180910390fd5b600034905060008260000160009054906101000a900473ffffffffffffffffffffffffffffffffffffffff1673ffffffffffffffffffffffffffffffffffffffff1633836040516024016111b29291906132b9565b6040516020818303038152906040527f40c10f19000000000000000000000000000000000000000000000000000000007bffffffffffffffffffffffffffffffffffffffffffffffffffffffff19166020820180517bffffffffffffffffffffffffffffffffffffffffffffffffffffffff838183161783525050505060405161123c9190613995565b6000604051808303816000865af19150503d8060008114611279576040519150601f19603f3d011682016040523d82523d6000602084013e61127e565b606091505b50509050806112c2576040517f08c379a00000000000000000000000000000000000000000000000000000000081526004016112b990613d53565b60405180910390fd5b3483600b0160008282546112d69190613b97565b92505081905550600183600c0160008282546112f29190613b97565b92505081905550611302336130fb565b348360130160003373ffffffffffffffffffffffffffffffffffffffff1673ffffffffffffffffffffffffffffffffffffffff16815260200190815260200160002060000160008282546113569190613b97565b9250508190555060018360130160003373ffffffffffffffffffffffffffffffffffffffff1673ffffffffffffffffffffffffffffffffffffffff16815260200190815260200160002060040160006101000a81548160ff021916908315150217905550428360130160003373ffffffffffffffffffffffffffffffffffffffff1673ffffffffffffffffffffffffffffffffffffffff1681526020019081526020016000206005018190555060008360060160009054906101000a900473ffffffffffffffffffffffffffffffffffffffff1673ffffffffffffffffffffffffffffffffffffffff163460405161144d90613bf1565b60006040518083038185875af1925050503d806000811461148a576040519150601f19603f3d011682016040523d82523d6000602084013e61148f565b606091505b50509050806114d3576040517f08c379a00000000000000000000000000000000000000000000000000000000081526004016114ca90613c52565b60405180910390fd5b3373ffffffffffffffffffffffffffffffffffffffff167fe17625c8e066d43aa572a68a46078c8ba73f775c9708f1d6ce8cdd04afba6a8e843460405161151b929190613c72565b60405180910390a250505050565b60006115336130ce565b600c0154905090565b60006115466130ce565b600b0154905090565b60006115596130ce565b600f0154905090565b600073ffffffffffffffffffffffffffffffffffffffff168373ffffffffffffffffffffffffffffffffffffffff16036115d1576040517f08c379a00000000000000000000000000000000000000000000000000000000081526004016115c890613dbf565b60405180910390fd5b600073ffffffffffffffffffffffffffffffffffffffff168273ffffffffffffffffffffffffffffffffffffffff1603611640576040517f08c379a000000000000000000000000000000000000000000000000000000000815260040161163790613e2b565b60405180910390fd5b600073ffffffffffffffffffffffffffffffffffffffff168173ffffffffffffffffffffffffffffffffffffffff16036116af576040517f08c379a00000000000000000000000000000000000000000000000000000000081526004016116a690613e97565b60405180910390fd5b60006116b96130ce565b9050838160000160006101000a81548173ffffffffffffffffffffffffffffffffffffffff021916908373ffffffffffffffffffffffffffffffffffffffff160217905550828160010160006101000a81548173ffffffffffffffffffffffffffffffffffffffff021916908373ffffffffffffffffffffffffffffffffffffffff160217905550818160020160006101000a81548173ffffffffffffffffffffffffffffffffffffffff021916908373ffffffffffffffffffffffffffffffffffffffff16021790555050505050565b60006117946130ce565b60050154905090565b60006117a76130ce565b60060160009054906101000a900473ffffffffffffffffffffffffffffffffffffffff16905090565b60006117da6130ce565b60000160009054906101000a900473ffffffffffffffffffffffffffffffffffffffff16905090565b8061180c6130ce565b60060160156101000a81548160ff0219169083151502179055507f65b80ac6d4335e2be602dc7bf03a377ade225a737c1a87373565e88bf16530e3816040516118559190613573565b60405180910390a150565b600061186a6130ce565b60110160008373ffffffffffffffffffffffffffffffffffffffff1673ffffffffffffffffffffffffffffffffffffffff16815260200190815260200160002060009054906101000a900460ff169050919050565b60006118c96130ce565b60070154905090565b60006118dc6130ce565b600a0154905090565b60006118ef6130ce565b60100154905090565b600073ffffffffffffffffffffffffffffffffffffffff168173ffffffffffffffffffffffffffffffffffffffff1603611967576040517f08c379a000000000000000000000000000000000000000000000000000000000815260040161195e90613f03565b60405180910390fd5b60006119716130ce565b905060008160060160009054906101000a900473ffffffffffffffffffffffffffffffffffffffff169050828260060160006101000a81548173ffffffffffffffffffffffffffffffffffffffff021916908373ffffffffffffffffffffffffffffffffffffffff1602179055507f4ab5be82436d353e61ca18726e984e561f5c1cc7c6d38b29d2553c790434705a8184604051611a10929190613f82565b60405180910390a1505050565b6000611a276130ce565b60090154905090565b6000611a3a6130ce565b600e0154905090565b6000611a4d6130ce565b60120180549050905090565b6000611a636130ce565b60060160149054906101000a900460ff16905090565b6000611a836130ce565b60060160159054906101000a900460ff16905090565b80821115611adc576040517f08c379a0000000000000000000000000000000000000000000000000000000008152600401611ad390613ff7565b60405180910390fd5b6000611ae66130ce565b90508281600701819055508181600801819055507f7236195385d9b0b336cfe066d20a92990b780473c898cc0e6281881389b928138383604051611b2b929190614063565b60405180910390a1505050565b6000611b426130ce565b60040154905090565b6000611b556130ce565b600d0154905090565b80821115611ba1576040517f08c379a0000000000000000000000000000000000000000000000000000000008152600401611b9890613ff7565b60405180910390fd5b6000611bab6130ce565b90508281600901819055508181600a01819055507f7236195385d9b0b336cfe066d20a92990b780473c898cc0e6281881389b928138383604051611bf09291906140eb565b60405180910390a1505050565b60003411611c40576040517f08c379a0000000000000000000000000000000000000000000000000000000008152600401611c3790614173565b60405180910390fd5b7f0939f6f4877faf071412e527bc4c6d0bd65ad077e52b57334f7765265647a7f13334604051611c719291906132b9565b60405180910390a1565b6060611c856130ce565b601201805480602002602001604051908101604052809291908181526020018280548015611d0857602002820191906000526020600020905b8160009054906101000a900473ffffffffffffffffffffffffffffffffffffffff1673ffffffffffffffffffffffffffffffffffffffff1681526020019060010190808311611cbe575b5050505050905090565b6000611d1c6130ce565b905060008211611d61576040517f08c379a0000000000000000000000000000000000000000000000000000000008152600401611d58906141df565b60405180910390fd5b6000808260000160009054906101000a900473ffffffffffffffffffffffffffffffffffffffff1673ffffffffffffffffffffffffffffffffffffffff1633604051602401611db0919061334c565b6040516020818303038152906040527f70a08231000000000000000000000000000000000000000000000000000000007bffffffffffffffffffffffffffffffffffffffffffffffffffffffff19166020820180517bffffffffffffffffffffffffffffffffffffffffffffffffffffffff8381831617835250505050604051611e3a9190613995565b6000604051808303816000865af19150503d8060008114611e77576040519150601f19603f3d011682016040523d82523d6000602084013e611e7c565b606091505b509150915081611ec1576040517f08c379a0000000000000000000000000000000000000000000000000000000008152600401611eb89061424b565b60405180910390fd5b600081806020019051810190611ed79190613a2d565b905084811015611f1c576040517f08c379a0000000000000000000000000000000000000000000000000000000008152600401611f13906142b7565b60405180910390fd5b6000808560000160009054906101000a900473ffffffffffffffffffffffffffffffffffffffff1673ffffffffffffffffffffffffffffffffffffffff1633604051602401611f6b919061334c565b6040516020818303038152906040527fb7b9b3df000000000000000000000000000000000000000000000000000000007bffffffffffffffffffffffffffffffffffffffffffffffffffffffff19166020820180517bffffffffffffffffffffffffffffffffffffffffffffffffffffffff8381831617835250505050604051611ff59190613995565b6000604051808303816000865af19150503d8060008114612032576040519150601f19603f3d011682016040523d82523d6000602084013e612037565b606091505b50915091508161207c576040517f08c379a000000000000000000000000000000000000000000000000000000000815260040161207390614323565b60405180910390fd5b6000818060200190518101906120929190614358565b9050806120d4576040517f08c379a00000000000000000000000000000000000000000000000000000000081526004016120cb906143d1565b60405180910390fd5b6000808860000160009054906101000a900473ffffffffffffffffffffffffffffffffffffffff1673ffffffffffffffffffffffffffffffffffffffff168a6040516024016121239190613367565b6040516020818303038152906040527f76074b35000000000000000000000000000000000000000000000000000000007bffffffffffffffffffffffffffffffffffffffffffffffffffffffff19166020820180517bffffffffffffffffffffffffffffffffffffffffffffffffffffffff83818316178352505050506040516121ad9190613995565b6000604051808303816000865af19150503d80600081146121ea576040519150601f19603f3d011682016040523d82523d6000602084013e6121ef565b606091505b509150915081612234576040517f08c379a000000000000000000000000000000000000000000000000000000000815260040161222b90614463565b60405180910390fd5b60008180602001905181019061224a9190613a2d565b905060008a60000160009054906101000a900473ffffffffffffffffffffffffffffffffffffffff1673ffffffffffffffffffffffffffffffffffffffff16338d60405160240161229c9291906132b9565b6040516020818303038152906040527f79cc6790000000000000000000000000000000000000000000000000000000007bffffffffffffffffffffffffffffffffffffffffffffffffffffffff19166020820180517bffffffffffffffffffffffffffffffffffffffffffffffffffffffff83818316178352505050506040516123269190613995565b6000604051808303816000865af19150503d8060008114612363576040519150601f19603f3d011682016040523d82523d6000602084013e612368565b606091505b50509050806123ac576040517f08c379a00000000000000000000000000000000000000000000000000000000081526004016123a3906144cf565b60405180910390fd5b60018b600c0160008282546123c191906144ef565b925050819055508b8b600f0160008282546123dc9190613b97565b925050819055508b8b60130160003373ffffffffffffffffffffffffffffffffffffffff1673ffffffffffffffffffffffffffffffffffffffff16815260200190815260200160002060020160008282546124379190613b97565b92505081905550428b60130160003373ffffffffffffffffffffffffffffffffffffffff1673ffffffffffffffffffffffffffffffffffffffff16815260200190815260200160002060050181905550814710156124ca576040517f08c379a00000000000000000000000000000000000000000000000000000000081526004016124c19061456f565b60405180910390fd5b3373ffffffffffffffffffffffffffffffffffffffff166108fc839081150290604051600060405180830381858888f19350505050158015612510573d6000803e3d6000fd5b503373ffffffffffffffffffffffffffffffffffffffff167f078e7e33fc73f8f19ca611c3ba5105036dd4e8b8fbc9714fa55bc9a0379495c28d84604051612559929190613c72565b60405180910390a2505050505050505050505050565b60006125796130ce565b9050600082116125be576040517f08c379a00000000000000000000000000000000000000000000000000000000081526004016125b5906141df565b60405180910390fd5b6000808260010160009054906101000a900473ffffffffffffffffffffffffffffffffffffffff1673ffffffffffffffffffffffffffffffffffffffff163360405160240161260d919061334c565b6040516020818303038152906040527f70a08231000000000000000000000000000000000000000000000000000000007bffffffffffffffffffffffffffffffffffffffffffffffffffffffff19166020820180517bffffffffffffffffffffffffffffffffffffffffffffffffffffffff83818316178352505050506040516126979190613995565b6000604051808303816000865af19150503d80600081146126d4576040519150601f19603f3d011682016040523d82523d6000602084013e6126d9565b606091505b50915091508161271e576040517f08c379a0000000000000000000000000000000000000000000000000000000008152600401612715906145db565b60405180910390fd5b6000818060200190518101906127349190613a2d565b905084811015612779576040517f08c379a000000000000000000000000000000000000000000000000000000000815260040161277090614647565b60405180910390fd5b6000808560010160009054906101000a900473ffffffffffffffffffffffffffffffffffffffff1673ffffffffffffffffffffffffffffffffffffffff166040516024016040516020818303038152906040527f90e64d13000000000000000000000000000000000000000000000000000000007bffffffffffffffffffffffffffffffffffffffffffffffffffffffff19166020820180517bffffffffffffffffffffffffffffffffffffffffffffffffffffffff83818316178352505050506040516128479190613995565b6000604051808303816000865af19150503d8060008114612884576040519150601f19603f3d011682016040523d82523d6000602084013e612889565b606091505b5091509150816128ce576040517f08c379a00000000000000000000000000000000000000000000000000000000081526004016128c5906146b3565b60405180910390fd5b6000818060200190518101906128e49190614358565b90508015612927576040517f08c379a000000000000000000000000000000000000000000000000000000000815260040161291e9061471f565b60405180910390fd5b6000808860010160009054906101000a900473ffffffffffffffffffffffffffffffffffffffff1673ffffffffffffffffffffffffffffffffffffffff168a6040516024016129769190613367565b6040516020818303038152906040527f0410582b000000000000000000000000000000000000000000000000000000007bffffffffffffffffffffffffffffffffffffffffffffffffffffffff19166020820180517bffffffffffffffffffffffffffffffffffffffffffffffffffffffff8381831617835250505050604051612a009190613995565b6000604051808303816000865af19150503d8060008114612a3d576040519150601f19603f3d011682016040523d82523d6000602084013e612a42565b606091505b509150915081612a87576040517f08c379a0000000000000000000000000000000000000000000000000000000008152600401612a7e906147b1565b60405180910390fd5b600081806020019051810190612a9d9190613a2d565b905080341015612ae2576040517f08c379a0000000000000000000000000000000000000000000000000000000008152600401612ad99061481d565b60405180910390fd5b60008a60010160009054906101000a900473ffffffffffffffffffffffffffffffffffffffff1673ffffffffffffffffffffffffffffffffffffffff16338d604051602401612b329291906132b9565b6040516020818303038152906040527f79cc6790000000000000000000000000000000000000000000000000000000007bffffffffffffffffffffffffffffffffffffffffffffffffffffffff19166020820180517bffffffffffffffffffffffffffffffffffffffffffffffffffffffff8381831617835250505050604051612bbc9190613995565b6000604051808303816000865af19150503d8060008114612bf9576040519150601f19603f3d011682016040523d82523d6000602084013e612bfe565b606091505b5050905080612c42576040517f08c379a0000000000000000000000000000000000000000000000000000000008152600401612c3990614889565b60405180910390fd5b60008b60020160009054906101000a900473ffffffffffffffffffffffffffffffffffffffff1673ffffffffffffffffffffffffffffffffffffffff16338e604051602401612c929291906132b9565b6040516020818303038152906040527f40c10f19000000000000000000000000000000000000000000000000000000007bffffffffffffffffffffffffffffffffffffffffffffffffffffffff19166020820180517bffffffffffffffffffffffffffffffffffffffffffffffffffffffff8381831617835250505050604051612d1c9190613995565b6000604051808303816000865af19150503d8060008114612d59576040519150601f19603f3d011682016040523d82523d6000602084013e612d5e565b606091505b5050905080612da2576040517f08c379a0000000000000000000000000000000000000000000000000000000008152600401612d99906148f5565b60405180910390fd5b8c8c600e016000828254612db69190613b97565b925050819055508c8c6010016000828254612dd19190613b97565b925050819055508c8c60130160003373ffffffffffffffffffffffffffffffffffffffff1673ffffffffffffffffffffffffffffffffffffffff1681526020019081526020016000206003016000828254612e2c9190613b97565b92505081905550428c60130160003373ffffffffffffffffffffffffffffffffffffffff1673ffffffffffffffffffffffffffffffffffffffff1681526020019081526020016000206005018190555060008c60060160009054906101000a900473ffffffffffffffffffffffffffffffffffffffff1673ffffffffffffffffffffffffffffffffffffffff1684604051612ec690613bf1565b60006040518083038185875af1925050503d8060008114612f03576040519150601f19603f3d011682016040523d82523d6000602084013e612f08565b606091505b5050905080612f4c576040517f08c379a0000000000000000000000000000000000000000000000000000000008152600401612f4390613c52565b60405180910390fd5b60008434612f5a91906144ef565b90506000811115612fad573373ffffffffffffffffffffffffffffffffffffffff166108fc829081150290604051600060405180830381858888f19350505050158015612fab573d6000803e3d6000fd5b505b505050505050505050505050505050565b6000612fc86130ce565b60030154905090565b6000612fdb6130ce565b60020160009054906101000a900473ffffffffffffffffffffffffffffffffffffffff16905090565b61300c61321e565b6130146130ce565b60130160008373ffffffffffffffffffffffffffffffffffffffff1673ffffffffffffffffffffffffffffffffffffffff1681526020019081526020016000206040518060e0016040529081600082015481526020016001820154815260200160028201548152602001600382015481526020016004820160009054906101000a900460ff161515151581526020016004820160019054906101000a900460ff161515151581526020016005820154815250509050919050565b6000807f9e8729512f68a9935f78d8ed9b28552e7ae5208d3ec69aa40ec0d496e58bcb9f90508091505090565b60006131056130ce565b90508060110160008373ffffffffffffffffffffffffffffffffffffffff1673ffffffffffffffffffffffffffffffffffffffff16815260200190815260200160002060009054906101000a900460ff1661321a5760018160110160008473ffffffffffffffffffffffffffffffffffffffff1673ffffffffffffffffffffffffffffffffffffffff16815260200190815260200160002060006101000a81548160ff02191690831515021790555080601201829080600181540180825580915050600190039060005260206000200160009091909190916101000a81548173ffffffffffffffffffffffffffffffffffffffff021916908373ffffffffffffffffffffffffffffffffffffffff1602179055505b5050565b6040518060e0016040528060008152602001600081526020016000815260200160008152602001600015158152602001600015158152602001600081525090565b600073ffffffffffffffffffffffffffffffffffffffff82169050919050565b600061328a8261325f565b9050919050565b61329a8161327f565b82525050565b6000819050919050565b6132b3816132a0565b82525050565b60006040820190506132ce6000830185613291565b6132db60208301846132aa565b9392505050565b600080fd5b60008115159050919050565b6132fc816132e7565b811461330757600080fd5b50565b600081359050613319816132f3565b92915050565b600060208284031215613335576133346132e2565b5b60006133438482850161330a565b91505092915050565b60006020820190506133616000830184613291565b92915050565b600060208201905061337c60008301846132aa565b92915050565b61338b8161327f565b811461339657600080fd5b50565b6000813590506133a881613382565b92915050565b6133b7816132a0565b81146133c257600080fd5b50565b6000813590506133d4816133ae565b92915050565b60006133e58261325f565b9050919050565b6133f5816133da565b811461340057600080fd5b50565b600081359050613412816133ec565b92915050565b600080600080600080600060e0888a031215613437576134366132e2565b5b60006134458a828b01613399565b97505060206134568a828b01613399565b96505060406134678a828b01613399565b95505060606134788a828b016133c5565b94505060806134898a828b016133c5565b93505060a061349a8a828b016133c5565b92505060c06134ab8a828b01613403565b91505092959891949750929550565b6000806000606084860312156134d3576134d26132e2565b5b60006134e186828701613399565b93505060206134f286828701613399565b925050604061350386828701613399565b9150509250925092565b613516816133da565b82525050565b6000602082019050613531600083018461350d565b92915050565b60006020828403121561354d5761354c6132e2565b5b600061355b84828501613399565b91505092915050565b61356d816132e7565b82525050565b60006020820190506135886000830184613564565b92915050565b6000602082840312156135a4576135a36132e2565b5b60006135b284828501613403565b91505092915050565b600080604083850312156135d2576135d16132e2565b5b60006135e0858286016133c5565b92505060206135f1858286016133c5565b9150509250929050565b600081519050919050565b600082825260208201905092915050565b6000819050602082019050919050565b6136308161327f565b82525050565b60006136428383613627565b60208301905092915050565b6000602082019050919050565b6000613666826135fb565b6136708185613606565b935061367b83613617565b8060005b838110156136ac5781516136938882613636565b975061369e8361364e565b92505060018101905061367f565b5085935050505092915050565b600060208201905081810360008301526136d3818461365b565b905092915050565b6000602082840312156136f1576136f06132e2565b5b60006136ff848285016133c5565b91505092915050565b613711816132a0565b82525050565b613720816132e7565b82525050565b60e08201600082015161373c6000850182613708565b50602082015161374f6020850182613708565b5060408201516137626040850182613708565b5060608201516137756060850182613708565b5060808201516137886080850182613717565b5060a082015161379b60a0850182613717565b5060c08201516137ae60c0850182613708565b50505050565b600060e0820190506137c96000830184613726565b92915050565b600082825260208201905092915050565b7f57617272616e742073616c657320617265207061757365640000000000000000600082015250565b60006138166018836137cf565b9150613821826137e0565b602082019050919050565b6000602082019050818103600083015261384581613809565b9050919050565b7f496e766573746d656e742062656c6f77206d696e696d756d0000000000000000600082015250565b60006138826018836137cf565b915061388d8261384c565b602082019050919050565b600060208201905081810360008301526138b181613875565b9050919050565b7f496e766573746d656e742061626f7665206d6178696d756d0000000000000000600082015250565b60006138ee6018836137cf565b91506138f9826138b8565b602082019050919050565b6000602082019050818103600083015261391d816138e1565b9050919050565b600081519050919050565b600081905092915050565b60005b8381101561395857808201518184015260208101905061393d565b60008484015250505050565b600061396f82613924565b613979818561392f565b935061398981856020860161393a565b80840191505092915050565b60006139a18284613964565b915081905092915050565b7f4661696c656420746f206765742077617272616e742070726963650000000000600082015250565b60006139e2601b836137cf565b91506139ed826139ac565b602082019050919050565b60006020820190508181036000830152613a11816139d5565b9050919050565b600081519050613a27816133ae565b92915050565b600060208284031215613a4357613a426132e2565b5b6000613a5184828501613a18565b91505092915050565b7f4e487b7100000000000000000000000000000000000000000000000000000000600052601160045260246000fd5b6000613a94826132a0565b9150613a9f836132a0565b9250828202613aad816132a0565b91508282048414831517613ac457613ac3613a5a565b5b5092915050565b7f4e487b7100000000000000000000000000000000000000000000000000000000600052601260045260246000fd5b6000613b05826132a0565b9150613b10836132a0565b925082613b2057613b1f613acb565b5b828204905092915050565b7f57617272616e7420746f6b656e206d696e74696e67206661696c656400000000600082015250565b6000613b61601c836137cf565b9150613b6c82613b2b565b602082019050919050565b60006020820190508181036000830152613b9081613b54565b9050919050565b6000613ba2826132a0565b9150613bad836132a0565b9250828201905080821115613bc557613bc4613a5a565b5b92915050565b50565b6000613bdb60008361392f565b9150613be682613bcb565b600082019050919050565b6000613bfc82613bce565b9150819050919050565b7f4661696c656420746f2073656e642045544820746f2074726561737572790000600082015250565b6000613c3c601e836137cf565b9150613c4782613c06565b602082019050919050565b60006020820190508181036000830152613c6b81613c2f565b9050919050565b6000604082019050613c8760008301856132aa565b613c9460208301846132aa565b9392505050565b7f426f6e642073616c657320617265207061757365640000000000000000000000600082015250565b6000613cd16015836137cf565b9150613cdc82613c9b565b602082019050919050565b60006020820190508181036000830152613d0081613cc4565b9050919050565b7f426f6e6420746f6b656e206d696e74696e67206661696c656400000000000000600082015250565b6000613d3d6019836137cf565b9150613d4882613d07565b602082019050919050565b60006020820190508181036000830152613d6c81613d30565b9050919050565b7f496e76616c696420626f6e6420746f6b656e2061646472657373000000000000600082015250565b6000613da9601a836137cf565b9150613db482613d73565b602082019050919050565b60006020820190508181036000830152613dd881613d9c565b9050919050565b7f496e76616c69642077617272616e7420746f6b656e2061646472657373000000600082015250565b6000613e15601d836137cf565b9150613e2082613ddf565b602082019050919050565b60006020820190508181036000830152613e4481613e08565b9050919050565b7f496e76616c69642065717569747920746f6b656e206164647265737300000000600082015250565b6000613e81601c836137cf565b9150613e8c82613e4b565b602082019050919050565b60006020820190508181036000830152613eb081613e74565b9050919050565b7f496e76616c696420747265617375727920616464726573730000000000000000600082015250565b6000613eed6018836137cf565b9150613ef882613eb7565b602082019050919050565b60006020820190508181036000830152613f1c81613ee0565b9050919050565b6000819050919050565b6000613f48613f43613f3e8461325f565b613f23565b61325f565b9050919050565b6000613f5a82613f2d565b9050919050565b6000613f6c82613f4f565b9050919050565b613f7c81613f61565b82525050565b6000604082019050613f976000830185613291565b613fa46020830184613f73565b9392505050565b7f4d696e2063616e6e6f742062652067726561746572207468616e206d61780000600082015250565b6000613fe1601e836137cf565b9150613fec82613fab565b602082019050919050565b6000602082019050818103600083015261401081613fd4565b9050919050565b7f626f6e6400000000000000000000000000000000000000000000000000000000600082015250565b600061404d6004836137cf565b915061405882614017565b602082019050919050565b6000606082019050818103600083015261407c81614040565b905061408b60208301856132aa565b61409860408301846132aa565b9392505050565b7f77617272616e7400000000000000000000000000000000000000000000000000600082015250565b60006140d56007836137cf565b91506140e08261409f565b602082019050919050565b60006060820190508181036000830152614104816140c8565b905061411360208301856132aa565b61412060408301846132aa565b9392505050565b7f4d7573742073656e642045544800000000000000000000000000000000000000600082015250565b600061415d600d836137cf565b915061416882614127565b602082019050919050565b6000602082019050818103600083015261418c81614150565b9050919050565b7f416d6f756e74206d7573742062652067726561746572207468616e2030000000600082015250565b60006141c9601d836137cf565b91506141d482614193565b602082019050919050565b600060208201905081810360008301526141f8816141bc565b9050919050565b7f4661696c656420746f2067657420626f6e642062616c616e6365000000000000600082015250565b6000614235601a836137cf565b9150614240826141ff565b602082019050919050565b6000602082019050818103600083015261426481614228565b9050919050565b7f496e73756666696369656e7420626f6e642062616c616e636500000000000000600082015250565b60006142a16019836137cf565b91506142ac8261426b565b602082019050919050565b600060208201905081810360008301526142d081614294565b9050919050565b7f4661696c656420746f20636865636b20626f6e64206d61747572697479000000600082015250565b600061430d601d836137cf565b9150614318826142d7565b602082019050919050565b6000602082019050818103600083015261433c81614300565b9050919050565b600081519050614352816132f3565b92915050565b60006020828403121561436e5761436d6132e2565b5b600061437c84828501614343565b91505092915050565b7f426f6e64732068617665206e6f7420796574206d617475726564000000000000600082015250565b60006143bb601a836137cf565b91506143c682614385565b602082019050919050565b600060208201905081810360008301526143ea816143ae565b9050919050565b7f4661696c656420746f2063616c63756c61746520726564656d7074696f6e206160008201527f6d6f756e74000000000000000000000000000000000000000000000000000000602082015250565b600061444d6025836137cf565b9150614458826143f1565b604082019050919050565b6000602082019050818103600083015261447c81614440565b9050919050565b7f4661696c656420746f206275726e20626f6e6420746f6b656e73000000000000600082015250565b60006144b9601a836137cf565b91506144c482614483565b602082019050919050565b600060208201905081810360008301526144e8816144ac565b9050919050565b60006144fa826132a0565b9150614505836132a0565b925082820390508181111561451d5761451c613a5a565b5b92915050565b7f496e73756666696369656e7420636f6e74726163742062616c616e6365000000600082015250565b6000614559601d836137cf565b915061456482614523565b602082019050919050565b600060208201905081810360008301526145888161454c565b9050919050565b7f4661696c656420746f206765742077617272616e742062616c616e6365000000600082015250565b60006145c5601d836137cf565b91506145d08261458f565b602082019050919050565b600060208201905081810360008301526145f4816145b8565b9050919050565b7f496e73756666696369656e742077617272616e742062616c616e636500000000600082015250565b6000614631601c836137cf565b915061463c826145fb565b602082019050919050565b6000602082019050818103600083015261466081614624565b9050919050565b7f4661696c656420746f20636865636b2077617272616e74206578706972790000600082015250565b600061469d601e836137cf565b91506146a882614667565b602082019050919050565b600060208201905081810360008301526146cc81614690565b9050919050565b7f57617272616e7473206861766520657870697265640000000000000000000000600082015250565b60006147096015836137cf565b9150614714826146d3565b602082019050919050565b60006020820190508181036000830152614738816146fc565b9050919050565b7f4661696c656420746f2063616c63756c61746520657865726369736520636f7360008201527f7400000000000000000000000000000000000000000000000000000000000000602082015250565b600061479b6021836137cf565b91506147a68261473f565b604082019050919050565b600060208201905081810360008301526147ca8161478e565b9050919050565b7f496e73756666696369656e74204554482073656e740000000000000000000000600082015250565b60006148076015836137cf565b9150614812826147d1565b602082019050919050565b60006020820190508181036000830152614836816147fa565b9050919050565b7f4661696c656420746f206275726e2077617272616e7420746f6b656e73000000600082015250565b6000614873601d836137cf565b915061487e8261483d565b602082019050919050565b600060208201905081810360008301526148a281614866565b9050919050565b7f4661696c656420746f206d696e742065717569747920746f6b656e7300000000600082015250565b60006148df601c836137cf565b91506148ea826148a9565b602082019050919050565b6000602082019050818103600083015261490e816148d2565b905091905056fea2646970667358221220312789c3ee776523724f2fa2ee033008bfa3c5389b51c9364f34b08523d37cf564736f6c63430008110033",
  "linkReferences": {},
  "deployedLinkReferences": {}
}